:100000000C9470030C9498030C9498030C9498032C
:100010000C9498030C9498030C9498030C949803F4
:100020000C9498030C9498030C94DA070C944C08E5
:100030000C9498030C9498030C9498030C949803D4
:100040000C9498030C9498030C9498030C949803C4
:100050000C9498030C9498030C9498030C948205C8
:100060000C9498030C9498030C9498030C949803A4
:100070000C9498030C9498030C9498030C94980394
:100080000C9498030C9498030C9498030C94980384
:100090000C9498030C9498030C9498030C94980374
:1000A0000C9498030C9498030C949803000000009F
:1000B000003E5B4F5B3E3E6B4F6B3E1C3E7C3E1CEE
:1000C000183C7E3C181C577D571C1C5E7F5E1C0034
:1000D000183C1800FFE7C3E7FF0018241800FFE7EB
:1000E000DBE7FF30483A060E2629792926407F05AE
:1000F0000507407F05253F5A3CE73C5A7F3E1C1CC4
:1001000008081C1C3E7F14227F22145F5F005F5F83
:1001100006097F017F006689956A6060606060946F
:10012000A2FFA29408047E040810207E2010080874
:100130002A1C08081C2A08081E101010100C1E0C7F
:100140001E0C30383E3830060E3E0E060000000011
:100150000000005F00000007000700147F147F14F8
:10016000242A7F2A1223130864623649562050003D
:1001700008070300001C2241000041221C002A1C29
:100180007F1C2A08083E0808008070300008080814
:100190000808000060600020100804023E51494534
:1001A0003E00427F400072494949462141494D3352
:1001B0001814127F1027454545393C4A49493141B9
:1001C000211109073649494936464949291E000087
:1001D00014000000403400000008142241141414DC
:1001E0001414004122140802015909063E415D59C8
:1001F0004E7C1211127C7F494949363E41414122D1
:100200007F4141413E7F494949417F090909013EFA
:10021000414151737F0808087F00417F4100204021
:10022000413F017F081422417F404040407F021C33
:10023000027F7F0408107F3E4141413E7F0909094A
:10024000063E4151215E7F09192946264949493216
:1002500003017F01033F4040403F1F2040201F3FDC
:100260004038403F63140814630304780403615961
:10027000494D43007F4141410204081020004141A3
:10028000417F04020102044040404040000307084F
:100290000020545478407F2844443838444444284B
:1002A000384444287F385454541800087E090218F2
:1002B000A4A49C787F0804047800447D400020407A
:1002C000403D007F1028440000417F40007C0478BE
:1002D00004787C080404783844444438FC18242406
:1002E0001818242418FC7C08040408485454542486
:1002F00004043F44243C4040207C1C2040201C3C03
:100300004030403C44281028444C9090907C4464F9
:10031000544C44000836410000007700000041368C
:10032000080002010204023C2623263C1EA1A16112
:10033000123A4040207A3854545559215555794144
:100340002154547841215554784020545579400C1B
:100350001E527212395555555939545454593955FC
:100360005454580000457C410002457D420001453F
:100370007C40F0292429F0F0282528F07C545545AC
:10038000002054547C547C0A097F4932494949323F
:100390003248484832324A4848303A4141217A3A54
:1003A00042402078009DA0A07D39444444393D401E
:1003B00040403D3C24FF2424487E4943662B2FFCCB
:1003C0002F2BFF0929F620C0887E09032054547979
:1003D000410000447D413048484A32384040227A4A
:1003E000007A0A0A727D0D19317D2629292F2826C7
:1003F0002929292630484D402038080808080808CF
:100400000808382F10C8ACBA2F102834FA00007B27
:10041000000008142A142222142A1408950022002D
:1004200095AA005500AAAA55AA55AA000000FF00E7
:10043000101010FF00141414FF001010FF00FF1024
:1004400010F010F0141414FC001414F700FF000056
:10045000FF00FF1414F404FC141417101F10101FD5
:10046000101F1414141F00101010F0000000001FC3
:10047000101010101F10101010F010000000FF10CE
:100480001010101010101010FF10000000FF1400CA
:1004900000FF00FF00001F10170000FC04F41414FC
:1004A0001710171414F404F40000FF00F7141414C8
:1004B00014141414F700F7141414171410101F1048
:1004C0001F141414F4141010F010F000001F101F6B
:1004D0000000001F14000000FC140000F010F010D9
:1004E00010FF10FF141414FF141010101F00000050
:1004F00000F010FFFFFFFFFFF0F0F0F0F0FFFFFF54
:100500000000000000FFFF0F0F0F0F0F38444438AA
:10051000447C2A2A3E147E02020606027E027E02E5
:1005200063554941633844443C04407E201E200604
:10053000027E020299A5E7A5991C2A492A1C4C7241
:1005400001724C304A4D4D303048784830BC625AC8
:10055000463D3E494949007E0101017E2A2A2A2A58
:100560002A44445F444440514A444040444A514034
:100570000000FF0103E080FF000008086B6B0836F5
:1005800012362436060F090F060000181800000066
:100590001010003040FF0101001F01011E00191D55
:1005A0001712003C3C3C3C0000000000F0F89C8E20
:1005B0008783878E9CF8F00000FEFF03030303038C
:1005C000070EFCF80000FEFF0303030303070EFC05
:1005D000F80000FFFF00000000000000FFFF000027
:1005E000FEFF8383838383C7EE7C380000F8FC0E14
:1005F00007030303070EFCF800003F7FE0C0808084
:10060000C0E07F3FFFFF01010101010101FFFF0089
:1006100000FFFF0C0C0C0C1C3E77E3C100007FFFB9
:10062000C0C0C0C0C0E0703F1F00001F3F70E0C0EE
:10063000C0C0E0703F1F00007FFFC1C1C1C1C1E366
:10064000773E1C00001F3F70E0C0C0C0E0703F1F3D
:10065000000000000001FFFF01000000D5F08D1434
:10066000A1C881CFD9F1AF2000080B00020202011E
:100670000009040000010202000005240010010529
:100680002401010104240206052406000107058156
:100690000310004009040100020A000000070502DF
:1006A0000240000007058302400000040309041211
:1006B000010002EF020140412336800001010203E4
:1006C0000141726475696E6F204C4C430041726445
:1006D00075696E6F204C656F6E6172646F007A0D84
:1006E00011241FBECFEFDAE0DEBFCDBF11E0A0E0E6
:1006F000B1E0E0EEFBE102C005900D92AA33B10734
:10070000D9F725E0AAE3B1E001C01D92A93CB207E8
:10071000E1F713E0C0E7D3E004C02197FE010E9497
:10072000E30DCF36D107C9F70E947C0A0C94EE0D79
:100730000C940000CF92DF92EF92FF920F931F93E1
:10074000CF93DF936C017A018B01C0E0D0E0CE152E
:10075000DF0589F0D8016D918D01D601ED91FC91F5
:100760000190F081E02DC6010995892B11F47E01DD
:1007700002C02196ECCFC701DF91CF911F910F915D
:10078000FF90EF90DF90CF9008953FB7F89480915D
:100790003B0190913C01A0913D01B0913E0126B5F5
:1007A000A89B05C02F3F19F00196A11DB11D3FBFA9
:1007B000BA2FA92F982F8827820F911DA11DB11D37
:1007C000BC01CD0142E0660F771F881F991F4A9533
:1007D000D1F708952D9A08958FB18095807F669BFB
:1007E00088601C9B846008952F923F924F925F9285
:1007F0006F927F928F929F92AF92BF92CF92DF9231
:10080000EF92FF920F931F93CF93DF93CDB7DEB795
:1008100028970FB6F894DEBF0FBECDBF98878F83A1
:100820006A30A1F4DC0155962C91559751968D9123
:100830009C915297B8E02B9F800D911D1124EF8160
:10084000F885928B818B108A1786BEC06D3009F4B3
:10085000BBC0AF81B8855596BC91BC83EF81F8854C
:1008600054884388E188F28887859089803891058B
:10087000C4F0AF81B88555962C915597422F50E022
:100880001F968D919C915097B6E02B9F800D911DE6
:100890001124EF81F885908B8787268921117FC0ED
:1008A00093C0F0E4EF16F10424F79C015C8145E06D
:1008B000549F200D311D112412161306D4F6C52E97
:1008C000D12C9701A8E05A9F200D311D112412163A
:1008D00013067CF655E0659FF00111249F01245515
:1008E0003F4F3E832D83912C30E1732EED81FE81AD
:1008F0008490F5E09F1201C0812C870128E0622ED0
:1009000080FC02C0552D01C0542D511109C0541056
:1009100007C086946A940C0D1D1D6110F1CF33C081
:100920009C0151705B83322E622F681B5C816517BE
:1009300080F7B801A62FA01B4C81A41708F520381A
:100940003105D8F460347105C0F4FB0141E0E1FDEC
:1009500044E0E0FD440FE2FD4295E87F7E9ED00139
:100960001124A30DBA83A983AB5ABE4FBC90B42AFD
:100970005B81511101C0B426BC926F5F7F4FDACF0B
:100980002F5F3F4FD0CF93948C0D9D1DED81FE8145
:100990003196FE83ED83F6E09F12A8CF6ACF6AEF0F
:1009A00064039001659F300D112420583F4F281794
:1009B000390754F48F819885DC01ED91FC91019009
:1009C000F081E02D6AE0099581E090E028960FB66D
:1009D000F894DEBF0FBECDBFDF91CF911F910F9175
:1009E000FF90EF90DF90CF90BF90AF909F908F904F
:1009F0007F906F905F904F903F902F900895089553
:100A0000089580E090E008950C94AB0D0E94E90DEC
:100A100040914E0150914F0120914C0130914D0178
:100A200042175307B4F49091E8009570E1F3909168
:100A3000E80092FD19C08093F10080914E019091E1
:100A40004F0101968F739927892B19F48EEF8093AC
:100A5000E80080914E0190914F01019690934F01D3
:100A600080934E0181E0089580E00895615030F058
:100A70002091F100FC0120830196F8CF289884E6AC
:100A80008093530108958F929F92AF92BF92CF921D
:100A9000DF92EF92FF926B017C010E94C5034B0134
:100AA0005C01C114D104E104F104F1F00E94C5031A
:100AB000DC01CB0188199909AA09BB09883E93403A
:100AC000A105B10570F321E0C21AD108E108F108CF
:100AD00088EE880E83E0981EA11CB11CC114D104BD
:100AE000E104F10419F7DDCFFF90EF90DF90CF9094
:100AF000BF90AF909F908F900895BC0180E090E0F0
:100B00000C9443051F920F920FB60F9211242F934E
:100B10003F938F939F93AF93BF93809140019091A8
:100B20004101A0914201B091430130913A0123E08B
:100B3000230F2D3720F40196A11DB11D05C026E815
:100B4000230F0296A11DB11D20933A01809340010D
:100B500090934101A0934201B093430180913B01E6
:100B600090913C01A0913D01B0913E010196A11DE3
:100B7000B11D80933B0190933C01A0933D01B09344
:100B80003E01BF91AF919F918F913F912F910F9017
:100B90000FBE0F901F901895FC0180915401811198
:100BA00003C08FEF9FEF08959FB7F89482E0809382
:100BB000E9002091F20030E01216130614F421E04F
:100BC00030E02115310559F0289884E680935301CF
:100BD0008091F10080838091F200882319F09FBFFB
:100BE000C90108958BE68093E800F9CF2FB7F894F8
:100BF00083E08093E9009091E800892F807295FF4F
:100C000004C09091F20080E4891B2FBF0895809169
:100C1000710581110DC082E080936D0584E08093A1
:100C20006E051092700510926F0581E0809371053A
:100C30008DE695E00895CF93DF931F92CDB7DEB791
:100C40006983DC01ED91FC910280F381E02D41E0AC
:100C500050E0BE016F5F7F4F09950F90DF91CF91FC
:100C6000089583E08093E9008091F200882319F0D1
:100C70008AE38093E80008950E94F60590E00895C5
:100C8000CF93DF931F92CDB7DEB7FC0184859585A6
:100C900097FD05C02FEF3FEF358724870BC0CE01AE
:100CA00001960E94CC05019719F4898190E002C059
:100CB0008FEF9FEF0F90DF91CF9108950F931F93C8
:100CC000CF93DF931F92CDB7DEB78C01FC018485F3
:100CD000958597FF0EC0CE0101960E94CC05019725
:100CE00019F4298130E002C02FEF3FEFF80135877A
:100CF0002487F801848595850F90DF91CF911F910E
:100D00000F910895FC018485958597FD0BC09FB7D1
:100D1000F89482E08093E9008091F2009FBF90E018
:100D2000019608959FB7F89482E08093E90080913E
:100D3000F2009FBF90E008958F929F92AF92BF9272
:100D4000CF92DF92EF92FF920F931F93CF93DF9397
:100D50005C016B017A0180910B01882309F45BC06F
:100D600080915401882309F456C08091520180FF7C
:100D700005C08091E00082608093E000E70110E010
:100D80000AEF83E0882E9AE3992E2097D9F10E94EA
:100D9000F60581110AC0015009F43DC061E070E020
:100DA00080E090E00E944305F0CF282F30E0C2178A
:100DB000D3070CF48C2F4FB7F8948092E9009091F0
:100DC000E80095FF1DC0282F30E0C21BD30BF601B1
:100DD000982F915020F081918093F100FACFC20EAC
:100DE000D31E112319F09092E80009C08091E80009
:100DF00085FD06C09092E80011E0209709F010E010
:100E00004FBFC3CF1111C3CF5D9884E680936C05AB
:100E10001E141F0444F081E090E0F5019383828367
:100E200080E090E001C0C701DF91CF911F910F9149
:100E3000FF90EF90DF90CF90BF90AF909F908F90FA
:100E40000895DF92EF92FF920F931F93CF93DF935A
:100E5000D82E8A017B01E40EF51EEB01CE15DF05CD
:100E600071F0D7FE03C0FE01849101C088810E9409
:100E7000080521968111F2CF8FEF9FEF01C0C801C5
:100E8000DF91CF911F910F91FF90EF90DF90089528
:100E90000F931F93CF93DF931F92CDB7DEB782E0FE
:100EA000898342E450E069E676E080E80E94210709
:100EB0000E940706DC0112960D911C9113970115F3
:100EC000110569F0D801ED91FC910280F381E02DCC
:100ED000BE016F5F7F4FC801099597FF07C08981E9
:100EE0000F90DF91CF911F910F910895F801008528
:100EF0001185E5CF8F929F92AF92BF920F931F9370
:100F0000CF93DF93CDB7DEB7A1970FB6F894DEBFCE
:100F10000FBECDBF19A2423008F44AE08E010F5D2A
:100F20001F4F842E912CA12CB12CA50194010E945D
:100F3000C10DE62FB901CA0101501109EA3014F4BC
:100F4000E05D01C0E95CD801EC93232B242B252B19
:100F500061F70115110571F0F80101900020E9F722
:100F60003197AF01401B510BB80185E595E00E9418
:100F70009A0302C080E090E0A1960FB6F894DEBF1D
:100F80000FBECDBFDF91CF911F910F91BF90AF905A
:100F90009F908F900895E5E5F1E0A0E0B8E0008033
:100FA0000EBC8111012C1197A0FDFDCF0192B9F764
:100FB0000DB408951F920F920FB60F9211248F93C4
:100FC0009F938091E1009091E100937F9093E100E5
:100FD00083FF0FC01092E90091E09093EB00109214
:100FE000EC0092E39093ED001092540198E09093FE
:100FF000F00082FF20C093E09093E9009091F2000E
:10100000992319F09AE39093E80090916C05992345
:1010100039F090916C05915090936C05992389F16A
:1010200090915301992339F09091530191509093ED
:101030005301992341F184FF10C08091E2008E7E1C
:1010400081608093E2008091E1008F7E8093E100D7
:10105000809152018E7E806111C080FF16C0809108
:10106000E2008E7E80618093E2008091E1008E7EBE
:101070008093E100809152018E7E816080935201C5
:1010800004C05D9ACDCF289AD6CF9F918F910F90B3
:101090000FBE0F901F9018951F920F920FB60F92D0
:1010A0001124CF92DF92EF92FF920F931F932F9311
:1010B0003F934F935F936F937F938F939F93AF93E0
:1010C000BF93EF93FF93CF93DF93CDB7DEB76C97CA
:1010D000DEBFCDBF1092E9008091E80083FFEDC133
:1010E00068E0CE0145960E94360582EF8093E800C5
:1010F0008D8987FF05C09091E80090FFFCCF03C069
:101100009EEF9093E800982F907609F0C6C09E89D4
:101110002F89188D91110CC0803829F480915101CC
:101120008093F10002C01092F1001092F10048C1CA
:10113000422F50E0512B913051F4811141C1413087
:10114000510509F03DC1809151018D7F0BC0933055
:1011500061F4811135C14130510509F031C18091EF
:1011600051018260809351012BC1953041F48091EF
:10117000E80080FFFCCF20682093E30021C1963077
:1011800009F05FC0EB8CFC8C1092E90010924F01CB
:1011900010924E01123091F510924D0110924C01B7
:1011A0000E94480799E0BE016F5F7F4FDB01E92F86
:1011B0001D92EA95E9F799831A8391E09E8390EA5C
:1011C00098879AEF998720914E0130914F01275FC0
:1011D0003F4F3C832B838D831092E90010924F0187
:1011E00010924E01F0924D01E0924C0149E050E026
:1011F00080E00E9421070E944807E2C0F0924D0162
:10120000E0924C010E940706DC011296ED90FC90E2
:101210001397E114F10409F4C0C0D701ED91FC91DA
:101220000480F581E02DBE016B5E7F4FC7010995FB
:10123000009719F00CF0C4C0C7C0F701E084F18436
:10124000E8CF973009F4C0C0983021F481E0809352
:10125000F100B6C0993009F0B3C0837009F0B4C092
:10126000EDE0F1E081E021E036E39081992361F047
:101270008093E9002093EB0091919093EC003093E0
:10128000ED008F5F873089F78EE78093EA00109238
:10129000EA008F898093540193C08B8D9C8D1092AE
:1012A000E90010924F0110924E0190934D018093EE
:1012B0004C01898D811156C08E899D89913A59F4CE
:1012C000813209F081C047E050E064E071E080E0E5
:1012D0000E94210775C0913209F076C0833289F4EB
:1012E000888D90E0982F88272F89822BA0E0B0E08E
:1012F0008093000190930101A0930201B093030138
:101300005FC0803269F48091E80082FFFCCF67E023
:1013100084E091E00E9436058BEF8093E80006C0E0
:10132000823209F04DC08F8980930B01809150016A
:10133000882319F0EEEFFAE002C0E0E0F8E08091D7
:10134000040190910501A0910601B0910701803B35
:101350009440A105B10509F07BC080910B0180FF8D
:1013600093C076C00E940706DC0112960D911C9175
:1013700013970115110541F1D801ED91FC910190F0
:10138000F081E02DBE016B5E7F4FC8010995811190
:1013900017C0F80100851185ECCF113009F44EC05B
:1013A000133091F48F89882309F445C0823081F489
:1013B00040E860E18DEC96E00E943D0D882321F02D
:1013C0008EEF8093E80079C081E28093EB0075C0D6
:1013D000813029F440E86BE081EC96E0EDCF83307A
:1013E00099F70E940706DC011296ED90FC90139786
:1013F0008E010F5F1F4F6801E114F10479F0D701EE
:10140000ED91FC910680F781E02DB801C7010995A7
:10141000080F111DF701E084F184EECFD8011C9272
:10142000F60101900020E9F73197BF016C197D09A1
:1014300040E0C601C1CF6BEA76E002C06FEA76E019
:101440006115710509F2FB01449150E080E840CF3D
:101450000FB6F894A8958091600088618093600031
:10146000109260000FBEA895EE3F2AE0F20739F017
:101470008091FE0A9091FF0A91838083A1CF109200
:10148000FF0A1092FE0A9CCFEE3F8AE0F80731F087
:10149000808191819093FF0A8093FE0A87E797E706
:1014A000918380839BE088E10FB6F894A8958093A0
:1014B00060000FBE9093600083CF6C960FB6F894D7
:1014C000DEBF0FBECDBFDF91CF91FF91EF91BF91F6
:1014D000AF919F918F917F916F915F914F913F91CC
:1014E0002F911F910F91FF90EF90DF90CF900F9071
:1014F0000FBE0F901F901895789484B5826084BDBC
:1015000084B5816084BD85B5826085BD85B5816007
:1015100085BD80916E00816080936E001092810085
:101520008091810082608093810080918100816040
:101530008093810080918000816080938000809101
:1015400091008260809391008091910081608093EE
:101550009100809190008160809390008091C10003
:1015600084608093C1008091C10082608093C1003B
:101570008091C10081608093C1008091C30081602F
:101580008093C3008091C00082608093C0008091EE
:10159000C20081608093C20080917A008460809351
:1015A0007A0080917A00826080937A0080917A003C
:1015B000816080937A0080917A00806880937A00BD
:1015C0001092540110925101109252018091D70053
:1015D00081608093D70080EA8093D80089B58061CC
:1015E00089BD89B5826089BD09B400FEFDCF61E087
:1015F00070E080E090E00E9443058091D8008F7CED
:1016000080618093D8008091E000807F8093E0002B
:101610008091E1008E7E8093E1008DE08093E20076
:10162000559A209AEEEFFFE7859194918B3F9C4D60
:1016300019F481E08093500181EC80937C0085B1A6
:10164000806F85B984B1877E84B984B1876E84B98F
:101650005E9A5F988AB1806D8AB9769A6E9881B3E6
:10166000806F81BB899880B38D7080BB80E58CBD15
:1016700081E08DBD85E090E00E947D055F9A85E068
:1016800090E00E947D055E985C98ECE5F6E08DE0C8
:101690008E0F94919EBD00000DB407FEFDCF3196D4
:1016A0008E13F7CF5C9A81E8809364008091650087
:1016B00081608093650080E00E94CB070E94EC036C
:1016C00087FF24C05C9885EA8EBD00000DB407FE3C
:1016D000FDCF5C9A2E982F982D988091640080629F
:1016E0008093640081E083BF889513BEFCCF2D9862
:1016F0000E94EC038478843871F00E94EC038471BA
:10170000843131F188EC90E00E947D050E94EC0369
:1017100082FDEDCF3AC00E94EA0388EC90E00E947F
:101720007D052F9882E090E00E94AB0D8F3F29F05D
:101730006FEF82E090E00E94B30D84EF91E00E9491
:101740007D052F9A0E94EC0384788438D9F3D5CF95
:101750000E94EA0388EC90E00E947D052E9882E0CA
:1017600090E00E94AB0D882329F060E082E090E0D9
:101770000E94B30D84EF91E00E947D052E9A0E9495
:10178000EC0384718431D9F3BDCF0E94EA0382E077
:1017900090E00E94AB0D882331F03E9A3F9A81E0A1
:1017A00080933F0104C010923F013E983F9881E032
:1017B00090E00E94040582FB992490F881FF8CC080
:1017C00091102E98C0EFDFEF08E010E00E94EC03CC
:1017D00086FF04C02E9A2F9A2D9A7EC0992029F058
:1017E000C430D10511F42E9A2F9881E00E94CB07C6
:1017F0009E01D7FF04C0222733272C1B3D0B2770E7
:101800003327CE01D7FD079653E0959587955A95D6
:10181000E1F7D7FF05C00197A801421B530B9A01BE
:101820007C01F694FE2CEE24F794E79460E070E0DF
:101830003801621A730AF701E058FF4F5F018F3FCA
:10184000FFEF9F0744F40196685A7F4F7501603B94
:10185000710589F721C0D701A751BE4F40E050E084
:101860008F3FEFEF9E0709F4A8C0FA01E60FF71FBC
:10187000E455FA4FE4916D01CA18DB08CE0CDF1C69
:10188000F0E02F01022E01C0440C0A94EAF7F601A1
:1018900080804828408291C080E00E94CB078FE082
:1018A00090E00E947D052196C931D10509F08ECFC7
:1018B000992011F02F9A2D9880E991E00E947D05E2
:1018C0000E94EA03E0915905F0915A050190F081D8
:1018D000E02D89E595E0099582E390E00E947D0581
:1018E0000E94EC038111F8CFAA24A394C5E5D1E0AE
:1018F00000E010E0BB24B39484E0E82EF12C99E0E2
:10190000C92ED12C8FB7F8944091400150914101DC
:1019100060914201709143018FBF80916105942FC6
:10192000981B80916205882329F09093630510929B
:1019300062053CC020916005921740F49F5F9217AA
:1019400008F034C0A3BE889513BE30C0B0926205C3
:101950004093610520915C0530915D052F5F3F4FFD
:1019600030935D0520935C05FE0181118FEF00240B
:1019700081938193819381930394D1F7F0926505CC
:10198000E0926405D0926705C0926605809144019B
:10199000811102C0B09244014AE06BE770E080E040
:1019A00090E00E947A0780E00E94CB0701151105A4
:1019B00009F4A8CF0E940000A5CF2115310581F0C0
:1019C000FA01E60FF71FE455FA4FE491F0E0062C18
:1019D00002C0F595E7950A94E2F7DC90ED29EC93C7
:1019E0004F5F5F4F11964835510509F039CF2BCF26
:1019F0000F931F93CF93DF938C0181E090E00E94BF
:101A0000040580FF32C08AE090E00E9404059FEF49
:101A1000980F9E3F50F522E330E0D80150963C935A
:101A20002E931F9728E330E052963C932E935197C4
:101A3000CBE0D0E0D801ED91FC910190F081E02D58
:101A4000682FC8010995CE010E9404052196C13175
:101A5000D10581F780E00E94CB0788EE93E0DF910B
:101A6000CF911F910F910C947D05DF91CF911F9124
:101A70000F91089504970C94F80CCF92DF92EF9297
:101A8000FF920F931F93CF93DF931F92CDB7DEB7D3
:101A9000182F062FE42E862F880F8E5F99830E94C1
:101AA000080583E00E940805F12EC12E9981D92EE8
:101AB0008C2D8F19801798F4F601E7FE02C08491EF
:101AC00001C080810E940805182F80E00E9408054F
:101AD0008123FFEFCF1ADF0A8111EACF01C081E035
:101AE0000F90DF91CF911F910F91FF90EF90DF90BA
:101AF000CF900895E9E7F5E01382128288EE93E033
:101B0000A0E0B0E084839583A683B78387E191E06A
:101B1000918380838FEF9FEF95878487E5E5F5E0DC
:101B2000138212821186128680E1838710861782C3
:101B3000158689E291E09183808387E391E0958324
:101B40008483108A1786128A118A81E0838B148A13
:101B5000858B168A0895F999FECF92BD81BDF89ABA
:101B6000992780B50895262FF999FECF1FBA92BD07
:101B700081BD20BD0FB6F894FA9AF99A0FBE01966E
:101B80000895A1E21A2EAA1BBB1BFD010DC0AA1FBE
:101B9000BB1FEE1FFF1FA217B307E407F50720F0D6
:101BA000A21BB30BE40BF50B661F771F881F991F51
:101BB0001A9469F760957095809590959B01AC019A
:101BC000BD01CF010895EE0FFF1F0590F491E02DA8
:101BD000099481E090E0F8940C94EE0DF894FFCF16
:101BE000FFFFFFFF00E100000000000000C1808156
:101BF000000000000000001B069C063C0631068227
:101C00000640065E0600000000F4039A030105008A
:0A1C100005F80CFCFF00003A0D007F
:2070000055C000006EC000006CC000006AC0000068C0000066C0000064C0000062C0000043
:2070200060C000005EC00000F2C400005AC0000058C0000056C0000054C0000052C00000EE
:2070400050C0000078C000004CC000004AC0000048C0000046C0000044C0000042C00000BE
:2070600040C000003EC000003CC000003AC0000038C0000036C0000034C0000032C0000048
:2070800030C000002EC000002CC000002AC0000028C0000026C0000024C0000022C00000A8
:2070A00020C000001EC000001CC0000011241FBECFEFDAE0DEBFCDBF11E0A0E0B1E0E2E3BC
:2070C000FFE702C005900D92A83AB107D9F711E0A8EAB1E001C01D92AE3BB107E1F78FD30B
:2070E00026C78ECFF89410926F0010928100109285001092840081E085BF15BE47985D9AEB
:20710000289A0C94000008952091B2013091B3012F5F3F4F3093B3012093B201932F37FFA6
:2071200003C08EEF831B982F990F921710F447980895479A08951F920F920FB60F9211246E
:207140002F938F939F93EF93FF9310928500109284008091A8019091A901009741F00197D3
:207160009093A9018093A801892B09F45D9A8091AA019091AB01009741F001979093AB0126
:207180008093AA01892B09F4289AE0E0F0E0859194918F5F9F4F49F08091AC019091AD0151
:2071A00001969093AD018093AC01FF91EF919F918F912F910F900FBE0F901F90189584E0BC
:2071C0008093E9000DC08091E8008B778093E80003C08EB3882351F08091E80082FFF9CFBE
:2071E0008091E80085FFEFCF8091F1000895982F83E08093E9008091E80085FD0DC0809136
:20720000E8008E778093E80003C08EB3882369F08091E80080FFF9CF9093F1005D9884E6CB
:2072200090E09093A9018093A80108954F925F926F927F928F929F92AF92BF92CF92DF921E
:20724000EF92FF920F931F93CF93DF9384E08093E9008091E80082FF57C2289884E690E067
:207260009093AB018093AA01AADF182F853481F48CE49DE19093AD018093AC0107B600FC4B
:20728000FDCFF999FECF81E180935700E89503C0843519F494DF8DE00DC28C34E1F38035F9
:2072A000D1F3843721F484E4A2DF80E003C2813611F489E5FFC18134B1F481DF182F7FDFE3
:2072C00090E0880F991FAA2797FDA095BA2F312F330F20E0442737FD4095542F822B932B68
:2072E000A42BB52BB8C1803711F483E5E3C1833549F4C0E0D1E089917ADF21E0C730D20714
:20730000D1F7D9C1863521F481E371DF80E3D2C1833731F487E86BDF85E969DF8EE1CAC149
:207320008536B9F4E0E0F0E093E085E090935700E89507B600FCFDCF80935700E89507B65D
:2073400000FCFDCFE058FF4FA0E7E030FA0771F7A2CF823739F4E1E0F0E089E08093570024
:207360008491A8C1863439F4E0E0F0E089E08093570084919FC18E3439F4E3E0F0E089E0E5
:2073800080935700849196C1813539F4E2E0F0E089E08093570084918DC1823631F489E521
:2073A00026DF80E024DF80E885C1823419F0873609F0E5C01092AD011092AC0100DF082FE8
:2073C000FEDEF82EFCDE682E8554823008F071C1902F80E0CF2DD0E0C82BD92B10926F00B3
:2073E000173609F04BC081E180935700E895DD24CC24C3943FC0E090AE01F090AF010091CC
:20740000B0011091B101B6E46B16D9F4ED2DF0E0EE29FF29E4918E2FEADEDD2081F082E08D
:2074200090E0A0E0B0E0E80EF91E0A1F1B1FE092AE01F092AF010093B0011093B101DC2470
:2074400018C0D801C701B695A7959795879559D5CEDE82E090E0A0E0B0E0E80EF91E0A1FF2
:207460001B1FE092AE01F092AF010093B0011093B1012197209709F0BECF7DC08090AE01F5
:207480009090AF01A090B001B090B10196E4691609F05DC083E0F40180935700E89507B63E
:2074A00000FCFDCF54C0F6E46F1661F5772031F1E090AE01F090AF010091B0011091B1019E
:2074C0007EDED82ECC24852D90E08C299D29F7010C0140925700E895112482E090E0A0E08B
:2074E000B0E0E80EF91E0A1F1B1FE092AE01F092AF010093B0011093B10102C060DE582E1A
:20750000742423C0E090AE01F090AF010091B0011091B10116950795F794E79450DE682FFA
:20752000C701F7D48091AE019091AF01A091B001B091B1010296A11DB11D8093AE01909349
:20754000AF01A093B001B093B101219704C05524772444244394209709F0A5CF96E46916B6
:2075600041F485E0F40180935700E89507B600FCFDCF8DE03CDE82E080936F009CC0833492
:2075800071F40091AE011091AF0119DE90E021E0F8010C0120935700E89511247CCE8336C8
:2075A00019F5E090AE01F090AF010091B0011091B10105DEF701E16090E021E00C0120938C
:2075C0005700E895112482E090E0A0E0B0E0E80EF91E0A1F1B1FE092AE01F092AF0100936A
:2075E000B0011093B10157CE8D3661F4E091AE01F091AF0185E080935700E89507B600FCF2
:20760000FDCF49CE823551F4E091AE01F091AF0105911491812FEBDD802F4CC0843421F5FE
:20762000E090AE01F090AF010091B0011091B10116950795F794E794C2DD682FC70169D4DE
:207640008091AE019091AF01A091B001B091B1010296A11DB11D8093AE019093AF01A093D8
:20766000B001B093B10117CE843609F5E090AE01F090AF010091B0011091B101D801C70142
:20768000B695A795979587953CD4B1DD82E090E0A0E0B0E0E80EF91E0A1F1B1FE092AE010A
:2076A000F092AF010093B0011093B10104C08B3111F08FE39CDD83E08093E9009091E8002B
:2076C0008091E8008E778093E80095FF04C010C08EB38823C9F08091E80080FFF9CF809193
:2076E000E8008E778093E80003C08EB3882361F08091E80080FFF9CF84E08093E9008091F1
:20770000E8008B778093E800DF91CF911F910F91FF90EF90DF90CF90BF90AF909F908F90AC
:207720007F906F905F904F9008959091B601892F8F77813249F58091B7018032A1F081328A
:2077400019F5913A09F58091E800877F8093E8008DE091E067E070E00BD28091E8008B770B
:207760008093E8000895913279F48091E800877F8093E8008DE091E067E070E05DD2809192
:20778000E8008E778093E800089582E061EC42E0B5D083E061E842E1B1D084E060E842E1EF
:2077A000ADC084B7877F84BF88E10FB6F89480936000109260000FBE20E880E090E00FB63F
:2077C000F89420936100809361000FBE81E085BF92E095BF3F9A209A559AE1E6F0E02083A1
:2077E000108247985D9A289A109289008AEF8093880090936F0083E080938100F0C0409116
:20780000000850910108109201081092000894B714BE88E10FB6F8948093600010926000D5
:207820000FBE292F30E0F901E270F07091FD18C090FF05C0859194918F5F9F4F81F423FFFF
:207840000FC08091090190910A014817590741F0E0E0F0E0859194918F5F9F4F09F042DC64
:20786000A0DF78941092AD011092AC010CC0DEDC36D38091AC019091AD0181549F4110F00D
:207880001092140141DC80911401882381F78091E00081608093E00025DC80E090E0089598
:2078A000FA01923049F0933061F09130F9F485E191E022E130E01EC087E291E02EE330E04D
:2078C00019C0882329F485E691E024E030E012C0813029F489E691E022E230E00BC0823006
:2078E00029F48DE891E028E130E004C080E090E020E030E091838083C90108958093E9004E
:207900008091EB0081608093EB001092ED006093EC004093ED008091EE00881F8827881F62
:2079200008958091B60188238CF403C08EB38823B1F08091E80082FFF9CF8091E8008B772A
:207940008093E80008958EB3882349F08091E80080FFF9CF8091E8008E778093E800089594
:20796000EF92FF920F931F9345D04CD008ED10E0F80180818F77808380818068808380819B
:207980008F7D808319BC1EBA1092B40180EEE82EF12CF70180818B7F8083F8018081816052
:2079A000808380E060E042E0A9DFE1EEF0E080818E7F8083E2EEF0E0808181608083808144
:2079C00088608083F70180818E7F8083F8018081806180831F910F91FF90EF900895E7ED06
:2079E000F0E08081816080838AE482BF81E08093B501B6CFE8EDF0E080818E7F808310921C
:207A0000E20008951092DA001092E10008951F920F920FB60F9211242F933F934F935F93F6
:207A20006F937F938F939F93AF93BF93EF93FF938091DA0080FF1BC08091D80080FF17C0B2
:207A40008091DA008E7F8093DA008091D90080FF0BC080E189BD82E189BD09B400FEFDCF36
:207A600081E08EBB3BD203C019BC1EBA37D28091E10080FF17C08091E20080FF13C0809138
:207A8000E2008E7F8093E2008091E20080618093E2008091D80080628093D80019BC85E049
:207AA0008EBB1CD28091E10084FF2CC08091E20084FF28C080E189BD82E189BD09B400FEC5
:207AC000FDCF8091D8008F7D8093D8008091E1008F7E8093E1008091E2008F7E8093E20012
:207AE0008091E20081608093E2008091B401882331F48091E30087FD02C081E001C084E067
:207B00008EBBECD18091E10083FF21C08091E20083FF1DC08091E100877F8093E10082E06A
:207B20008EBB1092B4018091E1008E7F8093E1008091E2008E7F8093E2008091E2008061E9
:207B40008093E20080E060E042E0D8DEC7D1FF91EF91BF91AF919F918F917F916F915F9130
:207B60004F913F912F910F900FBE0F901F9018959C014091BC015091BD014617570718F49D
:207B8000F90190E044C06115710511F0AB01F8CF8091E8008E778093E80040E050E0F0CF0F
:207BA0008EB3882309F444C0853009F443C08091E80083FF02C081E008958091E80082FD70
:207BC00031C08091E80080FF22C08091F3009091F200782F60E0292F30E0262B372B07C07A
:207BE00081918093F100415050402F5F3F4F4115510519F02830310598F390E02830310566
:207C000009F491E08091E8008E778093E8004115510531F6992321F605C08EB3882341F075
:207C2000853041F08091E80082FFF7CF80E0089582E0089583E008959C016115710529F47C
:207C40008091E8008B778093E800F90126C08EB3882391F1853091F18091E80083FF02C06C
:207C600081E008958091E80082FFF1CF06C08091F10081936150704059F02091F300809191
:207C8000F200322F20E090E0822B932B892B79F78091E8008B778093E80061157105B9F601
:207CA00005C08EB3882341F0853041F08091E80080FFF7CF80E0089582E0089583E00895C2
:207CC0000F931F93DF93CF9300D0CDB7DEB7E6EBF1E08091F100819381E0EE3BF807C9F792
:207CE00024DD8091E80083FFE4C08091B6019091B701953009F46DC0963040F4913081F1A7
:207D0000913070F0933009F0D4C02AC0983009F4A3C0993009F4B2C0963009F0CAC07CC023
:207D2000803809F4C6C0823809F0C3C08091BA0187708093E9008091EB001092E9002091DB
:207D4000E800277F2093E80090E025E0969587952A95E1F781708093F1001092F10087C0D8
:207D6000882319F0823009F0A4C08F71823009F0A0C08091B801882331F52091BA01277097
:207D800009F497C02093E9008091EB0080FF1BC0933021F48091EB00806213C08091EB0018
:207DA00080618093EB0081E090E002C0880F991F2A95E2F78093EA001092EA008091EB00E5
:207DC00088608093EB001092E9008091E800877F51C0882309F06DC01091B8011F770FB79B
:207DE000F8948091E800877F8093E8009ADD8091E80080FFFCCF8091E3008078812B809398
:207E0000E30080688093E300112311F482E001C083E08EBB0FBF4DC08058823008F049C033
:207E20008091B8019091B9016091BA01AE014F5F5F4F36DDBC01009709F43BC08091E8008E
:207E4000877F8093E80089819A8192DE8091E8008B778093E8002DC0803859F58091E800AA
:207E6000877F8093E8008091B4018093F1008091E8008E778093E80054DD1BC08823C9F4CA
:207E80009091B8019230A8F48091E800877F8093E8009093B40145DD8091B401882331F420
:207EA0008091E30087FD02C081E001C084E08EBB6CDC8091E80083FF0AC08091EB0080624E
:207EC0008093EB008091E800877F8093E8000F900F90CF91DF911F910F91089508951F9360
:207EE0008EB3882361F01091E9001092E9008091E80083FF01C0E4DE17701093E9001F916F
:207F00000895F999FECF92BD81BDF89A992780B50895262FF999FECF1FBA92BD81BD20BDBD
:207F20000FB6F894FA9AF99A0FBE01960895F894FFCF4341544552494E4100777700080031
:207F40000000000000080112011001020000084123360001000201000109023E00020100FF
:207F600080320904000001020201000524001001042402040524060001070582030800FF0C
:207F800009040100020A000000070504021000010705830210000104030904220341007216
:207FA000006400750069006E006F0020004C0065006F006E006100720064006F0000001836
:1A7FC00003410072006400750069006E006F0020004C004C004300000000D7
:00000001FF
