:100000000C9458060C9480060C9480060C94800680
:100010000C9480060C9480060C9480060C94800648
:100020000C9480060C9480060C9445250C94B42501
:100030000C9480060C9480060C9480060C94800628
:100040000C9480060C9480060C9480060C94800618
:100050000C9480060C9480060C9480060C94E62781
:100060000C9480060C9480060C9480060C948006F8
:100070000C9480060C9480060C9480060C948006E8
:100080000C9430280C9480060C9480060C94800606
:100090000C9480060C9480060C9480060C948006C8
:1000A0000C9480060C9480060C9480064B00320061
:1000B00032003200008003081F111F001F001D15B1
:1000C0001711151F07041F17151D1F151D01011FEF
:1000D0001F151F17151FF4013200FA003200AF0080
:1000E00032004B00320000800208020708080207B5
:1000F00007060602020201010101010100000101DF
:1001000001000101000101010000010101010101E3
:1001100000000001010101000101010100000101D5
:1001200001000101010001000101000101010000C5
:10013000010101010101DC051900FA001900DC05CB
:100140001900FA001900DC051900FA001900DC0595
:100150001900FA001900DC051900FA001900DC0585
:100160001900FA001900DC051900FA001900DC0575
:100170001900FA0019000080070824160D3F0D161B
:10018000240708241609310916240808F8FEDAFAAB
:10019000FA427E0008080205070505070502070860
:1001A000082A1C7F1C2A0805080C0A0F0A0C0308E1
:1001B000050205030802070232006400FA00640029
:1001C000960064005E016400FA006400C2016400ED
:1001D0005E01640026026400C20164008A026400B9
:1001E00026026400EE0264008A0264005203640086
:1001F000EE026400B60364000080DC05AF00E20498
:100200009600E8037D00EE026400F4014B00FA0062
:10021000320064001900008032000A0019000A0050
:100220004B000A0016000A00C8000A0064000A0019
:1002300042000A0021000A00AF000A00C8000A00BC
:1002400048000A0032000A0019000A004B000A00A8
:1002500016000A00C8000A0064000A0042000A00F2
:1002600021000A00AF000A00C8000A0048000A0086
:10027000008096000A007D000A00AF000A007A00A4
:100280000A002C010A00C8000A00A6000A00850026
:100290000A0013010A002C010A00AC000A00320017
:1002A0000A0019000A004B000A0016000A00C800E4
:1002B0000A0064000A0042000A0021000A00AF00A0
:1002C0000A00C8000A0048000A0032000A001900AB
:1002D0000A004B000A0016000A00C8000A00640069
:1002E0000A0042000A0021000A00AF000A00C8000C
:1002F0000A0048000A00008032000A0019000A00C3
:100300002D000A0016000A0046000A0064000A00D8
:1003100042000A0032000A004B000A0096000A0060
:1003200078000A0050000A00AF000A00C8000A0066
:1003300064000A007A000A00FA000A007D000A0040
:10034000A6000A00E9000A00AF000A002C010A001A
:10035000AC000A00C9000A002C010A00C8000A000B
:10036000B4000A0040010A00008000000000003EC6
:100370005B4F5B3E3E6B4F6B3E1C3E7C3E1C183C15
:100380007E3C181C577D571C1C5E7F5E1C00183C71
:100390001800FFE7C3E7FF0018241800FFE7DBE7BA
:1003A000FF30483A060E2629792926407F050507A1
:1003B000407F05253F5A3CE73C5A7F3E1C1C0808FD
:1003C0001C1C3E7F14227F22145F5F005F5F0609C2
:1003D0007F017F006689956A606060606094A2FF1B
:1003E000A29408047E040810207E201008082A1C0D
:1003F00008081C2A08081E101010100C1E0C1E0CD9
:1004000030383E3830060E3E0E0600000000000078
:10041000005F00000007000700147F147F14242AE7
:100420007F2A1223130864623649562050000807B9
:100430000300001C2241000041221C002A1C7F1CDA
:100440002A08083E080800807030000808080808DC
:10045000000060600020100804023E5149453E0043
:10046000427F400072494949462141494D331814A1
:10047000127F1027454545393C4A494931412111F0
:1004800009073649494936464949291E00001400E2
:100490000000403400000008142241141414141405
:1004A000004122140802015909063E415D594E7C63
:1004B0001211127C7F494949363E414141227F4118
:1004C00041413E7F494949417F090909013E414176
:1004D00051737F0808087F00417F41002040413F61
:1004E000017F081422417F404040407F021C027F70
:1004F0007F0408107F3E4141413E7F090909063EC5
:100500004151215E7F091929462649494932030193
:100510007F01033F4040403F1F2040201F3F4038A5
:10052000403F631408146303047804036159494D80
:1005300043007F4141410204081020004141417FB6
:10054000040201020440404040400003070800202C
:10055000545478407F28444438384444442838442C
:1005600044287F385454541800087E090218A4A463
:100570009C787F0804047800447D40002040403D82
:10058000007F1028440000417F40007C04780478FC
:100590007C080404783844444438FC18242418188F
:1005A000242418FC7C0804040848545454240404EB
:1005B0003F44243C4040207C1C2040201C3C4030D8
:1005C000403C44281028444C9090907C4464544C07
:1005D0004400083641000000770000004136080062
:1005E00002010204023C2623263C1EA1A161123A0C
:1005F0004040207A38545455592155557941215459
:10060000547841215554784020545579400C1E525D
:100610007212395555555939545454593955545401
:10062000580000457C410002457D420001457C4068
:10063000F0292429F0F0282528F07C545545002085
:1006400054547C547C0A097F493249494932324822
:10065000484832324A4848303A4141217A3A424089
:100660002078009DA0A07D39444444393D4040405D
:100670003D3C24FF2424487E4943662B2FFC2F2B2E
:10068000FF0929F620C0887E0903205454794100CF
:1006900000447D413048484A32384040227A007A4E
:1006A0000A0A727D0D19317D2629292F282629292C
:1006B000292630484D40203808080808080808084E
:1006C000382F10C8ACBA2F102834FA00007B000075
:1006D00008142A142222142A14089500220095AA2C
:1006E000005500AAAA55AA55AA000000FF00101044
:1006F00010FF00141414FF001010FF00FF1010F082
:1007000010F0141414FC001414F700FF0000FF0094
:10071000FF1414F404FC141417101F10101F101FE2
:100720001414141F00101010F0000000001F10100F
:1007300010101F10101010F010000000FF1010100B
:10074000101010101010FF10000000FF140000FF28
:1007500000FF00001F10170000FC04F41414171011
:10076000171414F404F40000FF00F7141414141404
:100770001414F700F7141414171410101F101F147A
:100780001414F4141010F010F000001F101F0000DB
:10079000001F14000000FC140000F010F01010FF07
:1007A00010FF141414FF141010101F00000000F0AC
:1007B00010FFFFFFFFFFF0F0F0F0F0FFFFFF000081
:1007C000000000FFFF0F0F0F0F0F38444438447C28
:1007D0002A2A3E147E02020606027E027E0263552B
:1007E0004941633844443C04407E201E2006027E7A
:1007F000020299A5E7A5991C2A492A1C4C7201728C
:100800004C304A4D4D303048784830BC625A463DF5
:100810003E494949007E0101017E2A2A2A2A2A44AA
:10082000445F444440514A444040444A51400000DF
:10083000FF0103E080FF000008086B6B08361236EA
:100840002436060F090F06000018180000001010CB
:10085000003040FF0101001F01011E00191D171289
:10086000003C3C3C3C0000000000F0F89C8E87837C
:10087000878E9CF8F00000FEFF0303030303070EBE
:10088000FCF80000FEFF0303030303070EFCF8005F
:1008900000FFFF00000000000000FFFF0000FEFF5F
:1008A0008383838383C7EE7C380000F8FC0E070344
:1008B0000303070EFCF800003F7FE0C08080C0E02B
:1008C0007F3FFFFF01010101010101FFFF0000FF68
:1008D000FF0C0C0C0C1C3E77E3C100007FFFC0C076
:1008E000C0C0C0E0703F1F00001F3F70E0C0C0C02C
:1008F000E0703F1F00007FFFC1C1C1C1C1E3773E6F
:100900001C00001F3F70E0C0C0C0E0703F1F00002F
:1009100000000001FFFF01000000D5F08D14A1C808
:1009200081CFD9F1AF2000424F4E555320582000BF
:10093000434F4D504C455445440041545441434B62
:1009400020574156452000202E2E2E20564552532A
:10095000494F4E20312E32202E2E2E20425920413A
:100960004C4558204D43434845534E4559202E2E63
:100970002E2057415348494E4755502E495443481D
:100980002E494F202E2E2E20004849474820534301
:100990004F52453A2000534F554E443A4F46460079
:1009A000534F554E443A4F4E005354415254007CDD
:1009B00018FFFFFFFF1F1F1FFFFFFFFE00FFFFFFCE
:1009C000FF9F9F9F9F9F1F1F0000FFFFFFFF9F9F95
:1009D0009F9F9F1F1F00FFFFFFFF9F9F9F9F9F1FC6
:1009E0001F00FFFFFFFF1F1F1FFFFFFFFE0000FF95
:1009F000FFFFFF1F1F1FFFFFFFFE0000FFFFFFFFA6
:100A0000000000FFFFFFFF00001F1F1FFFFFFFFF91
:100A10001F1F1F1F00FFFFFFFF1F1F1FFFFFFFFE06
:100A20000000FEFFFFFF1F1F1FFFFFFFFEFFFFFF76
:100A3000FFC0C0C0FFFFFFFF00FFFFFFFFCFCFCF12
:100A4000CFCFC0C00000FFFFFFFF0F0F0F0F0F0041
:100A50000000FFFFFFFFCFCFCFCFCFC0C000FFFF11
:100A6000FFFF000000FFFFFFFF0000FFFFFFFFC0D0
:100A7000C0C0FFFFFFFF0000FFFFFFFFC0C0C0FFBF
:100A8000FFFFFF0000C0C0C0FFFFFFFFC0C0C0C02D
:100A900000FFFFFFFF000000FFFFFFFF0000FFFF60
:100AA000FFFFC0C0C0FFFFFFFF07070707070707DB
:100AB00007070703000707070707070707070707D1
:100AC00000000707070700000000000000000707FC
:100AD00007070707070707070700070707070000BB
:100AE00000070707070000070707070707070707AB
:100AF00007030000030707070707070707070700A3
:100B00000007070707070707070707070007070783
:100B1000070000000707070700000307070707078C
:100B20000707070703FF006400008047414D452089
:100B30004F56455200080B00020202010009040052
:100B4000000102020000052400100105240101013A
:100B50000424020605240600010705810310004055
:100B600009040100020A000000070502024000001B
:100B7000070583024000000403090412010002EF8C
:100B800002014041233680000101020301417264E9
:100B900075696E6F204C4C430041726475696E6FCD
:100BA000204C656F6E6172646F00B9B9B9B999F77D
:100BB0009BB99BB9B9993715110DEBEFF3F7B9391B
:100BC0001793F3F7B9B9B919F7B9B9B9391793F355
:100BD000F7B9B9B9B91915110DC9EBEFF3F7B9B9EF
:100BE000B93917F5B9B919F7B9B9B9B93B1915F147
:100BF000F5B9B9B9B919F79B191591F135F3F7B9E9
:100C0000B9B9795B5B5B5B5B9B395999B7B7B73710
:100C100015F31775955515118DEDF1F57999979592
:100C20009575B7D999395735B3D5D799171533F184
:100C3000F537F5793917339313CF0FCB0DA98B2BDC
:100C400009070541E1C5A7E9CDEFB3F59777F91B92
:100C5000F7B99BB9795B5B5B5B5B5B5B5BB9B9B914
:100C600039595A5A5A5A5A5A5A5AB8B8B8B81874B6
:100C70009676B6785A9A1A369614304E6EF0947468
:100C800054F4781A969432106ED050EEF2D4F65A8C
:100C90005A5A5A5A1A5858B6789ABA7A5A5A5A5ABE
:100CA0005A1A16F4F85A5A5A5A5A3C003E00092960
:100CB00011241FBECFEFDAE0DEBFCDBF11E0A0E010
:100CC000B1E0E2E2FCE602C005900D92A036B10769
:100CD000D9F726E0A0E6B1E001C01D92A731B20726
:100CE000E1F716E0C8E5D6E004C02197FE010E94B6
:100CF0001234C735D107C9F70E9455290C940F3615
:100D00000C94000080916E0108959091060698233E
:100D100029F490910506982381E009F480E0089574
:100D2000FC0164E070E00E94FE33AC01552788238B
:100D300011F0E41BF50BF7FD3396F595E795F59566
:100D4000E795E655F44FE4918E2F8F7130E020E067
:100D5000F0E02417350789F0B9016B5F7F4FDF01A1
:100D600002C0B595A7956A95E2F7A0FF04C08F5F12
:100D70002F5F3F4FEECF8150FBCF8D5D0895AC01CB
:100D80004770552721E001C0220F4A95EAF797FDE9
:100D90000796FC0183E0F595E7958A95E1F7F695CE
:100DA000FE2FEE27F795E795EC54FE4F93E4915014
:100DB00031F08191DF011197822B8C93F8CF089548
:100DC0006F927F928F929F92AF92BF92CF92DF925B
:100DD000EF92FF920F931F93CF93DF9330E0F901CF
:100DE000E80FF91FF7FD9CC0803891050CF098C002
:100DF000FB01E00FF11DF7FD93C0603471050CF0AD
:100E00008FC0DB0177FF04C0AA27BB27A61BB70B47
:100E1000A770BB27FB0177FD3796C3E0F595E795F3
:100E2000CA95E1F777FF07C0319768E070E0EB0102
:100E3000CA1BDB0BDE01A02EA694A694A694B12CAF
:100E4000077019F0DFEFAD1ABD0ABF018A01EF018B
:100E5000D695DC2FCC27D795C795C80FD91FCB5671
:100E6000DE4FAE0EBF1E48E050E04A018A1A9B0AD0
:100E7000A616B70609F454C06830710509F450C0CD
:100E80006F3FEFEF7E070CF441C050E040E07E0181
:100E9000F0E8EF0EF11C42175307C4F5FC01E40F14
:100EA000F51FE038F10594F5F7FD2DC06F3F76078B
:100EB000A1F1FA01E00FF11FE4916E01C40ED51EFD
:100EC000F0E03F010A2E01C0660C0A94EAF7F60131
:100ED0007080672860821097B1F06730710599F0D3
:100EE000FA01E00FF11FE4916701C40ED51EF0E096
:100EF0003F01082C02C0759467940A94E2F7F6014A
:100F00007080672860824F5F5F4FC5CF6F5F7F4FF4
:100F1000020F131FC058DF4FABCF109709F7F3CF65
:100F2000DF91CF911F910F91FF90EF90DF90CF90C5
:100F3000BF90AF909F908F907F906F900895E5E95C
:100F4000F1E0A0E0B8E000800EBC8111012C119707
:100F5000A0FDFDCF0192B9F70DB40895FC01809179
:100F60009201882311F13FB7F89482E08093E90061
:100F70002091F200822F90E01816190614F481E0F7
:100F800090E0882339F0289844E6409391014091FD
:100F9000F1004083222339F02091F200211103C097
:100FA0002BE62093E8003FBF08958FEF9FEF089551
:100FB0002FB7F89483E08093E9009091E800892F9F
:100FC000807295FF04C09091F20080E4891B2FBFCE
:100FD00008958091890181110DC082E0809385017F
:100FE00084E080938601109288011092870181E04D
:100FF0008093890185E891E00895CF93DF931F9254
:10100000CDB7DEB76983DC01ED91FC910280F381FD
:10101000E02D41E050E0BE016F5F7F4F09950F90DA
:10102000DF91CF91089583E08093E9008091F200F1
:10103000882319F08AE38093E80008950E94D80776
:1010400090E00895CF93DF931F92CDB7DEB7FC01F8
:101050008485958597FD08C02FEF3FEF358724875E
:101060000F90DF91CF910895CE0101960E94AE07B7
:10107000019719F4898190E0F3CF8FEF9FEFF0CFC4
:101080000F931F93CF93DF931F92CDB7DEB78C01E1
:10109000FC018485958597FF0BC0CE0101960E94C7
:1010A000AE07019771F4898190E0F80195878487F4
:1010B000F801848595850F90DF91CF911F910F9155
:1010C00008958FEF9FEFF1CFFC018485958597FD03
:1010D0000BC09FB7F89482E08093E9008091F20002
:1010E0009FBF90E0019608959FB7F89482E08093A7
:1010F000E9008091F2009FBF90E0089540917F0148
:101100005091800120917D0130917E01421753075B
:10111000B4F49091E8009570E1F39091E80092FDAD
:1011200019C08093F10080917F0190918001019618
:101130008F739927892B19F48EEF8093E8008091A3
:101140007F019091800101969093800180937F01AF
:1011500081E0089580E00895DF92EF92FF920F936F
:101160001F93CF93DF93D82E8A01EB017B01E40E0E
:10117000F51ECE15DF0559F0D7FE12C0FE01849191
:101180000E947E0821968111F4CF0FEF1FEFC80156
:10119000DF91CF911F910F91FF90EF90DF90089515
:1011A0008881EECF0F931F93CF93DF931F92CDB71C
:1011B000DEB782E0898342E450E065E37BE080E8CB
:1011C0000E94AC080E94E907DC0112960D911C9167
:1011D0000115110589F0D801ED91FC910280F38190
:1011E000E02DBE016F5F7F4FC801099597FD04C0D8
:1011F000F80100851185ECCF89810F90DF91CF91A7
:101200001F910F910895615030F02091F100FC0181
:1012100020830196F8CF289884E680939101089561
:101220003FB7F8948091790190917A01A0917B0168
:10123000B0917C0126B5A89B05C02F3F19F00196FF
:10124000A11DB11D3FBFBA2FA92F982F8827BC0120
:10125000CD01620F711D811D911D42E0660F771F48
:10126000881F991F4A95D1F708958F929F92AF9248
:10127000BF92CF92DF92EF92FF926B017C010E94AE
:1012800010094B015C01C114D104E104F104B9F06F
:101290000E941009681979098A099B09683E734000
:1012A0008105910580F321E0C21AD108E108F10817
:1012B00088EE880E83E0981EA11CB11CE4CFFF903D
:1012C000EF90DF90CF90BF90AF909F908F90089558
:1012D0008F929F92AF92BF92CF92DF92EF92FF9246
:1012E0000F931F93CF93DF936C017B018A01809151
:1012F0000B01882309F45CC080919201882309F4D2
:1013000057C08091840180FF05C08091E000826019
:101310008093E000E801B12C8AEFA82E93E0892E9B
:101320002AE3922E209711F4BB20D9F10E94D8070E
:1013300081110AC0AA94AA20D9F161E070E080E08E
:1013400090E00E943509EECF8C171D0611F00CF0CD
:101350008C2F9FB7F8948092E9002091E80025FD3A
:1013600002C09FBFDFCF282F30E0C21BD30BF70195
:10137000815020F041914093F100FACFE20EF31E2C
:10138000BB2021F09092E800B12CEBCF8091E800D7
:1013900085FDE7CF9092E800BB24B394209709F332
:1013A000F3CF5D9884E680938301101611063CF01C
:1013B00081E090E0F6019383828310E000E0C801B1
:1013C000DF91CF911F910F91FF90EF90DF90CF9021
:1013D000BF90AF909F908F900895AF92BF92CF92A1
:1013E000DF92EF92FF920F931F93CF93DF936C01E5
:1013F0007B018B01040F151FEB015E01AE18BF08C6
:10140000C017D10759F06991D601ED91FC91019077
:10141000F081E02DC6010995892B79F7C501DF918F
:10142000CF911F910F91FF90EF90DF90CF90BF90E1
:10143000AF90089520916701E0916501F0916601F8
:10144000CF0102969093660180936501222319F0E3
:10145000859194910895808191810895CF92DF9232
:10146000EF92FF92CF93DF930E941A0A811520E832
:10147000920791F4809171008D7F8093710010929A
:1014800091004698479810926401DF91CF91FF90A8
:10149000EF90DF90CF90089521E020936401813098
:1014A00020E8920751F4809162019091630190933A
:1014B0006601809365010E941A0A97FD05C020917C
:1014C0006101222309F454C020916001211150C010
:1014D00021E020936801EC01DF77209709F04BC0F1
:1014E00081E08093690146983FE9C32E3FE0D32E07
:1014F000E12CF12CCAEFD0E0E091F305F091F40576
:101500000995811103C081E0809369018091680190
:10151000882329F080916901882309F43FC0479806
:101520000E941A0A0097F1F19C01DE010E94BA3272
:10153000DC01CB0129E0B595A795979587952A956C
:10154000D1F7109290002AE020939100D092990058
:10155000C092980080936A0190936B01A0936C01F4
:10156000B0936D01809171008260809371008DCF86
:1015700010926801B0CF9E0150E040E060E472E458
:101580008FE090E00E942F3269017A0181E0C81A51
:10159000D108E108F10810926901AECF4699BFCF9A
:1015A000479ABECF8FEF9FEFDC01CBCF9C01E1E7E5
:1015B000F0E090819D7F908381E08093670130937C
:1015C00066012093650130936301209362010C94BE
:1015D0002E0A2D9A0895BC0190E080E00C94350904
:1015E0008FB18095807F669B88601C9B8460089586
:1015F0005C988EBD00000DB407FEFDCF5C9A089587
:10160000CF93DF93FC01EE51FD4F2081222311F097
:1016100021502083208121112AC0FC01E252FD4F7C
:10162000308133962081213029F124E132131FC00B
:10163000EC01FC01E352FD4F808184608C7F80834C
:1016400036968E852AE0829FC00111249183808383
:101650003296108286EA0E94F80A8C8183FF07C0C6
:10166000877F8C83C152DD4F888181508883DF91D1
:10167000CF9108952FE0DACF10926E013E983F98F7
:1016800008953E9A3F9A81E080936E0108958038D4
:101690009105B8F460347105A0F420E191E061FD9A
:1016A00094E060FD990F62FD9295687F269FD001BE
:1016B0001124A80FAB56BE4F8C9140FF03C0892B5D
:1016C0008C93089590958923FBCF2F923F924F9250
:1016D0005F926F927F928F929F92AF92BF92CF92C2
:1016E000DF92EF92FF920F931F93CF93DF93EC0162
:1016F0008B017A016901C61AD70AD7FE03C0D194BB
:10170000C194D10847018C1A9D0A97FE03C0919499
:10171000819491088C149D0454F49E2D8F2D790191
:10172000292F382F9C2F8D2FE801092F182FEC1609
:10173000FD0654F4902F812F8901292F382F9C2FDB
:101740008D2FE701E92EF82E17012C1A3D0A2901E9
:10175000401A510A57FE03C0519441945108310177
:1017600037FE03C08FEF681A780A759467948FEF7D
:10177000021713070CF481E0A82E880FBB08EC16A3
:10178000FD06A4F041E0BE01C8018C149D0414F0D4
:10179000B801CE010E94470B6418750877FE04C09B
:1017A0000A0D1B1D620C731C2196E9CFDF91CF91AE
:1017B0001F910F91FF90EF90DF90CF90BF90AF906F
:1017C0009F908F907F906F905F904F903F902F9061
:1017D00008952F923F924F925F926F927F928F92D5
:1017E0009F92AF92BF92CF92DF92EF92FF920F93B0
:1017F0001F93CF93DF93CDB7DEB72A970FB6F89438
:10180000DEBF0FBECDBF9A8389836A3061F5DC01EC
:1018100055968C91B8E08B9F90011124E981FA8153
:1018200081899289820F931F928B818B108A1786F0
:1018300081E090E02A960FB6F894DEBF0FBECDBFD0
:10184000DF91CF911F910F91FF90EF90DF90CF909C
:10185000BF90AF909F908F907F906F905F904F90D0
:101860003F902F9008956D3019F329813A813A877E
:101870002987D9011F96AD90BC90B0E8AB16B10492
:101880000CF07BC0F901C188D288F0E4CF16D104F6
:101890000CF073C0D90155966C90559745E09501B1
:1018A000649E200D311D1124121613060CF065C024
:1018B000262C312C910153E0220F331F5A95E1F76A
:1018C0002C0D3D1D121613060CF057C05496BC91FA
:1018D000BB83E985FA85F389FC83649FB0011124F9
:1018E0009B0126593C4F3A832983712CE981FA8167
:1018F0008491F5E07F1201C080E0460138E0532E6C
:10190000282F30E03E832D834C8080FF4B80411098
:1019100004C03B818C813817E1F010E000E006152F
:10192000C0F4D501A00FB11FB887AF83F12CE12C13
:10193000E61460F4B701680D791D442D8F819885F8
:101940000E94470BBFEFEB1AFB0AF2CF0F5F1F4F4E
:10195000E6CF8D819E81959587955A94820C931C34
:101960005110CECF7394E981FA813196FA83E983DD
:10197000A20CB31CF6E07F12B9CFA985BA855596A3
:101980002C915597422F50E01F968D919C91B6E077
:101990002B9F800D911D1124E985FA85908B8787F7
:1019A0002689222309F444CF6AEF64039001659FDE
:1019B000300D112420583F4F281739070CF038CF2D
:1019C000DF010190F081E02D0190F081E02D6AE0CF
:1019D000CD0109952DCF0F931F93CF93DF938C01EA
:1019E000D0E0C0E0F801EC0FFD1F6491662341F0E8
:1019F0008CEF95E00E94E90B892B11F02196F2CF34
:101A0000CE01DF91CF911F910F9108951F93CF9336
:101A1000DF93142FE90170E04423D1F0865090E069
:101A200090930C0680930B0670930E0660930D0640
:101A30008CEA9CE00E94EB0CCE010E94EB0C11237F
:101A400089F08AEA9CE0DF91CF911F910C94EB0C16
:101A500090E090930C0680930B0670930E066093B3
:101A60000D06EACFDF91CF911F9108950895CF928F
:101A7000DF92EF92FF920F931F93CF93DF9300D0EB
:101A800000D000D0CDB7DEB77C01DC0115960D91FA
:101A90001C91B80117FF04C066277727601B710BE4
:101AA000072E000C880B990B0E94693120E030E072
:101AB00040E251E40E9436330E94AF33611101C00D
:101AC00061E022E0260FF701808191813AE0C32E88
:101AD000D12CB6010E94FE33FB01D70112968D91E5
:101AE0009C91B6010E94FE3317FF1EC0FA83E98362
:101AF0007C836B832D8381E08E8329813A814B81A6
:101B00005C816D817E8180E090E026960FB6F8942E
:101B1000DEBF0FBECDBFDF91CF911F910F91FF9020
:101B2000EF90DF90CF900895E21BF109DFCF1F9374
:101B3000CF93DF9300D000D000D0CDB7DEB7FC014B
:101B4000828193812AE030E0B9010E94FE33462F62
:101B5000172F80819181B9010E94FE339B01512F83
:101B600068E073E080E090E026960FB6F894DEBF60
:101B70000FBECDBFDF91CF911F910895FC018481ED
:101B800083FD0EC0A0919301B0919401A352BD4F6B
:101B90008C9181608C938481886084838EE18187BD
:101BA00008951F93FC0140815181658176811BEF6F
:101BB00016039001179F300D1124848182FF0CC001
:101BC000CA01805C9E4F820F931F811528E2920705
:101BD0000CF098521F910895CA0180549140820FD1
:101BE000931F97FFF7CF985DF5CFFC0125813681D4
:101BF0002115310531F080819181820F931F9183EE
:101C00008083278130852115310531F082819381D0
:101C1000820F931F9383828380819181811528E2B3
:101C2000920724F0985291838083089597FFFDCF07
:101C30008150984DF8CFFC019481937E90629483FB
:101C40000895FC01948190FF03C0987381E009F02E
:101C500080E008950F931F93FC010285138524856E
:101C60003585060F171F211D311D02871387248715
:101C70003587E752FD4F4081518162817381401762
:101C8000510762077307B0F4405F584D6F4F7F4FA5
:101C90004083518362837383369620812F5F208334
:101CA000319680818F5F808388EB91E01F910F9147
:101CB0000C94D60A1F910F910895CF92DF92EF9264
:101CC000FF920F931F93CF93DF937C01D62FFA01DE
:101CD000808191810AE010E0B8010E94FE339B01EF
:101CE000D7011F968D919C91B8010E94FE33C901C6
:101CF000861B970B97FD0F9624E0959587952A955F
:101D0000E1F7C82F8032BCF1C0ECC80F828193810B
:101D10006AE070E00E94FE33605E7F4F072E000C89
:101D2000880B990B0E9469312DEC3CEC4CEC50E493
:101D30000E9436336B017C016D2F70E090E080E0F3
:101D40000E9469319B01AC01C701B6010E94CA32F1
:101D50000E94A8332C2FCC0F330B41E0C901805CCB
:101D60009F4FDF91CF911F910F91FF90EF90DF90E8
:101D7000CF900C94470B813E4CF6C0E4C6CFFC01DB
:101D8000E959FE4F30E020E0408140FD0BC066E0A5
:101D9000629FA001639F500D11244D595E4F840F27
:101DA000951F08952F5F3F4F36962630310561F716
:101DB00090E080E00895CF92DF92EF92FF92CF9370
:101DC000DF93EC017B01EAE0F0E0CA01BF010E9471
:101DD000FE339B0188819981BF010E94FE336054CC
:101DE0007109261B370BC701BF010E94FE33AB01EF
:101DF000405E5F4F21158EEF380754F43C5FB90108
:101E0000CA01DF91CF91FF90EF90DF90CF900895BE
:101E1000213082E038079CF33450F1CF089590E0F0
:101E200080E00895FC0111821082138212821482D4
:101E3000168215821086178208952F923F924F9234
:101E40005F926F927F928F929F92AF92BF92CF924A
:101E5000DF92EF92FF920F931F93CF93DF93CDB753
:101E6000DEB72C970FB6F894DEBF0FBECDBF7C0156
:101E7000462E542EDC0112968D919C91EAE0F0E002
:101E8000BF010E94FE336B01D7018D919C91BF0170
:101E90000E94FE335B0179011901B8E22B0E311C5F
:101EA0003B01640C711C4601840E911CF701848176
:101EB0008970893041F5C7010E94370D2F8338871B
:101EC00049875A876B877C872F813885C901860FA0
:101ED000911DA816B906BCF426153705A4F429856A
:101EE0003A85C901870F911DC816D90664F42815D3
:101EF00039054CF4D70114968C9114978E7F149663
:101F00008C9381E00BC0BAE0EB0EF11CE214F304F9
:101F100069F6F801848180FD1AC080E02C960FB626
:101F2000F894DEBF0FBECDBFDF91CF911F910F910F
:101F3000FF90EF90DF90CF90BF90AF909F908F90E9
:101F40007F906F905F904F903F902F90089583FD0A
:101F5000E4CFC8010E94970D29833A834B835C83A9
:101F600029813A81C901860F911DA816B906ACF6E0
:101F7000A40CB11C2A153B0584F62B813C81C901B8
:101F8000870F911DC816D90644F6C50CD11C2C1517
:101F90003D051CF6C8010E94BE0DB3CFFC01828135
:101FA000938180372EEF92072CF486E391E09383A0
:101FB0008283089587339140E4F380E79EEFF7CF63
:101FC0004F925F926F927F928F929F92AF92BF9249
:101FD000CF92DF92EF92FF920F931F93CF93DF93F5
:101FE0006A017B015A01FC014491F0E8CF16D1044B
:101FF00038F050E04C0D5D1D4038510508F031C1FE
:10200000FC01349131966490A32FB0E04D018C0C0B
:102010009D1C1814190494F081E0DF91CF911F9159
:102020000F91FF90EF90DF90CF90BF90AF909F9077
:102030008F907F906F905F904F900895F0E8AF166B
:10204000B10454F7E701A701460D511D14161506FA
:102050001CF7C034D10504F7309FE02D1124EE5F4A
:10206000E80FF92FF11D3097B9F2C701F7FE04C050
:10207000882799278E199F09982F9770A701D7FF56
:1020800002C0495F5F4F03E0559547950A95E1F718
:10209000042FD7FF07C0992329F00FEF040F88E022
:1020A000891B982F662777276C197D09B7FC02C01A
:1020B00070E060E010E8811691040CF4BCC010E8F8
:1020C000912E9C18961A402F002E000C550B842F31
:1020D00080950F3F0CF080E088248394162D1770B4
:1020E00009F4812C162D169516951695810E480D1E
:1020F000511D493051051CF058E0852E801A881A70
:10210000080F102F40E8040330011124C60CD71C1F
:10211000C60ED71E389FA0011124640F751FE60F4D
:10212000F71F822F8170782E20FF0EC0E92CF12C32
:10213000B70161507109E60FF71FBD016E197F09E4
:10214000B7FE7BC0E61BF70B822F827021FF11C008
:10215000282D2150330BB9016A9F90016B9F300DE0
:102160007A9F300D1124E20FF31FD7FF02C0E41B4A
:10217000F50BA92E092E000CBB08ED01CC0FDD1FBD
:10218000D195C195D109A6014B565E4F602E680CC2
:10219000292D30E07D01E21AF30A2D01420E531E73
:1021A000611609F439CF70E060E0691508F04AC0A3
:1021B00024912223D1F18823D1F0229530E06901C6
:1021C000D594C794D594C794AC2DA373220F331F15
:1021D000220F331F2C7C2A2BC22ED12C9601359531
:1021E00027952575CC0CDD1CBC2DBA7A2B2B30E045
:1021F0000A2C02C0220F331F0A94E2F717FD07C012
:102200006A01C60ED71ED6018C90822A8C92992321
:1022100061F0173054F46B01B0E8CB0ED11CC40E42
:10222000D51ED6012C91232B2C93772049F0319782
:102230006F5F7F4FBACF932E45CFE60FF71F84CF46
:102240003196F6CF1F5F772049F0E40DF51D882306
:1022500011F0EC0FFD1F40585F4FA2CFEE0DFF1D98
:10226000F6CF80E0DACE0F93CF93DF93EB01BA0184
:10227000A901202F00E00E94E00F9881882331F00F
:1022800092609883DF91CF910F9108959D7FF9CF50
:102290000F93CF93DF93EC019E816A3051F48D81CF
:1022A0008C83985F9E8381E090E0DF91CF910F91C6
:1022B0000895062F00530A3068F48C81482F880F48
:1022C000550B9F5F692F990F770B20E086EB90E00D
:1022D0000E94E00F8C818C5F8C83E5CF1F93CF939E
:1022E000DF93EC01162F8C81816083798C831D82B2
:1022F0009FEF960F923010F06430A9F488EF92E0CF
:102300000E94D60A8C81123041F48C608C8380E26A
:102310008D83DF91CF911F910895143011F0846067
:10232000F5CF8464F3CF633079F480628C8387EADD
:102330000E94F80A8C8180618C8382E792E0DF91B1
:10234000CF911F910C94D60A88E192E0F8CFCF92FA
:10235000DF92EF92FF92CF93FC016A017B01C22FC3
:1023600090819E7F908380919301909194010E942F
:10237000BF0E009769F0FC01C082D182E282F38235
:102380006C2FCF91FF90EF90DF90CF900C946E1157
:10239000CF91FF90EF90DF90CF9008950F931F9310
:1023A000CF93DF93FC014191519161917191CF01E4
:1023B00020E00E94A711C0919301D09194018E85D5
:1023C00081508E87811116C0DE01AB51BD4F8AE06E
:1023D0008C938E01005C1F4FC85FDE4FF801848133
:1023E00080FF03C0C8010E941B0E065F1F4F0C1721
:1023F0001D07A1F7DF91CF911F910F9108950F93C2
:102400001F93CF938B01C42FFC0124812E7F248343
:102410004191519161917191CF0120E00E94A711EA
:10242000B80180919301909194010E942A0ECC23CF
:1024300049F08091930190919401CF911F910F9158
:102440000C94000BCF911F910F9108950F931F9340
:10245000CF93DF938C0141E066E970E00E94FF11A9
:10246000F801848184FF24C081858F3F09F1C091E8
:102470009301D09194019FEF9187F9E08F9FC00D58
:10248000D11D11248E01035F1E4FF801808180FF52
:102490000FC08AEF91E00E94D60AC05FDE4F81E054
:1024A00090E099838883F8018081877F80618083B1
:1024B000DF91CF911F910F9108955F926F927F925C
:1024C0008F929F92AF92BF92CF92DF92EF92FF9244
:1024D0000F931F93CF93DF937C016B0141E068EE74
:1024E00073E00E94FF11D0E0C0E089E0582E99EF20
:1024F000692E77247A9427E0A22EB12C8090930144
:1025000090909401F401EA5DFD4F10E000E08081BD
:1025100080FD20C0509EF001519EF00D1124EE5D13
:10252000FD4FE80DF91D3097E1F4A897C036BFEFD5
:10253000DB0721F7DF91CF911F910F91FF90EF9073
:10254000DF90CF90BF90AF909F908F907F906F90D3
:102550005F9008950F5F1F4F399600311105B9F64E
:10256000E4CF848181608483D70112968D919C9100
:1025700013978C0F9D1F805B9F4F2D913C912C0FCB
:102580003D1F205B3F4F31832083938382830E94D2
:102590001D3180FF1BC08EEF9FEF509E9001519E1A
:1025A000300D1124820E931EF401E75DFD4F9183DF
:1025B00080833797D6012D913C918081918135960A
:1025C0008217930734F4B182A082AFCF82E090E00B
:1025D000E4CF71826082A9CFCF93DF93EC018C812D
:1025E000877C84608C8318861F820E941D3123E0C3
:1025F00030E0B9010E94FE33892B39F48DEF9FEF53
:102600009E838D83DF91CF9108953E832D83FACFF2
:10261000CF93DF93EC010E941D3180FD0CC081E05F
:1026200090E09E838D8318861F828C81877C8C83AB
:10263000DF91CF9108958FEF9FEFF3CFCF93DF938B
:10264000EC018C816623A1F081608C830E941D3196
:1026500062E070E00E94FE339C019C8121303105D4
:1026600049F494609C83CE01DF91CF910C940813C0
:102670008E7FEBCF9B7FF6CF0F931F93CF93DF938C
:102680008C010E941D3160E078E20E94FE33C0E0C0
:10269000D8E2F80120813181AC01421B530B415833
:1026A0005D4F4F3F544068F0203845E234077CF0DE
:1026B000FC01E21BF30B9F012158354D2F3F3440A5
:1026C00088F40E941D31BE010E94FE33E2CF213802
:1026D00042E034073CF4FC01E21BF30B9F0121585C
:1026E0003542ECCFDF91CF911F910F910895CF929A
:1026F000DF92EF92FF920F931F93CF93DF938C01A2
:10270000EC01C250DE4F7C018EEDE81A8DEFF80A25
:102710008C8180FF18C0C8010E943C136C010E948C
:102720001D31D982C8821B821A8280FF19C08DEFA9
:102730009FEF9E838D830E941D3180FF14C08FEF19
:102740009FEF98878F832996CE15DF0509F7DF91D4
:10275000CF911F910F91FF90EF90DF90CF90089550
:1027600083E090E0E6CF81E090E0EBCF7F928F9224
:102770009F92AF92BF92CF92DF92EF92FF920F9310
:102780001F93CF93DF936C010E941D31809590952C
:10279000082F0170E601CD54DE4F560180E2A81AE1
:1027A0008EEFB80AF12CE12C912C812C10E07724CB
:1027B00073948C8180FF22C0111107C0C6010E9452
:1027C0003C134C0180EFE81AF10899828882FB8261
:1027D000EA828BEF9FEF002311F085E090E09E836B
:1027E0008D830E941D3180FF1BC08FEF9FEF988764
:1027F0008F831F5F1330B9F4072510E02996CA159F
:10280000DB05B9F6DF91CF911F910F91FF90EF900B
:10281000DF90CF90BF90AF909F908F907F90089562
:1028200081E090E0E4CF80EC881A8EEF980A80EF88
:10283000E80EF11CE3CF7F928F929F92AF92BF92EE
:10284000CF92DF92EF92FF920F931F93CF93DF937C
:10285000FC01DC01A152BD4F8C91811111C082E0BD
:1028600080937301DF91CF911F910F91FF90EF90B3
:10287000DF90CF90BF90AF909F908F907F90089502
:102880007F012FE1E21A2DEFF20AD7018C918F5FC1
:102890008C9365E00E94DE33911102C08AE0868746
:1028A0004F01E352FD4F108231961082359688E732
:1028B00090E09183808384010E511D4FF8011082B6
:1028C000D40114968C911497827E856014968C9313
:1028D000149718961C921E92179716961C921E9289
:1028E000159711961C921E9213961C921E92129787
:1028F00080E491E050969C938E931F97E401C75F0C
:10290000DE4F712CC12C88E2D82E92E2A92EBB2476
:10291000B394F401868560E0781650F40E941D316E
:10292000B6010E94FE3399838883BB82AA8261E04C
:10293000CE010E941E1373942996FAE07F12E9CF0C
:10294000D401A959BE4FF401E557FE4F8C918E7FFB
:102950008C931696EA17FB07C9F79401285D3F4F41
:10296000D4015C968C915C978E7F5C968C935C977F
:102970001A962A173B07A9F7C40189549E4F208154
:102980002E7F20833B968E179F07C9F7F401EC51E9
:10299000FE4F640122E0C20ED21E20812E7F2083D2
:1029A0003596CE16DF06C9F7A4014A5D5D4FF601E4
:1029B00020812E7F208339964E175F07C9F7F401D7
:1029C000EA54FD4F20812E7F20833D9620812E7F6B
:1029D00020833D9620812E7F2083D7012C912130AA
:1029E00011F4C0E010C0C3E0223021F0C4E0233075
:1029F00009F0C5E0FC0180E09081916090838F5FD9
:102A00003996C813F9CFC4010E94B613F80180812A
:102A1000C80FC083D701CC91C130F9F0C230C9F0E2
:102A2000C330C9F480E0F6019081916090838F5F9C
:102A3000F9E0CF0ED11CC813F6CFC4010E94771362
:102A40008C2F880F880F8C0FD801CC91C80FCC9396
:102A500009CFC1E0E7CFC4E0E5CFC0E0EECF4F92B1
:102A60005F926F927F92AF92BF92CF92DF92EF927E
:102A7000FF920F931F93CF93DF937C012A013B01B9
:102A80008CEA90E00E94D60AC0909301D090940105
:102A9000F601E557FE4FB12CA12C808180FD1BC0B3
:102AA0008BE08A9DE0018B9DD00D1124C957DE4F2C
:102AB000CC0DDD1D2097C1F4DF91CF911F910F91B7
:102AC000FF90EF90DF90CF90BF90AF907F906F908E
:102AD0005F904F9008958FEFA81AB80A3B9684E054
:102AE000A816B104D1F6E8CF598248827B826A8267
:102AF000F7010281138106191709E080F180E418BB
:102B0000F5089701F7FE04C0222733272E193F0945
:102B1000C80117FF04C088279927801B910B8217D3
:102B200093070CF4C9016AE070E00E94FE33072E9F
:102B3000000C880B990B0E9469312B013C0120E0AD
:102B400030E0A9010E9462318823D1F0B801110F51
:102B5000880B990B0E946931A30192010E943633C0
:102B60000E94A8338B01B701FF0C880B990B0E94C0
:102B70006931A30192010E9436330E94A8337B0180
:102B8000FE82ED8218870F830E941D3164E170E0A0
:102B90000E94FE338A50082E000C990B4BE04A9D90
:102BA00090014B9D300D1124C20ED31EF601E45747
:102BB000FE4F20813181280F391F318320833296C7
:102BC00040815181481B590B518340838C81816026
:102BD0008C83F0E7CF1AFEEFDF0AF6013183208302
:102BE0000E941D3165E070E00E94FE339C019C81D3
:102BF000232B19F494609C835FCF9B7FFCCF2F9293
:102C00003F924F925F926F927F928F929F92AF927C
:102C1000BF92CF92DF92EF92FF920F931F93CF93C9
:102C2000DF93CDB7DEB7A2970FB6F894DEBF0FBE25
:102C3000CDBF1C016C0123E2C21A2DEFD20AD601CE
:102C40008C9181708B8FF101EF51FD4F80812FE0CE
:102C5000813009F024E1BB8DB11160C081010D51BB
:102C60001D4FF80180819181009709F0F2C03597DE
:102C70008081821708F042C0922E981AF4E0F9156C
:102C800010F4A4E09A2E812CEAE07E2EF8E3EF2ED9
:102C9000FF24FA94891409F4D3C0F101EC5BFF4FCF
:102CA00030E020E0808180FD0DC0729EC001739EE7
:102CB000900D1124805C9F4F820D931D892B49F448
:102CC0008394E8CF2F5F3F4F3A962431310551F777
:102CD000F7CFC1010E943C135C01C1010E94BF0EED
:102CE000009771F3DC011196BC92AE921396FC92A0
:102CF000EE92129761E00E946E11E2CFF101EA5468
:102D0000FD4F808180FF79C03D96808180FF9EC00D
:102D10003D96808122E030E080FF71C0D1011496A1
:102D20008C91149780FF1BC383FFA2C019969C91BE
:102D30001997915019969C93199791118CC0FD0188
:102D40004191519161917191CF0123E00E94A711AE
:102D500069E170E080919301909194010E942A0EA4
:102D600010E000E079E0F72E40919301509194013A
:102D7000F09E9001F19E300D1124FA01E20FF31F35
:102D8000E35FFE4F90819172913239F4275F3E4F9D
:102D9000CA01820F931F0E94CE110F5F1F4F0A308E
:102DA000110511F78101015F1F4FC8010E94F50D48
:102DB000C1010E94D10DFC01D1011F962D913C91C2
:102DC0008217930709F475C2821B930B6AE070E0C7
:102DD0000E94FE3377FF52C26D3FBFEF7B070CF0BE
:102DE000A1C261157E4F0CF051C2225E3F4FD1014E
:102DF00050963C932E931F974EC230E020E04DE05A
:102E0000429FC001439F900D11248E549D4F820D0F
:102E1000931D892B09F482CFC1010E943C137C01D0
:102E2000C1010E94BF0E009759F0DC011196FC927F
:102E3000EE9213961C921E92129762E00E946E11FF
:102E400088E592E0F8019183808368CF21E030E04B
:102E5000D6CF0197F7CF937009F0A4CF84FD04C0BB
:102E6000806114968C939ECF8F7EF10184839ACFDC
:102E7000C1010E94F50DD10112968D919C916AE0DD
:102E800070E00E94FE338B010E94F00A87FF12C09F
:102E9000013EBFEF1B0774F0F101828193810A9715
:102EA000803CFEEF9F0714F1D10113969C938E9303
:102EB000129704C00E94F00A84FD1EC00E94F00A0E
:102EC00086FF05C1F101848182FD02C08460848394
:102ED000D10115968D919C91169702968531910599
:102EE000D4F416969C938E9315971AC080EC9EEF9F
:102EF000F10193838283E2CF0D311105FCF6D101FC
:102F000012968D919C910A968E33B1E09B0784F3C3
:102F10008DE391E0C9CF84E190E0F1019683858350
:102F200084E00E9485068823D1F0809093019090E0
:102F30009401F401B12CA12C848D80FDF9C08AE0AC
:102F40008A9D80018B9D100D11247801B8E1EB0E54
:102F5000F11CE80CF91CE114F10409F0F3C088E05D
:102F60000E948506882309F41DCF0E94F00A82FD85
:102F700033C10091930110919401F801E052FD4F8B
:102F80008081882309F40ECFD801AB51BD4F9C91AD
:102F9000911108CF9AE09C93815080835801F4E40A
:102FA000AF0EB11C780124EFE21A2EEFF20AF50100
:102FB00080818370833021F4C50104970E9426121A
:102FC000FAE0AF0EB11CEA14FB0489F758013DE4A6
:102FD000A31A3EEFB30A780140E2E41A4EEFF40A76
:102FE000D50114968C918370833031F441E06AEFFF
:102FF00070E0C5010E94FF11B9E0AB0EB11CEA14EC
:10300000FB0471F74801E2E08E0E9E1E7801FAED96
:10301000EF1AFDEFFF0A5401D4018C9183708330C5
:1030200029F4B801C40104970E945D12B9E08B0E27
:10303000911CE814F90481F74801EAE48E1AEDEFD7
:103040009E0AD7018C918370833039F441E066E9A0
:1030500070E0C70104970E94FF11B9E0EB0EF11C6C
:10306000E814F90471F77801EEE4EE1AEDEFFE0AC8
:103070004801F7E28F1AFDEF9F0AD70114968C9151
:103080008370833031F440E068EC70E0C7010E9447
:10309000FF11BDE0EB0EF11CE814F90471F7F80123
:1030A000E557FE4F980129543E4F80818E7F8083E3
:1030B0003B96E217F307C9F7F801EC51FE4F808108
:1030C0008E7F80833596AE16BF06C9F76BCE0E9401
:1030D000F00AD10115962D913C91169785FF16C0E7
:1030E00014968C91149782FF03C08B7F14968C9357
:1030F000225031092C3EBFEF3B0724F0F10136830B
:1031000025830ECF8CEE9FEFD101EBCE2B30310516
:103110001CF021503109F2CF263FFFEF3F070CF0A2
:10312000FFCE2F5F3F4F16963C932E931597F8CE08
:103130002FEFA21AB20A3A9634E0A316B10409F0AE
:10314000FBCE0DCF86ED90E00E94D60AF401E00F91
:10315000F11FD10112968D919C9113970A96938F2E
:10316000828F14962C9114978D919C91119722FF28
:103170002AC0805B9F4F918F808F15966D917C91B7
:10318000625E7F4F072E000C880B990B0E946931FD
:10319000D70114961C9111604AE04A9D90014B9D05
:1031A000300D1124820E931E21E0F40121A30E9410
:1031B000A833D4015E967C936E935D971B7F186055
:1031C000F7011483CCCE0A97918F808FF10165812E
:1031D00076816E517109D6CFD10118961C921E923C
:1031E000179716961C921E9215970E941D3160E04B
:1031F00078E20E94FE330197F101918380830E945F
:103200001D316EE472E00E94FE3387529140D1017D
:1032100013969C938E9312970E941D31F101948115
:1032200080FD29C0946094830091930110919401D2
:10323000C1010E94D10DF801908B8787C8010E94BF
:10324000BF0E009709F4AECDD10114962C911497BE
:103250002E7F14962C9314972D913C911197FC017D
:103260003183208312962D913C913383228364E035
:103270000E946E1197CD9B7F9483D6CF64307105E9
:103280000CF450C0613072400CF4AFCD2E513109B6
:10329000F101308B2787F101878590898115F8E24C
:1032A0009F070CF445C09852D10150969C938E9381
:1032B0001F97D1014D915D916D917C91C8010E9444
:1032C000DB0E4B015C01F101248124FD3CC022FB9B
:1032D000222720F981E0282700E0B501A4018CEE27
:1032E00090E00E94E00F0E94F00A86FF28C08091C3
:1032F000030680FD28C00E941D310E941D31D101AE
:1033000014968C9121E082FF44C620E08DEF9FEF60
:10331000880D991DAC01B50100E088EE90E00E9497
:10332000E00F11C0D1015096FC93EE931F97B3CFDD
:1033300097FFBFCF985DF101908B8787BACF0E942E
:10334000F00A85FDD4CFF6018081D10112962D912E
:103350003C9120363F4F0CF01FC682608083710184
:10336000D12CC12C1AE05101FFE0AF0EB11C60E47A
:10337000962ED7015C968C9180FF40C0BB8DB11119
:103380000EC0C70148960E94F50DF701948D81A1EA
:1033900092FD06C68E5F803408F000C681A31C9D96
:1033A000F0011D9DF00D1124E20DF31D408D518D96
:1033B000628D738DC5010E94DB0E2B013C016038CC
:1033C000710528F0F701948D9460977F948FD70151
:1033D00091962C9191975D968D919C911816190656
:1033E0000CF0E7C5822F90E0F201E81BF90BCF014A
:1033F00001E046EF50E0B3010E94E006FFEFCF1A74
:10340000DF0A2AE0E20EF11C34E0C316D10409F011
:10341000B0CFD1011E968C911E97882309F42CC140
:103420001F968D919C916AE070E00E94FE339B0193
:103430002054310937FD3C5FC90164E070E00E940F
:10344000FE338C011127882311F0201B310B37FF2D
:1034500002C02D5F3F4F3595279535952795922EC4
:10346000119501951109E92DF0E0E655F44FE4902E
:10347000BE2DBF718B2E6B2F70E06D5D7F4F41E0D5
:10348000C8010E94470B45E0A42EB12CF12C680125
:10349000E4E0CE1AD108C7010A2C02C095958795A1
:1034A0000A94E2F780FF8BC58394682D70E06D5D10
:1034B0007F4F41E0C6018A0D9B1D0E94470BFFEF25
:1034C000AF1ABF0A28E0A216B10429F793940C5F43
:1034D0001F4F003811053CF28101075F1E4F512C30
:1034E000412CA101415F5F4F58A34F8F2AE0E22E8C
:1034F000F12CC101805C9F4F9AA389A332E2632E15
:1035000077247394D80114968C9180FFABC0BB8D47
:10351000B11131C0C8010E94F50DF801848184FF0A
:103520005CC5809103069091040687709927892BCA
:1035300029F487819085019690878783D8018D91A2
:103540009C91B7010E94FE33CB010E94900623EEAE
:10355000280FF80182819381B7010E94FE3326175C
:10356000170609F044F48781908508970CF429C563
:10357000C8010E94CE11B9E0B49DF001B59DF00DD7
:103580001124E20DF31DE75FFE4F408151816281FE
:1035900073818F8D98A10E94DB0EDC01CB01AB0102
:1035A000F801248177FD9DC5A038B1050CF099C5BF
:1035B000226024839D012E5F3F4FBD010E94650B59
:1035C000BB8DB1114FC0F801848185FD4BC0828154
:1035D0009381B7010E94FE334B0180819181B70135
:1035E0000E94FE335B016101F8E1CF0ED11C940112
:1035F0002D5F3F4F3E8F2D8FD60114968C91897091
:10360000893009F073C5C6010E94370D2B8B3C8BA6
:103610004D8B5E8B6F8B788F2B893C89C901860F10
:10362000911DA816B9060CF061C5A216B3060CF4DC
:103630005DC52D893E89C901870F911D88169906A0
:103640000CF054C5ED8DFE8D2E173F070CF04EC5C6
:10365000D60114968C9114978E7F14968C93C80182
:103660000E94CE11FFEF4F1A5F0A075F1F4F2AE03B
:103670004216510409F046CF710134E4E30EF11C07
:10368000512C412CBAE07B2EA101415F5F4F5E8F30
:103690004D8FC101489698A38F8F1AE0812E912CEF
:1036A000D7018C9180FF86C06701B4E0CB1AD108A6
:1036B000EB8DE11152C0C6010E94F50DD7018C912E
:1036C00082FFADC5F60180819181B4010E94FE3375
:1036D000CB010E949006282F2B52330BF9012A3080
:1036E000310514F0EAE0F0E0D7013E912E918D0112
:1036F000C901B4010E94FE336E177F070CF03AC572
:103700002B5F3F4FC901B4010E94FE33E617F70754
:103710000CF43EC5F801318320838091030690911B
:1037200004068F709927892B09F43BC5B0E8B98F3F
:10373000D7018C9181FF11C00E941D31B98D6B2F73
:1037400070E00E94FE33892B41F4F60140815181E3
:1037500062817381C1010E942F15749CF001759CD8
:10376000F00D1124E20DF31DE05CFF4F408151810B
:10377000628173818D8D9E8D0E94DB0E9B01AC0159
:10378000D7018C9185FF1FC681E891E000E0B70169
:103790000E943311BB8DB1110DC081012F8D38A155
:1037A00046E067E0C6010E941D0F882319F0C6019C
:1037B0000E942612EFEF4E1A5E0AFAE0EF0EF11C9D
:1037C00024E14216510409F06BCF710139E4E31A88
:1037D0003EEFF30AD12CC12CE9E05E2E51014FE0FF
:1037E000A40EB11C410158E1850E911CF5E04F2E4D
:1037F000D7018C9180FF6BC0BB8DB1112AC08701AE
:1038000004501109C8010E94F50DC8010E94CE0F95
:10381000F701808181FF1DC00E941D318F739927A0
:103820000097B9F4E0919301F0919401DF01AC515C
:10383000BE4F2C9120FDCAC5489E9001499E300D77
:103840001124D901A052BE4FAE0FBF1F109709F02F
:10385000C4C55C9CF0015D9CF00D1124E20DF31DCC
:10386000ED54FE4F4081518162817381C5010E94F8
:10387000DB0E9B01AC01D70111966D917C911297E3
:1038800013968D919C91161617060CF0BCC501E09D
:10389000181619060CF003E0B7018AE891E00E94BF
:1038A0003311BB8DB11113C03701E4E06E1A7108FA
:1038B0008101940148E068E0C3010E941D0F882344
:1038C00031F041E06AEF70E0C3010E94FF11FFEFA9
:1038D000CF1ADF0A29E0E20EF11C35E0C316D1044D
:1038E00009F086CF71014AE4E41A4DEFF40AD12CB5
:1038F000C12CC1010F969A8F898F210198E1490E41
:10390000511C6AEFA62EBB24BA9476E0872E912C28
:10391000D7018C9180FF99C0BB8DB11166C0870122
:1039200004501109C8010E94F50DC8010E94CE0F74
:103930002091030630910406C9016AE070E00E94FC
:10394000EA33892BE9F5C9016EE170E00E94EA33A0
:10395000892B09F069C5F10180819181D8012D91F0
:103960003C91821B930B97FF03C091958195910920
:103970008D3291400CF458C50E941D3183709927F7
:10398000892B09F451C5F10120813181D8018D9134
:103990009C91821793070CF03DC5F70196828582B2
:1039A000F10122813381F701329780819181821761
:1039B00093070CF035C5D70118969C928E921797F5
:1039C000D70115964D915D916D917C911897CA0123
:1039D000F7014183528363837483D10115962D913E
:1039E0003C91820F931F92838183BDE0BC9DF001C7
:1039F000BD9DF00D1124E20DF31DEE54FD4F4081ED
:103A0000518162817381898D9A8D0E94DB0E9B01A9
:103A1000AC0100E0B70184E991E00E943311EB8D25
:103A2000E11113C03701F4E06F1A710881019201AE
:103A300043E068E0C3010E941D0F882331F040E09D
:103A400068EC70E0C3010E94FF112FEFC21AD20A86
:103A50003DE0E30EF11C43E0C416D10409F058CF59
:103A6000710152E0E50EF51ED12CC12C59E0552E06
:103A700041018FE0880E911C310198E1690E711CA3
:103A8000D7018C9180FF35C05701B4E0AB1AB10863
:103A9000EB8DE11106C0C5010E94F50DC5010E9424
:103AA000CE0F5C9CF0015D9CF00D1124E20DF31D26
:103AB000E250FE4F4081518162817381C4010E94B6
:103AC000DB0E9B01AC0100E0B7018EE991E00E94A2
:103AD0003311FB8DF1110DC08101930146E066E0C9
:103AE000C5010E941D0F882321F0B101C5010E946C
:103AF0005D122FEFC21AD20A39E0E30EF11C44E046
:103B0000C416D10409F0BCCF71015AEDE51A5DEF7E
:103B1000F50A912C812CC1010F969A8F898F4AE06A
:103B2000442E512C310198E1690E711CD7018C9102
:103B300080FF74C0BB8DB11171C66701E4E0CE1A7D
:103B4000D108C6010E94F50DC6010E94CE0F20913A
:103B5000030630910406C901B2010E94EA33892BA1
:103B600009F055C6D101AD90BC90C501B2010E94CB
:103B7000FE338B01D601ED91FC91CF01B2010E9481
:103B8000FE33C801861B970B181619060CF079C472
:103B9000813491050CF07BC4C9016EE170E00E9494
:103BA000EA33892B09F08CC4D10112962D913C91F6
:103BB000F701329780819181821793070CF078C4C6
:103BC00022E030E0F7013483238329E0289DF001CF
:103BD000299DF00D1124E20DF31DEE5DFD4F408196
:103BE000518162817381898D9A8D0E94DB0E9B01C8
:103BF000AC0100E0B70187EA91E00E943311810136
:103C0000930144E065E0C6010E941D0F882331F056
:103C100041E066E970E0C6010E94FF113FEF831AA0
:103C2000930A49E0E40EF11C50E18516910409F075
:103C30007DCF71018CE1E81A8EEFF80AD12CC12CEE
:103C400025E0522E31019FE0690E711C3AE0A32E4F
:103C5000B12CD7018C9180FF63C05C9CF0015D9C0E
:103C6000F00D1124E20DF31DE052FE4F4081518111
:103C700062817381C3010E94DB0E9B01AC0100E0F5
:103C8000B7018EEA91E00E943311811104C0F7015F
:103C900080818E7F8083FB8DF11142C0F7013297C6
:103CA00080809180329720813181D10114969C913E
:103CB00090FF36C093FD34C0C901B5010E94FE33A8
:103CC0008B01C1010E94970DE72F2F833887498709
:103CD0005A876B877C878F819885680F792F711D34
:103CE00006171707ECF40D5F1F4F80179107C4F4F8
:103CF000C401B5010E94FE3329853A85E20FF32FF6
:103D0000F11D6E177F0764F46D5F7F4F261737072D
:103D10003CF4F70180818E7F8083C1010E94BE0D3B
:103D2000FFEFCF1ADF0A25E0E20EF11C36E0C316E2
:103D3000D10409F08ECF710145E7E41A4EEFF40A81
:103D4000D12CC12C8BE0582E31015FE0650E711C27
:103D50009AE0A92EB12CD7018C9180FF78C0BB8D41
:103D6000B11112C0C70104970E94F50DF7018081BF
:103D700082FF0AC085819681D10115962D913C91D3
:103D8000820F931F928381835C9CF0015D9CF00DF8
:103D90001124E20DF31DE957FE4F408151816281EC
:103DA0007381C3010E94DB0E9B01AC0100E0B701EF
:103DB00083EB91E00E943311811104C0F7018081EF
:103DC0008E7F8083FB8DF11142C0F7013297808096
:103DD0009180329720813181D10114969C9190FF7E
:103DE00036C093FD34C0C901B5010E94FE338B017A
:103DF000C1010E94970DE72F29833A834B835C838F
:103E00006D837E8389819A81680F792F711D0617D2
:103E10001707ECF40D5F1F4F80179107C4F4C4011E
:103E2000B5010E94FE332B813C81E20FF32FF11D7F
:103E30006E177F0764F46D5F7F4F261737073CF4DA
:103E4000F70180818E7F8083C1010E94BE0DFFEF4C
:103E5000CF1ADF0A2BE0E20EF11C34E0C316D104C6
:103E600009F079CF81010D591E4F712C612C210170
:103E70004FE0440E511CD80114968C91149780FF8A
:103E80008EC415969C91159782FFD1C391501596BB
:103E90009C93159791111AC0982F9E7F14969C930E
:103EA000E0909301F090940183FF5CC3F701EA5422
:103EB000FD4F808180FF2AC33D96808180FF4FC3E4
:103EC0003D96808122E030E080FF22C3D801149625
:103ED0008C9184FF07C086EA0E94F80AF801848169
:103EE0008F7E848326E0269DF001279DF00D11240E
:103EF000E20DF31DED59FE4F4081518162817381C6
:103F0000C2010E94DB0ED8011596EC90EE2009F458
:103F100046C47C8F6B8F2E2D2695422F50E09B013F
:103F2000241B350B2038310538F09A01260F371F36
:103F30002038310508F033C44C01F12CF194E194A0
:103F4000F108F801C580D12CCE14DF040CF427C48D
:103F5000D194C194D108AB8CBC8CAE0CBF1CD801E1
:103F600015968C9190E08C159D050CF415C4E11408
:103F7000F10419F4C114D10439F041E0B4016C0D1D
:103F80007D1DC5010E94470BF8018581C80ED11C1B
:103F9000E6CF89E090E0BCC98D7FE0C991A2FFC95E
:103FA000833020F411A29E7F948FF9C9825081A39F
:103FB000F6C901E046EF50E0B301C2011DCA8A9480
:103FC00074CA6AEF70E080919301909194010E940D
:103FD0002A0EC8010E940813CECA85FF5AC0D1011B
:103FE0008D919C9111974E969183808312962D917D
:103FF0003C91285D3F4F33832283B7010E94FE33FB
:10400000CB010E94900693EED92ED80ED8011296BD
:104010008D919C91B7010E94FE33D616170611F0C0
:104020000CF0A9CA64EF71E0809193019091940122
:104030000E942A0EBAE0DB9EC0011124F80193838E
:104040008283C0909301D09094014601FDE98F1ABC
:10405000FEEF9F0AF601E75FFE4F0E171F07A1F064
:10406000848180FF11C0D8012D913C91C901B70115
:104070000E94FE335B0180819181B7010E94FE3373
:10408000A616B70609F4BDC33996E815F90529F750
:10409000A0CF83FD70CA80819181B7010E94FE3359
:1040A000CB010E949006D80114969C91149792FF20
:1040B00013C08D51BAE08B9FC00111248332E1E01F
:1040C0009E0734F4D80113969C938E93129753CA8B
:1040D000F801738262824FCA13967C926E92129795
:1040E0004ACA2D7FD80114962C936ACABAE0CB0E27
:1040F000D11CE9A1FAA1CE16DF0609F07DCAD801CC
:1041000014968C9184FFAECAC1010E94970D2D8731
:104110003E874F87588B698B7A8B2D853E85C901E9
:10412000860F911DA816B9060CF09CCAA216B306FC
:104130000CF498CA2F853889C901870F911D8816FC
:1041400099060CF08FCAB3E08B0E911C2815390527
:104150000CF088CA64EF71E0809193019091940112
:104160000E942A0EF80184818F7E806284831086EB
:10417000178278CAE617F7070CF0CFCA2A50310920
:10418000C901B4010E94FE336E177F070CF0C2CA4A
:104190007E9EC0017F9E900D1124D8018D939C932B
:1041A000BCCAF60180819181B4010E94FE338B016B
:1041B0000D5F1F4FA0909301B0909401F7EFAF1ADD
:1041C000FEEFBF0A612CC5010E94210E882349F031
:1041D000D5018D919C91B4010E94FE3306171707FB
:1041E00049F06394B9E0AB0EB11CEAE06E12EBCF7C
:1041F00066246A94D70115966C92BFEF6B1609F48A
:1042000095CAF70180818B7F88608083128211823A
:1042100025E030E03483238330E8398F89CA83FF77
:1042200058C0A0909301B090940115968C91082FDE
:1042300010E0A9E06A2EF501869DE00DF11D112424
:10424000CF01875F9E4F0E94210E811106C0C601DB
:104250000E94EC12F4E6F98F6BCA609EC001619E69
:10426000900D1124A80EB91EF501E75FFE4F808165
:1042700091814E97D6018D939C9332968081918146
:10428000CC97F7013297208131812817390714F430
:10429000B4E64DCAF501E35FFE4F808188608083FC
:1042A000319611821082E0EFAE1AEEEFBE0AD50110
:1042B0001D921C9286E391E00E94D60AF70180814C
:1042C000877F806180832BEF3FEF3483238334E645
:1042D000A4CF84FF39C080919301909194011596E9
:1042E0007C91F70169E09C01679F200D311D11242D
:1042F000D901A55FBE4F52914291485D5F4F4D93EA
:104300005C93408151814538BEEF5B073CF4F70177
:1043100020812E7F20830E94000B9CCF413C5E4F6A
:104320000CF0B6CF235F3E4FF901208120FFB0CFC4
:10433000769F800D911D1124875F9E4F0E94CE11A4
:10434000C6010E941B0E86CF85FFF2C9D1012D91B7
:104350003C91F60180819181EDEFFFEF281739073D
:1043600014F0E3E0F0E0D7011296FC93EE9311977E
:10437000D10112962D913C91F70132978081918164
:1043800028173907BCF426EF3FEFF7013483238366
:104390000E941D3163E070E00E94FE33019781F4BA
:1043A000F701838194819195819591099483838309
:1043B000F0E251CFD70114969C928E921397E8CFDA
:1043C00020E2298FB5C988E791E0E0C901961596EA
:1043D0008630910509F02DCA3CCA14968C91149729
:1043E000816014968C93E20FF31F9F0120523E4F81
:1043F000F80180819181A281B381F9018083918349
:10440000A283B38326CA00E0181619060CF444CA26
:1044100002E042CAD7011696BC92AE921597C0CA66
:10442000F701B086A782CCCAD7018C9181FFC8CA98
:104430000E941D3180FDC4CAF10180819181D801A3
:104440002D913C91821B930B1816190684F4F701E9
:1044500081819281181619060CF0B2CAF8014081C8
:10446000518162817381C1010E942F15A9CA892BD4
:1044700009F4A6CAD70111968D919C9197FFA0CA05
:10448000EDCF601B710B613471050CF485CBEA151F
:10449000FB0534F447E050E0F701528341837CCBC5
:1044A000E9EFFFEFD7011296FC93EE93119774CBCF
:1044B000EEEFFFEFD7011496FC93EE93139785CBA5
:1044C000D7018C9181FFA3C10E941D31B2010E94CE
:1044D000FE33892B09F09BC1F10120813181D60186
:1044E0008D919C9111972817390709F490C1F70114
:1044F00081819281181619060CF089C14D915D9148
:104500006D917C91C1010E942F155FCB30E020E0BE
:104510004DE0429FC001439F900D1124FC01EE54D9
:10452000FD4FEE0DFF1D309709F4D0CCD801129647
:104530002D913C9113974D915C91648161606483EE
:10454000E80EF91EF701EE54FD4F51834083BCE4A1
:10455000EB1ABDEFFB0AF70131832083B7CC21E0D2
:1045600030E0D6CF86FF12C0D70114968C911497F5
:104570008160877E14968C93149718961C921E92D5
:10458000179716961C921E921597A0CCF701EC5B1C
:10459000FF4FD12CC12C808180FD3CC02AE02C9D96
:1045A000C0012D9D900D1124805C9F4F8E0D9F1D8D
:1045B000009709F48BCCD8011296AD90BC9013975C
:1045C0008D909C90FC01248121602483D7011E964C
:1045D0002C91222349F10E94EC122AE02C9DC0016B
:1045E0002D9D900D11248E0D9F1DFC01E05CFF4F51
:1045F000918280828E5B9F4FFC01B182A082F70185
:10460000E252FD4F80818F5F8083349680818F5F7F
:1046100080835CCCBFEFCB1ADB0A3A9624E1C2164A
:10462000D10409F0B8CF52CC0E941B0ED6CF9E5FAA
:1046300015969C93382F307220E885FF20E2921760
:1046400008F444CC8E7FF8018483332309F43ECCF4
:10465000E0909301F0909401F701E352FD4F8081C7
:104660008E7F80833296808181508083882309F4F5
:104670008FC0D70111961C921E9213961C921E9207
:10468000129714968C911497827E856014968C9361
:10469000149718961C921E92179716961C921E92AB
:1046A0001597E0E4F1E05096FC93EE931F975701C5
:1046B000F0E4AF0EB11C670128EFC21A2EEFD20A48
:1046C000D50114968C9180FF0AC0C7010E943C134B
:1046D000F5019183808328E33FEF33832283D50163
:1046E00014968C9185FD03C0C5010E94EC12BAE0BE
:1046F000AB0EB11CCA14DB0419F7C7010E94B61334
:10470000C7010E9477135701E7EFAE1AEEEFBE0A1A
:104710006701FDE9CF1AFEEFDF0AD50114968C91EF
:10472000149780FF09C0E2E2F1E01396FC93EE9348
:104730001297C5010E940813F9E0AF0EB11CCA140C
:10474000DB0459F79701285D3F4FF701848D8E7F79
:10475000848F3A962E173F07C9F7F701E557FE4FAA
:10476000970129543E4F80818E7F80833B962E1780
:104770003F07C9F7F701EC51FE4F22E0E20EF21EAF
:1047800080818E7F80833596EE15FF05C9F79ECB1D
:1047900032E0309373019ACBE80EF91ED2CBFFEFD3
:1047A0006F1A7F0A0A5F1F4F26E06216710409F034
:1047B00062CBF101EB51FD4F8081882309F449C0A0
:1047C0008150808380FF1BC087EAA2960FB6F894C1
:1047D000DEBF0FBECDBFDF91CF911F910F91FF9034
:1047E000EF90DF90CF90BF90AF909F908F907F9091
:1047F0006F905F904F903F902F900C94F80A86EA4C
:10480000E4CF24513109D8012D933C9323CCB9E056
:10481000B89DF001B99DF00D1124DDC929E0289D56
:10482000F001299DF00D1124E20DF31DEE5DFD4F09
:104830004081518162817381898D9A8D0E94DB0E46
:104840009B01AC0100E0B70187EA91E00E943311BF
:10485000E5C9A2960FB6F894DEBF0FBECDBFDF91BB
:10486000CF911F910F91FF90EF90DF90CF90BF906D
:10487000AF909F908F907F906F905F904F903F9000
:104880002F9008958F929F92AF92BF92EF92FF92D6
:104890000F931F93CF93DF93CDB7DEB7A1970FB6DA
:1048A000F894DEBF0FBECDBF7C01FA01CB0119A287
:1048B000223008F42AE08E010F5D1F4F822E912CCA
:1048C000B12CA12CBF01A50194010E949832F901DD
:1048D000CA016A3074F5605DD8016E938D01232B97
:1048E000242B252B79F790E080E0109789F0FD01CB
:1048F00001900020E9F73197AF014A1B5B0BD7010C
:10490000ED91FC910280F381E02DB801C70109957A
:10491000A1960FB6F894DEBF0FBECDBFDF91CF9149
:104920001F910F91FF90EF90BF90AF909F908F904D
:104930000895695CD1CF0E94FA35EF92FF920F93F0
:104940001F93CF93DF93EC017B018A0188819981CA
:10495000009729F02A813B812417350788F4B80194
:104960006F5F7F4F0E943D35009791F09983888358
:104970001B830A832C813D81232B11F4FC011082BF
:104980001D830C83B701888199810E9408360CC071
:1049900088819981009711F00E94B434198218829D
:1049A0001D821C821B821A82CE01DF91CF911F9142
:1049B0000F91FF90EF9008950C941932CF93DF93ED
:1049C00000D000D0CDB7DEB785E190E00E9419326B
:1049D000898386E190E00E9419328A8387E190E022
:1049E0000E9419328B8388E190E00E9419328C83F7
:1049F00069817A818B819C810F900F900F900F902D
:104A0000DF91CF910895FF920F931F93CF93DF9380
:104A1000EC01F62E08811981C8010E941932F8169E
:104A200021F06F2DC8010E942132CE01DF91CF917C
:104A30001F910F91FF900895CF92DF92EF92FF9216
:104A40000F931F93CF93DF9300D0CDB7DEB76C01E8
:104A50007C0105E110E01A830983F70161917F0170
:104A6000CE0101960E9403250F5F1F4F09311105EA
:104A700091F7C6010F900F90DF91CF911F910F9189
:104A8000FF90EF90DF90CF9008951F920F920FB696
:104A90000F9211248F939F938091E1009091E100F8
:104AA000937F9093E10083FF0FC01092E90091E0A3
:104AB0009093EB001092EC0092E39093ED00109233
:104AC000920198E09093F00082FF22C093E09093CF
:104AD000E9009091F200992319F09AE39093E8008D
:104AE00090918301992341F090918301915090938B
:104AF0008301911101C05D9A90919101992341F038
:104B000090919101915090939101911101C0289A37
:104B100084FF18C08091E2008E7E81608093E20065
:104B20008091E1008F7E8093E100809184018E7EF0
:104B30008061809384019F918F910F900FBE0F90A1
:104B40001F90189580FFF7CF8091E2008E7E8061E4
:104B50008093E2008091E1008E7E8093E10080915D
:104B600084018E7E8160E5CF1F920F920FB60F9267
:104B70001124CF92DF92EF92FF920F931F932F9306
:104B80003F934F935F936F937F938F939F93AF93D5
:104B9000BF93EF93FF93CF93DF93CDB7DEB76C97BF
:104BA000DEBFCDBF1092E9008091E80083FF25C0F1
:104BB00068E0CE0145960E94030982EF8093E800E9
:104BC0008D8987FF39C09091E80090FFFCCF982F26
:104BD000907609F034C19E894F89588D2F89F88CC1
:104BE000911131C0803861F5809182018093F1008C
:104BF0001092F1008EEF8093E8006C960FB6F89457
:104C0000DEBF0FBECDBFDF91CF91FF91EF91BF917E
:104C1000AF919F918F917F916F915F914F913F9154
:104C20002F911F910F91FF90EF90DF90CF900F90F9
:104C30000FBE0F901F9018959EEF9093E800C7CF7E
:104C40001092F100D5CF913059F48111D3CF41307A
:104C5000510581F6809182018D7F80938201CACFB8
:104C6000933049F48111C6CF4130510519F6809136
:104C700082018260F2CF953041F48091E80080FF9C
:104C8000FCCF20682093E300B5CF963009F0A9C08F
:104C90000B8D1C8D22E01092E90010928001109281
:104CA0007F01F2122EC010927E0110927D010E94AF
:104CB000D2081F8299E09983FA8291E09E8390EA5C
:104CC00098879AEF998720917F0130918001275F23
:104CD0003F4F3C832B838D831092E900109280011B
:104CE00010927F0110937E0100937D0149E050E016
:104CF000BE016F5F7F4F80E00E94AC080E94D20827
:104D000079CF10937E0100937D010E94E907DC01B9
:104D100012960D911C910115110509F451C1D8018C
:104D2000ED91FC910480F581E02DBE016B5E7F4F1B
:104D3000C8010995009709F03EC1F8010085118569
:104D4000EACFF3E0FF120EC08F89882309F440C038
:104D5000823061F440E860E189E99BE00E9491289B
:104D6000811148CF81E28093EB0047CF813029F455
:104D700040E86BE08DE89BE0F1CF833099F70E942B
:104D8000E907DC011296ED90FC908E010F5F1F4F3A
:104D90006801E114F10479F0D701ED91FC910680EE
:104DA000F781E02DB801C7010995080F111DF70122
:104DB000E084F184EECFD8011C92F601019000202E
:104DC000E9F73197BF016C197D0940E0C601C6CFF4
:104DD00067E77BE0FB01449150E080E80E94AC086B
:104DE00009CF973009F4BECF983021F481E0809349
:104DF000F10000CF993009F0FDCE837009F0B2CFF9
:104E0000E7E1F1E081E031E096E32191222371F0C6
:104E10008093E9003093EB00DF0111972C912093F0
:104E2000EC009093ED008F5F873079F78EE78093E9
:104E3000EA001092EA008F8980939201DBCE8B8D7D
:104E40009C8D1092E9001092800110927F01909346
:104E50007E0180937D01898D811192C08E899D890B
:104E6000913A49F4813209F07DCF47E050E064E0A7
:104E700071E080E0B3CF913209F074CF833269F4EE
:104E80008F89988DB0E0A0E080930001909301019C
:104E9000A0930201B0930301ADCE803269F48091FA
:104EA000E80082FFFCCF67E084E091E00E94030904
:104EB0008BEF8093E8009ECE823209F09BCE8F89E3
:104EC00080930B01EEEFFFE7859194918B3F9C4D12
:104ED00051F1E0E0F8E08091040190910501A0918A
:104EE0000601B0910701803B9440A105B105F1F4A2
:104EF00080910B0180FD1AC0EE3F8AE0F80789F52A
:104F000087E797E791838083809160008093810198
:104F100088E19BE00FB6F894A895809360000FBEDF
:104F20009093600067CEEEEFFAE0D5CF808191815B
:104F30008737974709F05ECEA89580916000886119
:104F4000809360008091810180936000EE3F2AE0B1
:104F5000F20789F08091FE0A9091FF0A9183808385
:104F600049CE808191818737980751F29093FF0A4B
:104F70008093FE0AC5CF1092FF0A1092FE0A3ACE25
:104F80000E94E907DC0112960D911C910115110593
:104F900009F4E8CED801ED91FC910190F081E02D6B
:104FA000BE016B5E7F4FC8010995811123CEF801C8
:104FB00000851185EBCF181619060CF41BCED2CE46
:104FC000F1E0FF12BECE6BE77BE004CF1F920F92A1
:104FD0000FB60F9211242F933F938F939F93AF930C
:104FE000BF938091750190917601A0917701B09166
:104FF00078013091740123E0230F2D3758F5019685
:10500000A11DB11D209374018093750190937601C9
:10501000A0937701B09378018091790190917A0102
:10502000A0917B01B0917C010196A11DB11D8093DF
:10503000790190937A01A0937B01B0937C01BF9199
:10504000AF919F918F913F912F910F900FBE0F9035
:105050001F90189526E8230F0296A11DB11DD2CFEF
:105060001F920F920FB60F9211242F933F934F93DD
:105070005F936F937F938F939F93AF93BF93EF93C0
:10508000FF9380916A0190916B01A0916C01B091A6
:105090006D01892B8A2B8B2B09F440C0809169010B
:1050A00081110BC088B190E4892788B9809168018B
:1050B000882319F088B1805888B980916A0190914D
:1050C0006B01A0916C01B0916D01181619061A06BA
:1050D0001B069CF480916A0190916B01A0916C0178
:1050E000B0916D010197A109B10980936A01909374
:1050F0006B01A0936C01B0936D01FF91EF91BF9193
:10510000AF919F918F917F916F915F914F913F915F
:105110002F910F900FBE0F901F9018950E942E0A8E
:10512000ECCFEF92FF920F931F93CF93DF93F82E64
:10513000192FE62E042F81E0860F880F0E947E082B
:1051400083E00E947E08CF2DD12FEC0EFD2EF11CA6
:10515000CE15DF05B9F007FF13C0FE0184910E9450
:105160007E08182F80E00E947E08812321968111FD
:10517000EFCFDF91CF911F910F91FF90EF900895A6
:105180008881EDCF81E0F5CF0F931F93CF93DF930D
:105190008C0181E090E00E94DC2480FF32C08AE034
:1051A00090E00E94DC249FEF980F9E3F50F522E391
:1051B00030E0D80150963C932E931F9728E330E0BF
:1051C00052963C932E935197CBE0D0E0D801ED91CD
:1051D000FC910190F081E02D682FC8010995CE0166
:1051E0000E94DC242196C131D10581F780E00E9424
:1051F0009F0788EE93E0DF91CF911F910F910C9460
:10520000EB0ADF91CF911F910F91089504970C94B1
:10521000C428E5E9F5E01382128288EE93E0A0E06D
:10522000B0E084839583A683B78381E291E0918384
:1052300080838FEF9FEF95878487ECEFF5E01382F3
:1052400012821186128680E1838710861782158666
:105250008FE391E0918380838DE491E09583848353
:10526000108A1786128A118A81E0838B148A858BB3
:10527000168AE5EFF5E01382128283E391E09183D1
:10528000808315821682148282E896E09093F4055A
:105290008093F30580E090E89093F2058093F10508
:1052A00046983E9A47983F9A0895CF93DF93CDB79B
:1052B000DEB7AA970FB6F894DEBF0FBECDBF7894C5
:1052C00084B5826084BD84B5816084BD85B582600B
:1052D00085BD85B5816085BD80916E0081608093BC
:1052E0006E00109281008091810082608093810025
:1052F0008091810081608093810080918000816035
:1053000080938000809191008260809391008091D1
:1053100091008160809391008091900081608093E2
:1053200090008091C10084608093C1008091C10091
:1053300082608093C1008091C10081608093C10030
:105340008091C30081608093C3008091C00082601F
:105350008093C0008091C20081608093C2008091E0
:105360007A00846080937A0080917A0082608093D2
:105370007A0080917A00816080937A0080917A002F
:10538000806880937A0010929201109282011092AC
:1053900084018091D70081608093D70080EA809358
:1053A000D80089B5806189BD89B5826089BD09B49D
:1053B00000FEFDCF61E070E080E090E00E943509E2
:1053C0008091D8008F7C80618093D8008091E0002C
:1053D000807F8093E0008091E1008E7E8093E100E9
:1053E0008DE08093E200559A209A81EC80937C00B6
:1053F00085B1806F85B984B1877E84B984B1876EA9
:1054000084B95E9A5F988AB1806D8AB9769A6E98EF
:1054100081B3806F81BB899880B38D7080BB80E53C
:105420008CBD81E08DBD85E090E00E94EB0A5F9A23
:1054300085E090E00E94EB0A5E985C98EAE1F9E072
:1054400087E299E024912EBD00000DB407FEFDCF48
:1054500031968E179F07B1F75C9A81E880936400BC
:105460008091650081608093650080E00E949F07C5
:105470000E94F00A02E010E087FF10C085EA0E9457
:10548000F80A2E982F982D9880916400806280935E
:10549000640081E083BF889513BEFCCF0E94F00AB0
:1054A00082FF40C02D980E94F00A84788438C1F4AD
:1054B0000E94E90A88EC90E00E94EB0A2F981A8378
:1054C00009836FEFCE0101960E94032584EF91E0DE
:1054D0000E94EB0A2F9A0E94F00A84788438D9F34C
:1054E0000E94F00A84718431C1F40E94E90A88ECB8
:1054F00090E00E94EB0A2E981A83098360E0CE01A7
:1055000001960E94032584EF91E00E94EB0A2E9AF7
:105510000E94F00A84718431D9F388EC90E00E94F3
:10552000EB0ABCCF0E94E90A82E090E00E94DC24F2
:10553000882309F48BC00E94410B81E090E00E9417
:10554000DC24182F147081FF0EC011112E9820EF4B
:10555000E22EFF24FA940E94F00A86FF7AC02E9A67
:105560002F9A0E94E90A82E390E00E94EB0A0E94CF
:10557000F00A8111F8CF80E190E00E94DC248436AB
:10558000C1F481E190E00E94DC24863691F482E14E
:1055900090E00E94DC248E3661F483E190E00E946A
:1055A000DC24843631F484E190E00E94DC248133F1
:1055B00051F185E090E00E941834FC0184E680837C
:1055C00096E691839EE69283838381E384838F01B1
:1055D00090E1E92EF12CD8016D918D01FA82E982DA
:1055E000CE0101960E940325BFEFEB1AFB0AE5E10D
:1055F000EE16F10481F719821A821B821C82CE01F9
:1056000001960E941C25CE0101961C018FB7F894CB
:105610004091750150917601609177017091780108
:105620008FBF80910806942F981B892F109109062F
:10563000112309F440C090930A061092090680E0F5
:1056400090E0892B19F30E940000E0CF0E943C0BF0
:1056500074CF112331F024E0E216F10411F42E9AF4
:105660002F9881E00E949F0700E128E54AE658E074
:10567000B70184E190E00E94E00680E00E949F076D
:105680008FE090E00E94EB0A8FEFE81AF80A99E1A8
:10569000E916F10409F05FCF112311F02F9A2D982C
:1056A00080E991E00E94EB0A0E94E90A8CEF95E004
:1056B0000E94C42858CF90910706891748F48F5F3D
:1056C000891708F0BCCF81E083BF889513BEB7CFA0
:1056D00081E080930906409308068091030690912B
:1056E00004060196909304068093030680910506B4
:1056F000809306060E94F00A80930506E5E9F1E032
:1057000011111FEF0024119311931193119303941E
:10571000D1F710920E0610920D0610920C06109200
:105720000B0680917301813049F008F4EFC3823099
:1057300009F4B1C480E00E949F0781CF809193015A
:1057400090919401892B09F03DC180917101909154
:1057500072010E94B434109272011092710186EEAF
:1057600092E00E9418348C0189E0F82ED801EF2DC8
:105770001D92EA95E9F7C8010E94120FD801199607
:105780001C92199713961C921E92129711961C92B6
:105790001E9214968C911497846014968C93F80141
:1057A00012861386148615868AE08687C8010F96AE
:1057B000DC011D92FA94E9F70E94120F7801B8E11A
:1057C000EB0EF11C6701E8E2CE0ED11CC7010E946E
:1057D000120FFAE0EF0EF11CEC14FD04B9F778019A
:1057E00020E4E20EF11C680188EFC81A8EEFD80A97
:1057F000C7010E94120F9AE0E90EF11CCE14DF04DB
:10580000B9F76801A7EFCA1AAEEFDA0A7801BDE965
:10581000EB1ABEEFFB0AB9E0BB2EF6012B2D11925D
:105820002A95E9F7C6010E94120F89E0C80ED11C23
:10583000EC14FD0491F7F701C701849611821082E0
:105840001382128214823696E817F907B9F77801A5
:1058500099E7E91A9EEFF90A6701ACE2CA0ED11C7A
:10586000A9E0BA2EF7012B2D11922A95E9F7C7016D
:105870000E94120F8BE0E80EF11CEC14FD0491F76E
:1058800078019DE4E91A9EEFF90A6701ADE2CA0EBC
:10589000D11CC7010E94120FB9E0EB0EF11CCE140F
:1058A000DF04B9F7F801E052FE4FCF014E961182A6
:1058B00010821382128214823596E817F907B9F71D
:1058C0007801E2E0EE1AEEEFFE0A6701F4E2CF0E95
:1058D000D11CC7010E94120F29E0E20EF11CEC144A
:1058E000FD04B9F768018EEDC81A8DEFD80A78016A
:1058F0009EE4E91A9DEFF90AC6010E94120FA9E081
:10590000CA0ED11CEC14FD04B9F76701B7E2CB0E47
:10591000D11CC7010E94120FF7011286118614864E
:105920001386FDE0EF0EF11CCE14DF0491F7F801B1
:10593000E752FD4F80E197E2A0E0B0E080839183E1
:10594000A283B383349610823196108283E031961D
:105950008083319680833196108231961082319601
:105960001182108232961082809164008E7F809323
:10597000640080917A00806480937A0080917A003C
:1059800086FDFCCFE0907800F09079000E9410092D
:10599000AB01BC0180916400816080936400C70109
:1059A000B0E0A0E0DC0199278827840F951FA61F8F
:1059B000B71F0E942231C8010E941B14109394014A
:1059C000009393010091930110919401680193E277
:1059D000C91A9DEFD90AD6018C9182FFDBC0E9E19B
:1059E000F0E0F0930C06E0930B0684E190E09093D6
:1059F0000E0680930D068AE399E00E94EB0C780175
:105A00009FE1E91A9DEFF90AD7014C9150E070E04F
:105A100060E02AE08CEF95E00E944224E5E2F0E0AD
:105A2000F0930C06E0930B0680E290E090930E0654
:105A300080930D0680E399E00E94EB0C8FE190E0EB
:105A400090930C0680930B06A2E3B0E0B0930E0691
:105A5000A0930D06F701E080F4E6EF9E700111249B
:105A600025EFE21621E0F20624F0E4EFEE2EFF240B
:105A7000F39487E299E00E94EB0C2AE0A7010F2C37
:105A8000000C660B770B8CEF95E00E944224D80146
:105A90001E968C91BAE08B9FC00111245801EDE154
:105AA000AE1AEDEFBE0AD5012D913C91821B930BEE
:105AB0006AE070E00E94EA33762E812C7FE1972E17
:105AC000871468F4892D90E02DE330E0AC016BE39E
:105AD00070E00E94650B8394B6E09B0EF1CFF50158
