:100000000C9458060C9480060C9480060C94800680
:100010000C9480060C9480060C9480060C94800648
:100020000C9480060C9480060C94D8250C944A26D7
:100030000C9480060C9480060C9480060C94800628
:100040000C9480060C9480060C9480060C94800618
:100050000C9480060C9480060C9480060C949C19D9
:100060000C9480060C9480060C9480060C948006F8
:100070000C9480060C9480060C9480060C948006E8
:100080000C94E6190C9480060C9480060C9480065F
:100090000C9480060C9480060C9480060C948006C8
:1000A0000C9480060C9480060C948006F4013200B7
:1000B000FA003200AF0032004B003200008002082C
:1000C00002070808020707060602020201010101F1
:1000D0000101000001010100010100010101000016
:1000E0000101010101010000000101010100010104
:1000F00001010000010101000101010001000101F5
:10010000000101010000010101010101DC051900EC
:10011000FA001900DC051900FA001900DC051900C5
:10012000FA001900DC051900FA001900DC051900B5
:10013000FA001900DC051900FA001900DC051900A5
:10014000FA001900DC051900FA0019000080070800
:1001500024160D3F0D16240708241609310916240C
:100160000808F8FEDAFAFA427E00080802050705D8
:10017000050705020708082A1C7F1C2A0805080C29
:100180000A0F0A0C03080502050308020702F0F82B
:100190009C8E8783878E9CF8F00000FEFF0303038C
:1001A0000303070EFCF80000FEFF0303030303072D
:1001B0000EFCF80000FFFF00000000000000FFFF41
:1001C0000000FEFF8383838383C7EE7C380000F842
:1001D000FC0E07030303070EFCF800003F7FE0C09E
:1001E0008080C0E07F3FFFFF01010101010101FFAD
:1001F000FF0000FFFF0C0C0C0C1C3E77E3C100005D
:100200007FFFC0C0C0C0C0E0703F1F00001F3F7034
:10021000E0C0C0C0E0703F1F00007FFFC1C1C1C18E
:10022000C1E3773E1C00001F3F70E0C0C0C0E0701B
:100230003F1F000000000001FFFF01000000D5F09B
:100240008D14A1C881CFD9F1AF2000424F4E555334
:1002500020582000434F4D504C45544544004154D4
:100260005441434B20574156452000202E2E2E202E
:1002700056455253494F4E20312E30202E2E2E20DF
:10028000425920414C4558204D43434845534E4523
:1002900059202E2E2E2057415348494E4755502E57
:1002A000495443482E494F202E2E2E2000484947BE
:1002B000482053434F52453A2000534F554E443A3D
:1002C0004F464600534F554E443A4F4E005354410B
:1002D0005254007C18FFFFFFFF1F1F1FFFFFFFFE90
:1002E00000FFFFFFFF9F9F9F9F9F1F1F0000FFFFBB
:1002F000FFFF9F9F9F9F9F1F1F00FFFFFFFF9F9F6D
:100300009F9F9F1F1F00FFFFFFFF1F1F1FFFFFFF7C
:10031000FE0000FFFFFFFF1F1F1FFFFFFFFE00008B
:10032000FFFFFFFF000000FFFFFFFF00001F1F1F78
:10033000FFFFFFFF1F1F1F1F00FFFFFFFF1F1F1FEC
:10034000FFFFFFFE0000FEFFFFFF1F1F1FFFFFFF5D
:10035000FEFFFFFFFFC0C0C0FFFFFFFF00FFFFFF6A
:10036000FFCFCFCFCFCFC0C00000FFFFFFFF0F0FE9
:100370000F0F0F000000FFFFFFFFCFCFCFCFCFC089
:10038000C000FFFFFFFF000000FFFFFFFF0000FFB6
:10039000FFFFFFC0C0C0FFFFFFFF0000FFFFFFFF28
:1003A000C0C0C0FFFFFFFF0000C0C0C0FFFFFFFFD5
:1003B000C0C0C0C000FFFFFFFF000000FFFFFFFF45
:1003C0000000FFFFFFFFC0C0C0FFFFFFFF070707E0
:1003D00007070707070707030007070707070707B8
:1003E00007070707000007070707000000000000D5
:1003F00000000707070707070707070707000707A2
:10040000070700000007070707000007070707079F
:100410000707070707030000030707070707070782
:10042000070707000007070707070707070707076A
:10043000000707070700000007070707000003077A
:10044000070707070707070703FF00640000804747
:10045000414D45204F5645520032006400FA006479
:1004600000960064005E016400FA006400C201644A
:10047000005E01640026026400C20164008A026416
:100480000026026400EE0264008A026400520364E3
:1004900000EE026400B60364000080DC05AF00E2F9
:1004A000049600E8037D00EE026400F4014B00FABC
:1004B000003200640019000080B9B9B9B999F79BFE
:1004C000B99BB9B9993715110DEBEFF3F7B9391796
:1004D00093F3F7B9B9B919F7B9B9B9391793F3F76C
:1004E000B9B9B9B91915110DC9EBEFF3F7B9B9B924
:1004F0003917F5B9B919F7B9B9B9B93B1915F1F502
:10050000B9B9B9B919F79B191591F135F3F7B9B91B
:10051000B9795B5B5B5B5B9B395999B7B7B73715AB
:10052000F31775955515118DEDF1F5799997959509
:1005300075B7D999395735B3D5D799171533F1F51B
:1005400037F5793917339313CF0FCB0DA98B2B09BF
:10055000070541E1C5A7E9CDEFB3F59777F91BF79B
:10056000B99BB9795B5B5B5B5B5B5B5BB9B9B939C9
:10057000595A5A5A5A5A5A5A5AB8B8B8B818749650
:1005800076B6785A9A1A369614304E6EF0947454A1
:10059000F4781A969432106ED050EEF2D4F65A5A7D
:1005A0005A5A5A1A5858B6789ABA7A5A5A5A5A5AB5
:1005B0001A16F4F85A5A5A5A5A3C003E0032000AA7
:1005C0000019000A004B000A0016000A00C8000AC1
:1005D0000064000A0042000A0021000A00AF000A7D
:1005E00000C8000A0048000A0032000A0019000A88
:1005F000004B000A0016000A00C8000A0064000A46
:100600000042000A0021000A00AF000A00C8000AE8
:100610000048000A00008096000A007D000A00AF32
:10062000000A007A000A002C010A00C8000A00A68D
:10063000000A0085000A0013010A002C010A00AC20
:10064000000A0032000A0019000A004B000A0016D6
:10065000000A00C8000A0064000A0042000A0021E3
:10066000000A00AF000A00C8000A0048000A003271
:10067000000A0019000A004B000A0016000A00C810
:10068000000A0064000A0042000A0021000A00AFCC
:10069000000A00C8000A0048000A00008032000A70
:1006A0000019000A002D000A0016000A0046000A80
:1006B0000064000A0042000A0032000A004B000AEF
:1006C0000096000A0078000A0050000A00AF000AF5
:1006D00000C8000A0064000A007A000A00FA000A52
:1006E000007D000A00A6000A00E9000A00AF000A27
:1006F000002C010A00AC000A00C9000A002C010A03
:1007000000C8000A00B4000A0040010A000080008E
:10071000000000003E5B4F5B3E3E6B4F6B3E1C3E5D
:100720007C3E1C183C7E3C181C577D571C1C5E7F71
:100730005E1C00183C1800FFE7C3E7FF00182418F0
:1007400000FFE7DBE7FF30483A060E262979292625
:10075000407F050507407F05253F5A3CE73C5A7F0F
:100760003E1C1C08081C1C3E7F14227F22145F5F65
:10077000005F5F06097F017F006689956A6060609F
:10078000606094A2FFA29408047E040810207E20DA
:100790001008082A1C08081C2A08081E101010102F
:1007A0000C1E0C1E0C30383E3830060E3E0E060075
:1007B0000000000000005F00000007000700147F39
:1007C000147F14242A7F2A122313086462364956A0
:1007D00020500008070300001C2241000041221C99
:1007E000002A1C7F1C2A08083E0808008070300080
:1007F0000808080808000060600020100804023E95
:100800005149453E00427F400072494949462141D5
:10081000494D331814127F1027454545393C4A4944
:100820004931412111090736494949364649492983
:100830001E00001400000040340000000814224193
:100840001414141414004122140802015909063E1C
:10085000415D594E7C1211127C7F494949363E4117
:100860004141227F4141413E7F494949417F090938
:1008700009013E414151737F0808087F00417F41D3
:10088000002040413F017F081422417F404040400A
:100890007F021C027F7F0408107F3E4141413E7F62
:1008A000090909063E4151215E7F09192946264959
:1008B00049493203017F01033F4040403F1F204030
:1008C000201F3F4038403F6314081463030478043A
:1008D000036159494D43007F414141020408102002
:1008E000004141417F040201020440404040400079
:1008F0000307080020545478407F28444438384483
:10090000444428384444287F385454541800087EFE
:10091000090218A4A49C787F0804047800447D4050
:10092000002040403D007F1028440000417F4000EF
:100930007C047804787C080404783844444438FC07
:100940001824241818242418FC7C0804040848548B
:1009500054542404043F44243C4040207C1C204048
:10096000201C3C4030403C44281028444C9090903F
:100970007C4464544C440008364100000077000079
:10098000004136080002010204023C2623263C1ED8
:10099000A1A161123A4040207A385454555921554A
:1009A000557941215454784121555478402054556B
:1009B00079400C1E527212395555555939545454B8
:1009C0005939555454580000457C410002457D4238
:1009D0000001457C40F0292429F0F0282528F07CEE
:1009E000545545002054547C547C0A097F493249AF
:1009F0004949323248484832324A4848303A4141FF
:100A0000217A3A42402078009DA0A07D3944444498
:100A1000393D4040403D3C24FF2424487E49436604
:100A20002B2FFC2F2BFF0929F620C0887E090320DD
:100A3000545479410000447D413048484A3238409E
:100A400040227A007A0A0A727D0D19317D26292901
:100A50002F28262929292630484D40203808080803
:100A60000808080808382F10C8ACBA2F102834FA24
:100A700000007B000008142A142222142A1408956E
:100A800000220095AA005500AAAA55AA55AA00005E
:100A900000FF00101010FF00141414FF001010FFCE
:100AA00000FF1010F010F0141414FC001414F700E0
:100AB000FF0000FF00FF1414F404FC141417101FAF
:100AC00010101F101F1414141F00101010F000003D
:100AD00000001F101010101F10101010F010000058
:100AE00000FF101010101010101010FF1000000068
:100AF000FF140000FF00FF00001F10170000FC049F
:100B0000F414141710171414F404F40000FF00F781
:100B100014141414141414F700F7141414171410E4
:100B2000101F101F141414F4141010F010F0000013
:100B30001F101F0000001F14000000FC140000F034
:100B400010F01010FF10FF141414FF141010101FD9
:100B500000000000F010FFFFFFFFFFF0F0F0F0F0EA
:100B6000FFFFFF0000000000FFFF0F0F0F0F0F3807
:100B7000444438447C2A2A3E147E02020606027E41
:100B8000027E0263554941633844443C04407E2060
:100B90001E2006027E020299A5E7A5991C2A492A71
:100BA0001C4C7201724C304A4D4D30304878483000
:100BB000BC625A463D3E494949007E0101017E2AF8
:100BC0002A2A2A2A44445F444440514A444040442B
:100BD0004A51400000FF0103E080FF000008086B5D
:100BE0006B083612362436060F090F060000181857
:100BF0000000001010003040FF0101001F01011E25
:100C000000191D1712003C3C3C3C00000000004B4A
:100C100000320032003200008003081F111F001F45
:100C2000001D151711151F07041F17151D1F151D72
:100C300001011F1F151F17151F080B0002020201DB
:100C40000009040000010202000005240010010553
:100C50002401010104240206052406000107058180
:100C60000310004009040100020A00000007050209
:100C7000024000000705830240000004030904123B
:100C8000010002EF0201404123368000010102030E
:100C90000141726475696E6F204C4C43004172646F
:100CA00075696E6F204C656F6E6172646F005831AC
:100CB00011241FBECFEFDAE0DEBFCDBF11E0A0E010
:100CC000B1E0ECE6FEE602C005900D92A036B10759
:100CD000D9F726E0A0E6B1E001C01D92A731B20726
:100CE000E1F716E0C8E5D6E004C02197FE010E94B6
:100CF0002235C735D107C9F70E9457290C943437DC
:100D00000C9400002F923F924F925F926F927F92CD
:100D10008F929F92AF92BF92CF92DF92EF92FF920B
:100D20000F931F93CF93DF93CDB7DEB7AD970FB679
:100D3000F894DEBF0FBECDBF1C014C012FE2821A1A
:100D40002DEF920AD4018C9181708F8FF101EB52BB
:100D5000FD4F8081813011F024E101C02FE0BF8D73
:100D6000B11186C0810109521D4FF8018081918126
:100D7000009709F079C035973081321708F044C0E8
:100D8000722E731AF4E0F71510F444E0742E512C0F
:100D9000710124E4E20EF11C2AE0622E38E3C32E36
:100DA000DD24DA94571409F456C0F70120E030E04E
:100DB000808180FD0CC0629EC001639E900D112455
:100DC000805C9F4F820D931D892B41F41BC02F5FC8
:100DD0003F4F3A962431310559F714C0C1010E94A2
:100DE000211D5C01C1010E943B29009759F0DC01E3
:100DF0001196BC92AE921396DC92CE92129761E05D
:100E00000E94831C5394CECFF101E655FD4F208103
:100E100020FD24C04DE0489F9001499F300D1124D2
:100E2000C9018A559D4F820D931D892B09F1C1017E
:100E30000E94211D7C01C1010E943B29009759F0AD
:100E4000DC011196FC92EE9213961C921E92129760
:100E500062E00E94831C88E592E007C001963D96FF
:100E600083309105A1F604C00197F8019183808336
:100E7000D10114968C91149780FFABC283FF46C0BA
:100E800019969C911997915019969C9319979111C5
:100E90002FC0FD014191519161917191CF0123E0EA
:100EA0000E94801F69E170E0809165019091660168
:100EB0000E94071800E010E099E0F92E40916501CA
:100EC00050916601F09E9001F19E300D1124FA01BF
:100ED000E20FF31FE35FFE4F90819172913211F4A4
:100EE0000C942B140F5F1F4F0A30110539F7D5C131
:100EF000937009F0D2C184FD05C08061D1011496C0
:100F00008C93CBC18F7EF1018483C7C1C1010E9444
:100F1000CB1CD10112968D919C9113976AE070E0E1
:100F20000E940E358B010E94601A87FD02C00C944E
:100F30003414013EBFEF1B0714F40C943414F10178
:100F4000828193810A97938382830E94601A86FF2D
:100F500015C0F101848182FD02C084608483D101C7
:100F600015968D919C91169702968531910504F105
:100F700084E190E0F1019683858332C00E94601A7B
:100F8000D10115962D913C91169785FF16C01496A8
:100F90008C91149782FF03C08B7F14968C93225000
:100FA00031092C3EBFEF3B076CF48CEE9FEFD10173
:100FB00016969C938E93159713C01216130634F44D
:100FC00021503109F101368325830AC021153105ED
:100FD00039F02F5F3F4FD10116963C932E93159712
:100FE00084E00E94D822882309F469C0C09065017A
:100FF000D0906601F6017C96A12CB12C808180FDF9
:1010000010C08AE08A9D80018B9D100D112478010B
:10101000B8E1EB0EF11CEC0CFD1CE114F10451F4F1
:101020004EC02FEFA21AB20A3A9644E0A416B104B9
:1010300029F745C08CEA90E00E94461AF601E00FBD
:10104000F11FD10112968D919C9113970A96938F5F
:10105000828F14962C91149715966D917C9116970A
:101060008D919C9122FF07C0805B9F4F918F808F55
:10107000625E7F4F05C00A97918F808F6E51710914
:10108000072E000C880B990B0E947932F70114810E
:1010900011604AE04A9D90014B9D300D1124C20E13
:1010A000D31E21E0D60191962C930E94B834F6010C
:1010B000768F658F1B7F1860D70114961C9388E08C
:1010C0000E94D822882309F4E8C00E94601A82FD99
:1010D00094C00091650110916601F801EC52FD4F3A
:1010E0008081882309F4D9C0D801A752BD4F9C91B3
:1010F0009111D3C09AE09C93815080837801B4E42D
:10110000EB0EF11C6801E4EFCE1AEEEFDE0AD70118
:101110008C918370833011F40C944B14BAE0EB0E75
:10112000F11CEC14FD0499F73801E5E56E1AEEEFB9
:101130007E0A6801F8E2CF1AFEEFDF0A7301D701D9
:101140008C918370833011F40C945114B9E0EB0E40
:10115000F11CEC14FD0499F72801EAE04E1AEEEFB9
:101160005E0A5801F6EEAF1AFDEFBF0A7201D70111
:101170008C918370833011F40C945A14B9E0EB0E07
:10118000F11CEA14FB0499F77801E6E5EE1AEDEF9D
:10119000FE0AD5018C918370833011F40C946A148B
:1011A000B9E0AB0EB11CAE14BF0499F75801EFE2E1
:1011B000AE1AEDEFBE0AD7018C918370833011F423
:1011C0000C947314BDE0EB0EF11CEA14FB0499F7C8
:1011D000F801E158FE4F80818E7F80833B96E615B3
:1011E000F705C9F7F60180818E7F8083F5E0CF0E89
:1011F000D11CC414D504B1F750C0D10118961C926B
:101200001E92179716961C921E9215970E942D32C9
:1012100060E078E20E940E35F101918380830E94A4
:101220002D326EE472E00E940E3587529140D1015A
:1012300013969C938E9312970E942D32F101948104
:1012400080FD03C09460948302C09B7F94830091CF
:10125000650110916601C1010E945C1CF801908B30
:101260008787C8010E943B290097B9F0D1011496E5
:101270002C9114972E7F14962C9314972D913C91BA
:101280001197FC013183208312962D913C91139785
:101290003383228364E00E94831C8101015F1F4F1E
:1012A000C8010E94CB1CC1010E945C1CFC01D10141
:1012B0001F962D913C91509728173907E9F1821B11
:1012C000930B6AE070E00E940E3577FF08C06D3F17
:1012D000BFEF7B07C4F461157E4F3CF40CC0643053
:1012E00071058CF06130724034F02E513109F101FA
:1012F000308B27870DC0225E3F4FD10150963C9323
:101300002E931F9705C0D1015096FC93EE931F9723
:10131000F101278530892115F8E23F073CF038526A
:10132000D10150963C932E931F9706C037FF04C0FF
:10133000385DF101308B2787D1014D915D916D9121
:101340007C91C8010E94721D6B017C01F101248116
:1013500024FD33C022FB222720F981E0282700E06A
:10136000B701A60182EC90E00E94DC1F0E94601A87
:1013700086FF05C08091930580FF06C01EC00E94B5
:10138000601A85FDF7CF19C00E942D320E942D32C0
:10139000F101848182FB882780F921E028278111CF
:1013A0000C947C1489E090E08C0D9D1DAC01B7017C
:1013B00000E08EEB90E00E94DC1FD10112968D912F
:1013C0009C911397F40180369F4FBCF4808182601A
:1013D0008083C1014C969EA38DA3710191E2E90E19
:1013E000F11CCDA0DEA0A12CB12C1AE04101AFE090
:1013F0008A0E911C80E4782E3FC080818D7FE8CFDB
:10140000BF8DBB23F1F11A9DF0011B9DF00D11243E
:10141000E20DF31D408D518D628D738DC4010E94CC
:10142000721DDC01CB018038910528F0F601208186
:101430002460277F2083F601218132811216130652
:10144000ECF5F7012081422F50E0FC01E41BF50B85
:1014500001E04CEC50E0BD01CF010E94BE23FFEF44
:10146000AF1ABF0A2AE0C20ED11C4AE0E40EF11CFA
:1014700064E0A616B10449F1D6018C9180FFEFCF4C
:10148000BFCFC70109970E94CB1CF6018081D7010D
:1014900082FD07C08C918E5F803470F0F7017082FE
:1014A000B2CF8C91833030F41C92F60180818E7F14
:1014B0008083A9CF8250D7018C93A5CF01E0F7019B
:1014C00020814CEC50E0BD01C8CFD1011E968C911B
:1014D000811122C07101B4E4EB0EF11C6101E0E462
:1014E000CE0ED11C3101F9E46F0E711C812C912CB0
:1014F000C1010F969AA389A3D1015896BCA3ABA3AF
:1015000013E0412E512C0AE0A02EB12CF101E85F2E
:10151000FE4FFEA3EDA3E5C1D1011F968D919C91D5
:1015200050976AE070E00E940E35F101E85FFE4FCF
:10153000FAA3E9A39B012054310937FD3C5FC9019F
:1015400064E070E00E940E358C011127882311F0B1
:10155000201B310BC90137FD03969595879595950D
:101560008795982E119501951109E92DF0E0E75422
:10157000FB4FE490FE2DFF718F2E6F2F70E06D5D9D
:101580007F4F41E0C8010E94C41AA5E0AA2EB12CE9
:10159000F12C680124E0C21AD108C7010A2C02C04C
:1015A000959587950A94E2F780FF02C0839401C065
:1015B0008A94682D70E06D5D7F4F41E0C6018A0D11
:1015C0009B1D0E94C41A4FEFA41AB40A68E0A61625
:1015D000B10419F793940C5F1F4F003811052CF2DA
:1015E000410183EF881A8EEF980A610197EFC91ABB
:1015F0009EEFD90A412C512CD1011F96B8A7AFA359
:10160000FAE06F2E712CF101EC5BFF4FFAA7E9A70E
:10161000D4018C9180FF56C1BF8DB111D4C0C601D9
:101620000E94CB1CF401808184FF39C08091930516
:101630009091940587709927892B29F4838194814F
:10164000019694838383D6018D919C91B3010E946E
:101650000E3589A19AA10E945715282FF601828183
:101660009381B3010E940E352D51822F90E06817AF
:1016700079070CF4A8C0D40113968D919C9114970E
:10168000089724F0C6010E94EB159DC06AEF70E038
:1016900080916501909166010E94071864C085FFE2
:1016A00066C0F101808191814E96D60111969C937E
:1016B0008E9322813381285D3F4F13963C932E9366
:1016C0001297B3010E940E3589A19AA10E94571565
:1016D00013EE180FF60182819381B3010E940E353B
:1016E000812F90E0681779070CF46DC064EF71E00A
:1016F00080916501909166010E940718FAE01F9F92
:10170000C0011124D60113969C938E9312972091B9
:101710006501309166017901B7EFEB1ABEEFFB0A64
:101720002D593E4FF701EC15FD05C9F0848180FF6E
:1017300016C0D6010D911C9180819181B3010E9448
:101740000E355B01C801B3010E940E35A616B7061F
:1017500031F404511109F60111830083E3CF399666
:10176000E217F30701F7C6010E941E162CC083FD85
:101770002AC0F60180819181B3010E940E3589A1B2
:101780009AA10E945715D4019C9192FF15C08D51CA
:10179000BAE08B9FC00111248332E1E09E0734F44C
:1017A000D60113969C938E9312970DC082E291E01E
:1017B000F6019383828307C0E2E2F1E0D60113963B
:1017C000FC93EE93129729E0249DF001259DF00DE6
:1017D0001124E20DF31DE75FFE4F408151816281CC
:1017E00073818FA198A50E94721DDC01CB01AC0111
:1017F000F401608197FD0DC0A038B10554F4262F87
:10180000226020839D012E5F3F4FBD010E94042373
:1018100004C0962F9D7FD4019C93BF8DB11152C0FF
:10182000F401808185FD4EC0D60112968D919C9168
:101830001397B3010E940E359B01F60180819181BF
:10184000B3010E940E357A8369833C832B83F1E0D8
:10185000FD8323E02E83ADA0BEA0C50104979CA309
:101860008BA3D5018C918970893011F00C94801470
:101870008BA19CA10E94C21BB22FA32FF42FE52F96
:10188000CB01B98FAA8FFB8FEC8F6D8F9E8FE98074
:10189000FA800B811C812D813E814B2F5A2F6F2F97
:1018A0007E2F0E947B1A882311F40C948014ABA124
:1018B000BCA114968C9114978E7F14968C93C601BC
:1018C0000E94EB15FFEF4F1A5F0A29E0820E911C70
:1018D00049E0C40ED11C6AE04616510409F098CEC6
:1018E000F9CDD7018C9180FFA0C1BF8DB1116CC122
:1018F000C6010E94CB1CF701808182FF83C0D60104
:101900008D919C91B5010E940E358DA19EA10E94E2
:101910005715282F30E02B5231092A30310514F0A9
:101920002AE030E0D6011296ED91FC911397CF0199
:10193000B5010E940E35621773074CF43596CF013E
:10194000B5010E940E352617370794F00BC02617F5
:101950003707BCF43A97CF01B5010E940E356217E4
:10196000730734F0D6011396FC93EE93129709C0D7
:101970004AE0429FC001439F900D1124F6019383DA
:101980008283809193059091940564E170E00E94B8
:10199000FA34892BA9F5D6018D919C91B5010E944D
:1019A0000E358B010D5F1F4F20916501309166014F
:1019B000275F3E4F40E0C9012CA73DA74BA70E94DF
:1019C000E1152CA53DA54BA5882309F4DAC7F9013B
:1019D00080819181B5010E940E356017710709F071
:1019E000D0C7D3014C934F3F59F0F70180818B7FD3
:1019F000886080831282118285E090E094838383E3
:101A000010E8D5C083FF52C0209165013091660176
:101A1000D3010C91B9E00B9F80011124C801875FAD
:101A20009E4F820F931F2CA73DA70E94E1152CA566
:101A30003DA5811104C0C6010E94BF1563C0C90144
:101A4000800F911FFC01E75FFE4F208131812E51F5
:101A50003109F60131832083FC01E55FFE4F2081CF
:101A600031812C533109D60112964D915C91139717
:101A7000421753070CF446C0FC01E35FFE4F208180
:101A80002860208331961182108232961182108252
:101A90008CE091E00E94461AF7018081877F806187
:101AA00080838BEF9FEF948383832CC084FF3EC0A1
:101AB0008091650190916601D3012C91B9E02B9F33
:101AC00090011124FC01E20FF31FBF01655F7E4FFF
:101AD000D60112964D915C911397445C5F4FDB01E8
:101AE0004D935C93D60112964D915C9113974538B6
:101AF000BEEF5B074CF4F70120812E7F208361E06D
:101B00000E943A1814E653C0413C5E4FDCF7E35F95
:101B1000FE4F408140FFF6CF275F3E4F820F931F5D
:101B20000E94EB15C6010E94DB15ECCF85FF3CC07F
:101B3000D1012D913C91F6018081918128173907BF
:101B400044F4EDEFFFEFD7011296FC93EE9311975B
:101B500005C0D70112965C924E921197F101228135
:101B60003381D60112968D919C91139728173907CE
:101B700034F486EF9FEFF7019483838305C0D70188
:101B80001496BC92AE9213970E942D32B2010E941D
:101B90000E35019759F4F7018381948191958195D0
:101BA00091099483838302C010E001C010E4D7013F
:101BB0008C9181FF09C00E942D32612F70E00E943C
:101BC0000E35892B09F4E5C68AE0889DF001899DD0
:101BD000F00D1124E20DF31DE05CFF4F40815181B7
:101BE0006281738189A19AA10E94721D9B01AC013F
:101BF000F701808185FD03C08EE491E002C087E596
:101C000091E000E0B7010E94A623FF8DF1110DC005
:101C100081012BA13CA146E067E0C6010E94B11DF5
:101C2000882319F0C6010E9487152FEF821A920AA5
:101C30004AE0E40EF11C6AE0C60ED11C8AE0680E90
:101C4000711C94E18916910409F04BCE7101A5E550
:101C5000EA1AAEEFFA0A6101B9E5CB1ABEEFDB0A68
:101C6000A12CB12C79E0572E4101EFE08E0E911C92
:101C70003101F8E16F0E711CE5E04E2ED7018C9119
:101C800080FF64C0BF8DB1111FC0C6010E94CB1C74
:101C9000C6010E947E1EF701808181FF15C00E944F
:101CA0002D328F739927009779F4E0916501F091B7
:101CB0006601DF01A852BE4F2C9120FF73C601962A
:101CC000159686309105C1F75A9CF0015B9CF00D8A
:101CD0001124E20DF31DE955FE4F408151816281CF
:101CE0007381C4010E94721D9B01AC01D701119642
:101CF0006D917C91129713968D919C911497161665
:101D000017062CF4181619063CF003E008C0181644
:101D1000190624F002E003C001E001C000E0B701B1
:101D200080E691E00E94A623BF8DB1110FC0810112
:101D3000930148E068E0C6010E94B11D882331F09C
:101D400041E06AEF70E0C6010E94B41FEFEFAE1AE7
:101D5000BE0AF9E0EF0EF11C29E0C20ED11C45E0ED
:101D6000A416B10409F08ACF610166E5C61A6DEFC9
:101D7000D60A71018AE5E81A8DEFF80AA12CB12C78
:101D8000D1011F96BAA3A9A32101B8E14B0E511CA2
:101D90005AEF852E99249A9466E0662E712CF601EE
:101DA000808180FF92C0FF8DF11163C0C7010E9446
:101DB000CB1CC7010E947E1E209193053091940593
:101DC000C9016AE070E00E94FA34892BE9F5C90183
:101DD0006EE170E00E94FA34892B09F00DC6D10142
:101DE0008D919C91F70120813181821B930B97FF8C
:101DF00003C09195819591098D3291400CF4FCC5F9
:101E00000E942D3283709927892B09F4F5C5D101E1
:101E10002D913C91F70180819181821793070CF0FD
:101E2000E4C5D7011A967C926E921997D101129649
:101E30002D913C911397F70182819381821793072B
:101E40000CF0D7C574866386D70119964D915D91C4
:101E50006D917C911C97F70145835683678370874A
:101E6000D10115968D919C911697840F951F96839D
:101E70008583BDE0BA9DF001BB9DF00D1124E20DFC
:101E8000F31DEA55FD4F408151816281738189A123
:101E90009AA10E94721D9B01AC0100E0B6018AE686
:101EA00091E00E94A623EF8DE1110FC08101920104
:101EB00043E068E0C7010E94B11D882331F040E093
:101EC00068EC70E0C7010E94B41FFFEFAF1ABF0AB1
:101ED0002DE0C20ED11C4DE0E40EF11C63E0A6160D
:101EE000B10409F05CCF61018AE0C81A8EEFD80A0C
:101EF00071019EE0E91A9EEFF90AA12CB12CD101E3
:101F00001F96BAA3A9A32101B8E14B0E511CF601FB
:101F1000808180FD25C0FFEFAF1ABF0A29E0C20E05
:101F2000D11C49E0E40EF11C64E0A616B10479F777
:101F30004101E6EE8E1AEDEF9E0A7101FAEEEF1AFC
:101F4000FDEFFF0AC12CD12CC1010F969AA389A3E2
:101F5000210198E1490E511C4AE0642E712CA2C067
:101F60008F8D811106C0C7010E94CB1CC7010E9442
:101F70007E1E99E09A9DF0019B9DF00D1124E20DCB
:101F8000F31DEE50FE4F408151816281738189A122
:101F90009AA10E94721D9B01AC0100E0B60184E78A
:101FA00091E00E94A623AF8DA111B5CF81019201CE
:101FB00046E066E0C7010E94B11D882309F4ABCF5B
:101FC00041E068EE73E0C7010E94B41F00E010E03A
:101FD0006090650170906601F301E65EFD4F812C13
:101FE000912C808180FD0DC0B9E0B89DF001B99DB4
:101FF000F00D1124EA5EFD4FE60DF71D309751F408
:1020000049C02FEF821A920A399640E18416910452
:1020100041F740C0848181608483D70112968D91FD
:102020009C911397800F911F805B9F4F2D913C9146
:10203000200F311F205B3F4F3183208393838283A6
:102040000E942D3280FF03C08EEF9FEF02C082E01E
:1020500090E0B9E0B89D9001B99D300D1124A30125
:10206000420F531FFA01E35EFD4F91838083379740
:10207000D1012D913C9180819181359682179307F2
:102080002CF487E090E09183808304C0A9EFBFEF38
:10209000B183A083085211090036BFEF1B0709F076
:1020A00097CF39CFD4018C9180FFAEC0BF8DB111D5
:1020B0007FC0C7010E94CB1CC7010E947E1E2091D9
:1020C000930530919405C901B3010E94FA34892B1C
:1020D00009F06EC0F10100811181C801B3010E94B5
:1020E0000E355B01D701ED91FC91CF01B3010E9448
:1020F0000E35C501861B970B1816190624F481347A
:10210000910534F415C06A197B096134710584F0B6
:10211000E017F10734F487E090E0F70196838583B8
:1021200007C0E9EFFFEFD7011696FC93EE931597E2
:10213000C9016EE170E00E94FA34892BC1F4D1012B
:1021400012962D913C911397F7018281938182170A
:1021500093072CF482E090E09087878329C0EEEF0C
:10216000FFEFD7011896FC93EE93179721C0D40187
:102170008C9181FF1DC00E942D32B3010E940E354B
:10218000892BB1F4F10120813181D7018D919C918E
:102190002817390769F0F701858196811816190605
:1021A0003CF44081518162817381C1010E94901E83
:1021B00029E02C9DF0012D9DF00D1124E20DF31D61
:1021C000EA5EFD4F408151816281738189A19AA1AC
:1021D0000E94721D9B01AC0100E0B4018DE791E00B
:1021E0000E94A6234F8D41110FC08101920144E04E
:1021F00065E0C7010E94B11D882331F041E066E926
:1022000070E0C7010E94B41F6FEFC61AD60A89E0BA
:10221000880E911C99E0E90EF11CA0E1CA16D104C8
:1022200009F040CF6101B8E2CB1ABEEFDB0AA12C66
:10223000B12C95E0492E3101EFE06E0E711C2AE0C1
:10224000822E912C33E0532ED6018C9180FF58C002
:102250004A9CF0014B9CF00D1124E20DF31DEC5251
:10226000FE4F4081518162817381C3010E94721DC2
:102270009B01AC0100E0B60184E891E00E94A62336
:10228000811104C0F60180818E7F8083FF8DF11162
:1022900037C0F601329780819181B4010E940E35DA
:1022A0009B01329780819181B4010E940E357A831F
:1022B00069833C832B835D825E82D10114968C916D
:1022C00080FF1EC083FD1CC0C1010E94221CB22FD2
:1022D000A32FF42FE52FCB01BD87AE87FF87E88BB7
:1022E000698B9A8BE980FA800B811C812D813E815C
:1022F0004B2F5A2F6F2F7E2F0E947B1A8111AEC356
:10230000BFEFAB1ABB0AE5E0CE0ED11CF6E0AF166C
:10231000B10409F099CF610121E8C21A2EEFD20A67
:10232000510145E8A41A4EEFB40A812C912C2101E9
:102330006FE0460E511C8AE0682E712CD6018C91FC
:1023400080FF70C0BF8DB11112C0C5010E94CB1CAF
:10235000F601808182FF0BC025813681D10115965F
:102360008D919C911697820F931F92838183BBE07E
:10237000B89DF001B99DF00D1124E20DF31DE55853
:10238000FE4F4081518162817381C2010E94721DA2
:102390009B01AC0100E0B60189E891E00E94A62310
:1023A000811104C0F60180818E7F8083FF8DF11141
:1023B00039C0D50112968D919C911397B3010E945B
:1023C0000E359B01F50180819181B3010E940E358C
:1023D00078876F833A872987F3E0FB87FC87D101F1
:1023E00014968C9180FF1EC083FD1CC0C1010E9409
:1023F000221CB22FA32FF42FE52FCB01B983AA8380
:10240000FB83EC836D839E83EF80F88409851A85B6
:102410002B853C854B2F5A2F6F2F7E2F0E947B1AC6
:10242000811124C3BFEF8B1A9B0AEBE0CE0ED11CA7
:10243000FBE0AF0EB11C24E08216910409F07ECFC0
:10244000810109591E4F210148E9441A4EEF540AEF
:10245000C1018D599E4F98A38F8F1AA219A2D10145
:102460001F96BCA3ABA3F801808180FD14C089A195
:102470009AA101969AA389A30A5F1F4F96E0490E7D
:10248000511CAF8DB8A11696B8A3AF8FE9A1FAA1E0
:10249000349749F7B8C1D20182FFA0C08C91815016
:1024A0008C9381114EC1F8018081982F9E7F90837B
:1024B000A0906501B090660183FF33C0AF8DB8A1D5
:1024C00012962D913C9113974D915C91F501E65533
:1024D000FD4F60E070E0808180FD1CC0BDE0B69FD4
:1024E000C001B79F900D1124FC01EA55FD4FEA0D84
:1024F000FB1D309709F425C1648161606483A80ED7
:10250000B91EF501EA55FD4F518340833296318360
:10251000208317C16F5F7F4F3D9663307105D9F6F9
:1025200010C186FF0AC0F50184818160877E8483A3
:10253000108617821682158204C1AF8DB8A112963B
:10254000ED90FC901397CD90DC90F501EC5BFF4F84
:10255000812C912C808180FD0DC0BAE0B89DC00116
:10256000B99D900D1124805C9F4F8A0D9B1D009793
:1025700051F4E7C02FEF821A920A3A9644E184168A
:10258000910441F7DEC0DC0114962C911497216070
:1025900014962C93F5012685222319F00E94BF156D
:1025A00002C00E94DB15FAE0F89DC001F99D900D74
:1025B00011248A0D9B1DFC01E05CFF4FD182C0827B
:1025C0003296F182E082F501EE52FD4F80818F5FFD
:1025D0008083349680818F5F8083B3C09C919E5F9F
:1025E0009C93F8018081382F307285FD02C020E273
:1025F00001C020E8921708F4A4C08E7FD8018C9304
:10260000332309F49EC06090650170906601F30168
:10261000EF52FD4F80818E7F808332968081815082
:102620008083882309F48AC0F30111821082138207
:1026300012828481827E856084831086178216824E
:10264000158280E491E0908B8787630194E4C90E42
:10265000D11C4301A0E48A0E911C5301B4EFAB1AC4
:10266000BEEFBB0A7601F701808180FF0DC0C30178
:102670000E94211DD40111969C938E93E8E3FFEFF5
:102680001396FC93EE931297D7018C9185FD03C0AE
:10269000C4010E94BF15BAE0EB0EF11CEAE08E0EF9
:1026A000911CEA14FB04F9F6C3010E949116C301C0
:1026B0000E9452165301F7EFAF1AFEEFBF0A7301E3
:1026C0002DE9E21A2EEFF20AD50114968C91149797
:1026D00080FF09C0E2E2F1E01396FC93EE931297BB
:1026E000C5010E941E16F9E0AF0EB11CAE14BF0466
:1026F00059F7F3017C9680818E7F80833A96EC15A2
:10270000FD05C9F7F301E158FE4FC30185559E4F02
:1027100020812E7F20833B96E817F907C9F7F30144
:10272000E852FE4F2AE0621A2EEF720A80818E7FF5
:1027300080833596E615F705C9F703C042E040935C
:102740006701D8018C9184FF07C086EA0E94681A4D
:10275000F80180818F7E8083A6E089A19AA1A89F3D
:10276000F001A99FF00D1124E20DF31DED59FE4F6C
:1027700040815181628173818BA19CA10E94721D55
:102780004B013C01F201E080EE2009F470CE2E2DC9
:102790002695422F50E09B01241B350B2038310534
:1027A00030F0640F751F6038710508F060CEF12CB1
:1027B000F194E194F108D201CC90D12CCE14DF0435
:1027C0000CF455CED194C194D1085401AE0CBF1C69
:1027D000F201808190E08C159D0594F0E114F104E4
:1027E00019F4C114D10439F041E0B3016C0D7D1D21
:1027F000C5010E94C41AD2018C91C80ED11CE8CF29
:10280000E80EF91ED8CFF101E752FD4F80818823F1
:1028100009F434C18150808380FD02C086EA01C082
:1028200087EAAD960FB6F894DEBF0FBECDBFDF913D
:10283000CF911F910F91FF90EF90DF90CF90BF90BD
:10284000AF909F908F907F906F905F904F903F9050
:102850002F900C94681AC901875F9E4F840F951FB3
:102860000E94EB150C9472070E94601A84FD02C04E
:102870000C94A5070D31110514F00C94A507D10196
:1028800012968D919C9113970A9613969C938E9312
:1028900012970C94A507C70104970E9487150C9402
:1028A0008E0841E06AEF70E0C70104970E94B41FF0
:1028B0000C94A60841E068EE73E0C70104970E94FB
:1028C000B41F64E080916501909166010E943A18FE
:1028D0000C94BE0841E066E970E0C50104970E94CF
:1028E000B41F0C94D00840E068EC70E0C701049776
:1028F0000E94B41F0C94E2088DEF9FEF0C94D40952
:10290000BAE0AB0EB11CE9A5FAA5AE16BF0611F0F0
:102910000C942D0CF401808184FD02C00C94620C97
:10292000C1010E94221CB22FA32FF42FE52FCB014F
:10293000BB8BAC8BFD8BEE8B6F8B988FE980FA8015
:102940000B811C812D813E814B2F5A2F6F2F7E2FA3
:102950000E947B1A882311F40C94620C64EF71E0DE
:1029600080916501909166010E940718D4018C91B5
:102970008F7E80628C9314961C921E9213970C94F7
:10298000620C4F5F275F3F4F4A3009F014C84FEF8A
:1029900028C8F6014081518162817381C1010E9482
:1029A000901E12C9489E9001499E300D1124D901F4
:1029B000AC52BE4FAE0FBF1F109709F485C91496D5
:1029C0008C911497816014968C93E20FF31F9F01F2
:1029D0002C523E4FF60180819181A281B381F90191
:1029E00080839183A283B3836FC9F7019286818626
:1029F0001DCA9486838628CAD6018C9181FF24CA79
:102A00000E942D3263E070E00E940E35892B09F0A0
:102A10001BCAF10180819181D7012D913C91821BCC
:102A2000930B181619063CF4F70185819681181648
:102A300019065CF009CA892B09F406CAD701159654
:102A40008D919C91169797FFFFC9F70140815181A5
:102A500062817381C1010E94901EF6C9F6018081D6
:102A60008E7F8083C1010E94491C4ACCD6018C9183
:102A70008E7F8C93C1010E94491CD4CCAD960FB6B9
:102A8000F894DEBF0FBECDBFDF91CF911F910F91A4
:102A9000FF90EF90DF90CF90BF90AF909F908F907E
:102AA0007F906F905F904F903F902F900895FB0123
:102AB000CB0164E070E00E940E35AC0155278823FD
:102AC00011F0E41BF50BF7FD3396F595E795F595B9
:102AD000E795E754FB4FE4918E2F8F7120E030E0B3
:102AE000F0E0241735078CF4B9016B5F7F4FDF01ED
:102AF00002C0B595A7956A95E2F7A0FF02C08F5F67
:102B000001C081502F5F3F4FECCF8D5D08950F9333
:102B10001F93CF93DF938C0141E066E970E00E9440
:102B2000B41FF801848184FF25C081858F3F11F196
:102B3000C0916501D09166019FEFF8019187F9E09E
:102B40008F9FC00DD11D11248E01035F1E4FF80110
:102B5000808180FF0FC08BE994E00E94461AC05F1D
:102B6000DE4F81E090E099838883F8018081877F40
:102B700080618083DF91CF911F910F910895CF9352
:102B8000DF93EC018C81877C84608C8318861F82A4
:102B90000E942D3223E030E0B9010E940E35892BCE
:102BA00029F48DEF9FEF9E838D8302C03E832D839A
:102BB000DF91CF910895FC019481937E906294837C
:102BC0000895FC01848180FF04C0982F987381E0F0
:102BD00009F080E008950F931F93CF93DF93FC01DA
:102BE0004191519161917191CF0120E00E94801F2C
:102BF000E0916501F091660186858150868781119B
:102C000018C0DF01A752BD4F8AE08C938F010C5B87
:102C10001F4FEF01C45FDE4FF801808180FF04C0C9
:102C2000C80104970E94DB15065F1F4F0C171D0794
:102C300099F7DF91CF911F910F910895CF93DF9373
:102C4000EC010E942D3280FD03C081E090E002C0C3
:102C50008FEF9FEF9E838D8318861F828C81877CE8
:102C60008C83DF91CF910895CF93DF93EC018C811A
:102C7000662311F0816001C08E7F8C830E942D320B
:102C800062E070E00E940E359C019C81213031058C
:102C900011F4946001C09B7F9C83CE01DF91CF91A2
:102CA0000C941E16CF92DF92EF92FF920F931F9318
:102CB000CF93DF938C01EC01CE50DE4F7C018AEE86
:102CC000E81A8DEFF80A8C8180FF1EC0C8010E94AF
:102CD000211D6C010E942D32D982C8821B821A826A
:102CE00080FF03C08DEF9FEF02C083E090E09E83E2
:102CF0008D830E942D3280FF03C08FEF9FEF02C0B3
:102D000081E090E098878F832996CE15DF05D9F66C
:102D1000DF91CF911F910F91FF90EF90DF90CF90B7
:102D200008957F928F929F92AF92BF92CF92DF923F
:102D3000EF92FF920F931F93CF93DF937C010E943A
:102D40002D32817099279C0141E02427122F1170A8
:102D5000E701C955DE4F57018CE2A81A8EEFB80A79
:102D6000C12CD12C812C912C00E0772473948C8180
:102D700080FF2EC0011107C0C7010E94211D4C0118
:102D800040EFC41AD10899828882DB82CA8211116D
:102D900003C08BEF9FEF02C085E090E09E838D83A0
:102DA0000E942D3280FF03C08FEF9FEF02C081E0B1
:102DB00090E098878F830F5F033019F4172500E0A8
:102DC00007C080EC881A8EEF980A40EFC40ED11C21
:102DD0002996CA15DB0559F6DF91CF911F910F9106
:102DE000FF90EF90DF90CF90BF90AF909F908F902B
:102DF0007F9008957F928F929F92AF92BF92CF92D1
:102E0000DF92EF92FF920F931F93CF93DF93EC012A
:102E1000FC01ED52FD4F8081811104C082E080935E
:102E20006701E7C08E010B521D4FF80180818F5F53
:102E3000808365E00E94EE34911102C08AE08E87A3
:102E4000FE01EF52FD4F108231961082359688E7D1
:102E500090E0918380836E01FAE2CF1AFDEFDF0AE2
:102E6000F60110828C81827E85608C8318861F8299
:102E70001E821D82198218821B821A8280E491E0D0
:102E8000988B8F877E01F7EFEF1AFEEFFF0A712C08
:102E9000A12C88E2B82E92E2892E992493948E85F3
:102EA000781660F40E942D32B5010E940E35F701AC
:102EB000918380839382828261E001C060E0C701D8
:102EC0000E9434167394F9E0EF0EF11C8AE0781238
:102ED000E6CFDE01A959BE4FFE01E158FE4F8C91AD
:102EE0008E7F8C931696AE17BF07C9F7DE015C96EE
:102EF0009E012C5B3F4F8C918E7F8C931A96A2176C
:102F0000B307C9F7DE01A555BE4F80818E7F808350
:102F10003B96EA17FB07C9F7FE01E852FE4F7E0118
:102F20009AE0E91A9EEFF90A80818E7F80833596B8
:102F3000EE15FF05C9F79E01265E3D4FF701808122
:102F40008E7F80833996E217F307C9F7FE01E655B5
:102F5000FD4F80818E7F80833D9680818E7F808330
:102F60003D9680818E7F8083F8018081813031F0B1
:102F7000823031F0833031F085E005C080E003C05D
:102F800083E001C084E0B12CB81631F09C919160CF
:102F90009C93B3941996F8CFCE010E949116F60136
:102FA0008081B80EB082F8018081813031F08230AA
:102FB00031F0833031F084E005C080E003C081E06F
:102FC00001C083E010E0181749F0F701908191608B
:102FD00090831F5FF9E0EF0EF11CF5CFCE010E9448
:102FE0005216812F880F880F180FF6018081180F55
:102FF0001083DF91CF911F910F91FF90EF90DF90A1
:10300000CF90BF90AF909F908F907F9008950F9337
:103010001F93FC010285138524853585060F171F34
:10302000211D311D0287138724873587E353FD4F08
:103030004081518162817381401751076207730794
:10304000B0F4405F584D6F4F7F4F40835183628390
:103050007383369620812F5F2083319680818F5F26
:10306000808389E594E01F910F910C94461A1F917B
:103070000F910895CF93DF93FC01EA52FD4F208119
:10308000261B208321112AC034973081339620815A
:10309000213011F024E101C02FE032131FC0EC01F8
:1030A000FC01EF52FD4F808184608C7F80838E8590
:1030B00036962AE0829FC001112491838083329644
:1030C000108286EA0E94681A8C8183FF07C0877F7E
:1030D0008C83CD52DD4F988191509883DF91CF91B1
:1030E000089580917301E0917101F091720188233C
:1030F00049F0CF01029690937201809371018591FE
:1031000094910895CF01029690937201809371017A
:10311000808191810895CF92DF92EF92FF920F9379
:103120001F93CF93DF930E947118811520E89207B7
:1031300061F4809171008D7F8093710010929100F5
:1031400046984798109270018BC021E0209370013F
:10315000813020E8920751F480916E0190916F01C7
:1031600090937201809371010E94711897FD05C0C0
:1031700020916D01222309F43FC020916C0121119F
:103180003BC021E020937401EC01DF77209769F4C4
:1031900081E08093750146983FE9C32E3FE0D32E2E
:1031A000E12CF12CCAEFD0E014C08E0120E030E019
:1031B00060E472E48FE090E0A90198010E943F333F
:1031C00069017A0181E0C81AD108E108F10810927A
:1031D0007501E0918305F09184050995811103C083
:1031E00081E080937501809174018823B9F1809109
:1031F0007501811133C003C010927401C5CF469987
:103200002DC0479A0E947118009771F09C01DE0151
:103210000E94CA33DC01CB0129E0B595A7959795AB
:1032200087952A95D1F703C08FEF9FEFDC011092AD
:1032300090002AE020939100D0929900C0929800CB
:103240008093760190937701A0937801B0937901F0
:103250008091710082608093710002C04798D2CF44
:10326000DF91CF911F910F91FF90EF90DF90CF9062
:10327000089580916401089508953FB7F89480916E
:103280007B0190917C01A0917D01B0917E0126B5DA
:10329000A89B05C02F3F19F00196A11DB11D3FBF8E
:1032A000BA2FA92F982F8827820F911DA11DB11D1C
:1032B000BC01CD0142E0660F771F881F991F4A9518
:1032C000D1F708958F929F92AF92BF92CF92DF92E3
:1032D000EF92FF926B017C010E943D194B015C0152
:1032E000C114D104E104F104F1F00E943D19DC01A4
:1032F000CB0188199909AA09BB09883E9340A10509
:10330000B10570F321E0C21AD108E108F10888EE96
:10331000880E83E0981EA11CB11CC114D104E104E5
:10332000F10419F7DDCFFF90EF90DF90CF90BF90C1
:10333000AF909F908F9008951F920F920FB60F92AB
:1033400011242F933F938F939F93AF93BF938091BB
:10335000600190916101A0916201B091630130918F
:103360007A0123E0230F2D3720F40196A11DB11D12
:1033700005C026E8230F0296A11DB11D20937A01F6
:103380008093600190936101A0936201B093630107
:1033900080917B0190917C01A0917D01B0917E0193
:1033A0000196A11DB11D80937B0190937C01A09398
:1033B0007D01B0937E01BF91AF919F918F913F911D
:1033C0002F910F900FBE0F901F9018951F920F9284
:1033D0000FB60F9211242F933F934F935F936F93E8
:1033E0007F938F939F93AF93BF93EF93FF938091BE
:1033F000760190917701A0917801B0917901892BA4
:103400008A2B8B2B81F18091750181110BC098B1B2
:1034100080E4892788B980917401882319F088B1E4
:10342000805888B98091760190917701A0917801B8
:10343000B0917901181619061A061B06B4F480918A
:10344000760190917701A0917801B091790101976F
:10345000A109B1098093760190937701A093780137
:10346000B093790102C00E948B18FF91EF91BF9138
:10347000AF919F918F917F916F915F914F913F910C
:103480002F910F900FBE0F901F9018959C01E1E7B0
:10349000F0E090819D7F908381E080937301309371
:1034A00072012093710130936F0120936E010C948F
:1034B0008B182D9A0895BC0180E090E00C9462195D
:1034C0008FB18095807F669B88601C9B8460089587
:1034D0005C988EBD00000DB407FEFDCF5C9A089588
:1034E000109264013E983F9808953E9A3F9A81E079
:1034F000809364010895EF92FF920F931F93CF93EF
:10350000DF93CDB7DEB72C970FB6F894DEBF0FBEB2
:10351000CDBF49835A836B837C839E83EF82F88679
:1035200009871A872B873C87E981FA816B817C8127
:103530004F81588529853A85DF01A80FB11D4A17AB
:103540005B07A4F48B85480F511DE417F50774F44D
:103550008E81AB01480F511D241735073CF48C8533
:10356000280F311D81E0621773070CF080E02C9664
:103570000FB6F894DEBF0FBECDBFDF91CF911F9184
:103580000F91FF90EF90089580389105B8F4603462
:103590007105A0F490E121E061FD24E060FD220FBF
:1035A00062FD2295687F969FD0011124A80FAD5728
:1035B000BE4F8C91822B40FF82278C9308952F92CF
:1035C0003F924F925F926F927F928F929F92AF92B3
:1035D000BF92CF92DF92EF92FF920F931F93CF9300
:1035E000DF93CDB7DEB727970FB6F894DEBF0FBED7
:1035F000CDBFFC016A3069F425898189928938E060
:10360000239F800D911D1124928B818B108A178628
:103610009EC06D3009F49BC09F838E8335882489BA
:10362000298333893A8361887288E784F08880E847
:10363000E816F104C4F0AE81BF8155962C915597E0
:10364000422F50E01F968D919C915097B6E02B9F92
:10365000800D911D1124EE81FF81908B8787268933
:1036600021115FC074C0F0E46F16710424F7C70124
:1036700025E0329E800D911D112418161906DCF6E6
:10368000432C512CC30138E0339E800D911D112431
:103690001816190684F685E0689F80011124015FE1
:1036A000184F20E0F8012490253009F4212C430123
:1036B00058E020FC02C0398101C03A8131110BC0B1
:1036C000F9818A81F81307C026945150840C951C07
:1036D0005111EFCF1DC067018C2D8E198315A0F7F6
:1036E00054018A2D8819831578F4432FB501C6013A
:1036F0002C833B835D830E94C41A9FEFA91AB90AE9
:103700005D813B812C81EDCFAFEFCA1ADA0AE4CF9D
:103710002F5FE40CF51C0F5F1F4F263009F0C2CF5E
:103720008ACF6AEF64039001659F300D1124205801
:103730003F4F281739075CF4AE81BF81ED91FC91B2
:1037400011970190F081E02D6AE0CD01099581E0AB
:1037500090E027960FB6F894DEBF0FBECDBFDF9185
:10376000CF911F910F91FF90EF90DF90CF90BF907E
:10377000AF909F908F907F906F905F904F903F9011
:103780002F900895EF92FF920F931F93CF93DF93A3
:1037900000D000D000D0CDB7DEB77C01FC010581A0
:1037A0001681B80117FF04C066277727601B710BCD
:1037B000072E000C880B990B0E94793220E030E034
:1037C00040E251E40E9446340E94BF34262F61112A
:1037D00001C021E0F70182819381E080F180EAE07D
:1037E000F0E0BF010E940E3517FF08C08B01C70132
:1037F000BF010E940E357A8369830AC08B01C7011D
:10380000BF010E940E35CB01821B91099A838983E7
:103810001C830B832D8381E08E8329813A814B8128
:103820005C816D817E8180E090E026960FB6F894F1
:10383000DEBF0FBECDBFDF91CF911F910F91FF90E3
:10384000EF9008951F93CF93DF9300D000D000D066
:10385000CDB7DEB7FC01828193812AE030E0B90167
:103860000E940E35462F172F80819181B9010E9449
:103870000E359B01512F68E073E080E090E02696C2
:103880000FB6F894DEBF0FBECDBFDF91CF911F9171
:103890000895FC01848183FD0EC0A0916501B09163
:1038A0006601AF52BD4F8C9181608C93848188609A
:1038B00084838EE181870895FC0184812081318198
:1038C0004581568182FF11C0C901805C9E4F6BEF1C
:1038D00064039001659F300D1124820F931F8115A1
:1038E00028E292077CF098520895C90180549140D3
:1038F0006BEF64039001659F300D1124820F931FBD
:1039000097FD985D08950F931F93CF93DF931F92B8
:10391000CDB7DEB78C01FC01848181608B7D84830F
:1039200015829FEF960F923010F06430E1F48DE92C
:1039300096E069830E94461AF801848169816230A9
:1039400011F48C6006C0643011F0846001C084649E
:10395000F801848380E2F80185830F90DF91CF9195
:103960001F910F910895633069F48062F801848398
:1039700087EA0E94681AF80184818061848387E164
:1039800096E002C08DEB95E00F90DF91CF911F91F3
:103990000F910C94461AFC0185819681009731F0B5
:1039A00020813181820F931F91838083878190854D
:1039B000009731F022813381820F931F938382839A
:1039C00080819181811528E2920714F0985203C0FA
:1039D00097FF03C0985D9183808308950F931F9391
:1039E000CF93C22F50E0222379F0665070E070939D
:1039F0009C0560939B0550939E0540939D058BEB22
:103A000095E00E94E32209C070E070939C056093EA
:103A10009B0550939E0540939D05C8010E94E3229B
:103A2000CC2339F089EB95E0CF911F910F910C9445
:103A3000E322CF911F910F910895089580E090E0C7
:103A40000895EF92FF920F931F93CF93DF93EC01B2
:103A50000E942D3260E078E20E940E3500E018ED01
:103A6000E12C28E2F22E28813981AC01421B530B54
:103A700041585D4F4F3F544030F40E942D32B70102
:103A80000E940E35F0CF203845E2340774F0A701CC
:103A9000421B530B480F591F1416150624F44038C7
:103AA0005240CCF4EACF385211C0213862E03607D8
:103AB00094F4A801421B530B480F591F1416150606
:103AC00024F4403852403CF4D8CF385D281B390BE1
:103AD0002038324094F2DF91CF911F910F91FF90E7
:103AE000EF900895CF92DF92EF92FF92CF93DF9302
:103AF000EC016A017B01EAE0F0E0CA01BF010E942B
:103B00000E359B0188819981BF010E940E35261BCD
:103B1000370B205C3F4FC701BF010E940E35AB0140
:103B2000405E5F4F21158EEF380714F43C5F05C0EF
:103B3000213082E038070CF03450B901CA01DF911E
:103B4000CF91FF90EF90DF90CF900895FC0111820C
:103B500010821382128214821682158210861782B6
:103B600008956F927F928F929F92AF92BF92CF9261
:103B7000DF92EF92FF920F931F93CF93DF93CDB716
:103B8000DEB762970FB6F894DEBF0FBECDBF6C01F3
:103B9000B62E4801DC0112968D919C911397EAE0B4
:103BA000F0E0BF010E940E353B01D6018D919C9142
:103BB000BF010E940E357A8369837C826B82BD824D
:103BC0004E836901B4E0CB0ED11C5901ECE2AE0E7C
:103BD000B11C3601F4E06F1A7108D6018C9189701E
:103BE000893029F5C3010E94C21BB22FA32FF42FE5
:103BF000E52FCB01BD87AE87FF87E88B698B9A8B5A
:103C0000E980FA800B811C812D813E814B2F5A2F38
:103C10006F2F7E2F0E947B1A182F882341F0D3012B
:103C200014968C9114978E7F14968C9328C0BAE0CA
:103C3000CB0ED11CCA14DB0461F6F401848180FF31
:103C40001DC083FD1BC0C4010E94221CB22FA32FE4
:103C5000F42FE52FCB01E980FA800B811C812D81A7
:103C60003E814B2F5A2F6F2F7E2F0E947B1A182FC9
:103C7000882321F0C4010E94491C01C010E0812F5B
:103C800062960FB6F894DEBF0FBECDBFDF91CF9125
:103C90001F910F91FF90EF90DF90CF90BF90AF906A
:103CA0009F908F907F906F900895EF92FF920F9367
:103CB0001F93CF93DF9300D000D0CDB7DEB7CE01F6
:103CC00001967C0104E110E0C8010E942933F7014C
:103CD00081937F010F5F1F4F08311105A9F769819B
:103CE0007A818B819C810F900F900F900F90DF91C4
:103CF000CF911F910F91FF90EF900895FC01828169
:103D0000938180372EEF92071CF486E391E005C083
:103D10008733914024F080E79EEF93838283089558
:103D20004F925F926F927F928F929F92AF92BF92CB
:103D3000CF92DF92EF92FF920F931F93CF93DF9377
:103D400000D000D0CDB7DEB77C018FE09CE0498386
:103D50005A836B837C830E94461AA0906501B090C1
:103D60006601F501E158FE4FC12CD12C7C816B819D
:103D70005A814981808180FD11C08BE08C9D90012A
:103D80008D9D300D1124490185E8881A8EEF980A1F
:103D90008A0C9B1C8114910451F49DC0AFEFCA1A88
:103DA000DA0A3B96B4E0CB16D10421F794C0F401B3
:103DB0005183408373836283D70112960D911C91C6
:103DC0001397061B170BED90FC90E41AF50A970168
:103DD000F7FE04C0222733272E193F09C80117FF19
:103DE00004C088279927801B910B821793070CF436
:103DF000C9016AE070E00E940E35072E000C880BA6
:103E0000990B0E9479322B013C0120E030E0A9019E
:103E10000E9472328823D1F0B801110F880B990BE0
:103E20000E947932A30192010E9446340E94B83464
:103E30008B01B701FF0C880B990B0E947932A3010B
:103E400092010E9446340E94B8347B01F401F6824C
:103E5000E582108707830E942D3264E170E00E94A2
:103E60000E358A50082E000C990B4BE04C9D9001AA
:103E70004D9D300D11242A0D3B1DF901E058FE4FD8
:103E800040815181480F591F518340833296608190
:103E90007181DB01A81BB90BB183A083F40184817C
:103EA00081608483F901EC57FE4F518340830E9467
:103EB0002D3265E070E00E940E359C01D40114960D
:103EC0009C911497232B21F4946014969C9303C027
:103ED0009B7FF40194830F900F900F900F90DF91D0
:103EE000CF911F910F91FF90EF90DF90CF90BF90F7
:103EF000AF909F908F907F906F905F904F900895BC
:103F0000CF93DF9300D000D01F92CDB7DEB7FC0176
:103F100090819E7F908380916501909166012D83B1
:103F200049835A836B837C830E943B292D8149817D
:103F30005A816B817C81009779F0FC014083518329
:103F400062837383622F0F900F900F900F900F90EA
:103F5000DF91CF910C94831C0F900F900F900F90D6
:103F60000F90DF91CF9108950F931F93CF938B0103
:103F7000C42FFC0124812E7F2483419151916191B2
:103F80007191CF0120E00E94801FB80180916501EE
:103F9000909166010E940718CC2351F061E0809156
:103FA000650190916601CF911F910F910C943A1881
:103FB000CF911F910F9108954F925F926F927F92D0
:103FC0008F929F92AF92BF92CF92DF92EF92FF9229
:103FD0000F931F93CF93DF936A017B015A01FC017A
:103FE0004491F0E8CF16D10438F050E04C0D5D1D3F
:103FF0004038510508F017C1FC01349131966490A6
:10400000E701A32FB0E04D018C0C9D1C181419047E
:1040100014F081E009C1F0E8AF16B104D4F7A701AC
:10402000460D511D14161506A4F7C034D1058CF7A2
:10403000309F002D11240E5FFC01E00FF11D309721
:1040400041F3C701F7FE04C0882799278E199F09FD
:10405000982F9770A701D7FF02C0495F5F4F63E0B9
:10406000559547956A95E1F7042FD7FF07C0992327
:1040700029F00FEF040F88E0891B982FB7FE05C0C9
:10408000662777276C197D0902C060E070E010E8B0
:104090008116910424F080E8982E9C1801C0932E7C
:1040A000961A402F002E000C550B0F3F1CF4842F46
:1040B000809501C080E088248394162D177009F440
:1040C000812C162D169516951695810E480D511DAD
:1040D000493051051CF048E0842E801A881A080FD8
:1040E000102F40E8040330011124C60CD71CC60E63
:1040F000D71E839FA0011124640F751FE60FF71FC1
:10410000622F6170762E20FF11C0E92CF12CB701CF
:1041100061507109E60FF71FBD016E197F09B7FEE7
:1041200003C0E61BF70B02C0E60FF71F822F827059
:1041300021FF11C0282D30E0215031092A9FB00104
:104140002B9F700D3A9F700D1124E60FF71FD7FFBC
:1041500002C0E41BF50B21E030E05901092E02C03A
:10416000AA0CBB1C0A94E2F79D01220F331F319564
:1041700021953109602E680C692D70E0AD01461B58
:10418000570B2D01460E571E161509F442CFE601B6
:10419000CD57DE4F812C8914B1F16491662359F11A
:1041A0008823A1F0F62EF2946F2D6373A4E06A9F2A
:1041B000B0011124BF2DBC7CFB2EF694F6946F2920
:1041C000762F7575770F6A7A6695672B6A9D7001F1
:1041D0006B9DF00C112417FD03C068816E29688364
:1041E000992349F017303CF4BE0160587F4FDB0142
:1041F000EC90FE28FC92772011F0319701C03196A7
:1042000083942196C8CF1F5F772019F0E40DF51D28
:1042100002C0E40FF51F882311F0E20FF31FB0E88E
:10422000CB0ED11CB1CF80E0DF91CF911F910F91C8
:10423000FF90EF90DF90CF90BF90AF909F908F90C6
:104240007F906F905F904F9008950F93CF93DF937F
:10425000FC0196816A3029F485818483985F968376
:1042600015C0062FEF01848100530A3060F4482FF7
:10427000880F550B9F5F692F990F770B20E089E11D
:104280009CE00E94DC1F8C818C5F8C8381E090E03D
:10429000DF91CF910F910895EF92FF920F931F93AB
:1042A000CF93DF931F92CDB7DEB77C01FC01008175
:1042B0001181C80169830E9429336981681719F047
:1042C000C8010E943133C7010F90DF91CF911F9138
:1042D0000F91FF90EF900895FC0180918201811170
:1042E00003C08FEF9FEF08959FB7F89482E080930B
:1042F000E9002091F20030E01216130614F421E0D8
:1043000030E02115310559F0289884E68093810129
:104310008091F10080838091F200882319F09FBF83
:10432000C90108958BE68093E800F9CF2FB7F89480
:1043300083E08093E9009091E800892F807295FFD7
:1043400004C09091F20080E4891B2FBF0895CF93A1
:10435000DF931F92CDB7DEB76983DC01ED91FC914D
:104360000280F381E02D41E050E0BE016F5F7F4F9E
:1043700009950F90DF91CF91089583E08093E90034
:104380008091F200882319F08AE38093E800089571
:104390000E94962190E00895CF93DF931F92CDB7AE
:1043A000DEB7FC018485958597FD05C02FEF3FEFB3
:1043B000358724870BC0CE0101960E946C2101979E
:1043C00019F4898190E002C08FEF9FEF0F90DF9189
:1043D000CF9108950F931F93CF93DF931F92CDB783
:1043E000DEB78C01FC018485958597FF0EC0CE0158
:1043F00001960E946C21019719F4298130E002C0D6
:104400002FEF3FEFF80135872487F80184859585E4
:104410000F90DF91CF911F910F910895FC0184853A
:10442000958597FD0BC09FB7F89482E08093E900D3
:104430008091F2009FBF90E0019608959FB7F89495
:1044400082E08093E9008091F2009FBF90E00895A0
:104450008F929F92AF92BF92CF92DF92EF92FF9294
:104460000F931F93CF93DF935C016B017A018091CF
:104470000701882309F45BC080918201882309F435
:1044800056C08091800180FF05C08091E00082606D
:104490008093E000E70110E00AEF83E0882E9AE3C2
:1044A000992E2097D9F10E94962181110AC00150BE
:1044B00009F43DC061E070E080E090E00E94621984
:1044C000F0CF282F30E0C217D3070CF48C2F4FB752
:1044D000F8948092E9009091E80095FF1DC0282F84
:1044E00030E0C21BD30BF601982F915020F0819140
:1044F0008093F100FACFC20ED31E112319F09092CF
:10450000E80009C08091E80085FD06C09092E800AF
:1045100011E0209709F010E04FBFC3CF1111C3CFB6
:104520005D9884E680937F011E141F0444F081E0AF
:1045300090E0F5019383828380E090E001C0C701A1
:10454000DF91CF911F910F91FF90EF90DF90CF906F
:10455000BF90AF909F908F9008950E941F37CF9289
:10456000DF92EF92FF920F931F93CF93DF9300D0D0
:10457000CDB7DEB76C017C0104E110E0F701619179
:104580007F011A830983CE0101960E944C210F5F9F
:104590001F4F0831110591F7C6010F900F90DF9161
:1045A000CF911F910F91FF90EF90DF90CF900895E2
:1045B00020919605282329F490919505982381E070
:1045C00009F480E008950F931F93CF93DF938C013C
:1045D000C0E0D0E0F801EC0FFD1F6491662371F09C
:1045E000E0918C05F0918D050190F081E02D8CE833
:1045F00095E00995892B11F02196ECCFCE01DF9142
:10460000CF911F910F9108955F926F927F928F9239
:104610009F92AF92BF92CF92DF92EF92FF920F9351
:104620001F93CF93DF93EC018B017A01A901461B05
:10463000570B57FF03C0519541955109C7018C1B7A
:104640009D0B97FF03C09195819591095524539433
:104650008417950714F0512C0AC09E2D8F2D7901D7
:10466000292F382F9C2F8D2FE801092F182FEC169A
:10467000FD0654F4902F812F8901292F382F9C2F6C
:104680008D2FE701E92EF82E6701CC1ADD0A5901BA
:10469000A01AB10AB7FE03C0B194A194B1083601C3
:1046A000D7FE03C08FEF681A780A759467940217D3
:1046B000130714F08FEF01C081E0882E880F99084E
:1046C000EC16FD06A4F041E0552019F0BE01C8012A
:1046D00002C0B801CE010E94C41A6A187B0877FE96
:1046E00004C0080D191D6C0C7D1C2196E9CFDF91CB
:1046F000CF911F910F91FF90EF90DF90CF90BF90DF
:10470000AF909F908F907F906F905F900895AC01D5
:104710004770552721E001C0220F4A95EAF797FD1F
:104720000796FC0183E0F595E7958A95E1F7F69504
:10473000FE2FEE27F795E795EE55FE4F83E4815067
:1047400021F09081922B9193FACF08950F93CF93FC
:10475000DF93EB01BA01A901202F00E00E94DC1FCA
:104760009881882321F09260988381E003C09D7F27
:10477000988380E0DF91CF910F9108952F923F921F
:104780004F925F926F927F928F929F92AF92BF9261
:10479000CF92DF92EF92FF920F931F93CF93DF930D
:1047A000CDB7DEB728970FB6F894DEBF0FBECDBFEA
:1047B0005A01822E912C9C01280D391D37FDC4C051
:1047C000803891050CF0C0C09B01200F311D37FDD2
:1047D000BBC0603471050CF0B7C0AB0177FF04C0FB
:1047E00044275527461B570B477055279B0177FFDA
:1047F00002C0295F3F4FE3E035952795EA95E1F741
:1048000077FF08C02150310968E070E0DB01A41B8C
:10481000B50BAD01602F66956695669570E00770E3
:1048200011F06F5F7F4FDB01A20FB31FBA83A98323
:1048300039017694762C662477946794680E791EF5
:10484000E12CF12C00E010E02301B0E84B0E511CEC
:1048500068E070E0DB01A41BB50BBC83AB8369810E
:104860007A812617370709F46FC02830310509F41B
:104870006BC02F3FBFEF3B070CF45BC0B201600F72
:10488000711FDB01AD57BE4FBE83AD83D801A60DAE
:10489000B71DAD57BE4F6C0160E070E0681579053B
:1048A0000CF047C0E0E8CE16D10409F442C0D7FCB2
:1048B00034C02F3FFFEF3F0709F442C0FB01EE0D6C
:1048C000FF1DEA0DFB1DE491042E01C0EE0F0A94BA
:1048D000EAF73C90E329EC9341155105F1F02730BC
:1048E0003105D9F0FB01EE0DFF1DEA0DFB1DE49132
:1048F0002E2E312CF1010B8002C0F595E7950A941C
:10490000E2F7F887EF83ED81FE813080EF81F88553
:10491000E3291F01ED81FE8120826F5F7F4FED81D2
:10492000FE813196FE83ED83FFEFCF1ADF0A1196E9
:10493000B5CF2F5F3F4F00581F4FE80CF91C8FCFAA
:104940004115510579F6E9CF28960FB6F894DEBFE8
:104950000FBECDBFDF91CF911F910F91FF90EF90D0
:10496000DF90CF90BF90AF909F908F907F906F908F
:104970005F904F903F902F900895E3E8F1E0A0E022
:10498000B8E000800EBC8111012C1197A0FDFDCF75
:104990000192B9F70DB408958091A70581110DC05A
:1049A00082E08093A30584E08093A4051092A6057D
:1049B0001092A50581E08093A70583EA95E008950C
:1049C0000F931F93CF93DF93EC0188819981009718
:1049D00029F02A813B812617370788F48B016F5F06
:1049E0007F4F0E945536009761F0998388831B831F
:1049F0000A832C813D81232B11F4FC01108281E07C
:104A000001C080E0DF91CF911F910F910895CF9366
:104A1000DF93EC0188819981009711F00E94BD35E8
:104A2000198218821D821C821B821A82DF91CF910B
:104A30000895409111065091120620910F06309171
:104A4000100642175307B4F49091E8009570E1F313
:104A50009091E80092FD19C08093F10080911106B9
:104A60009091120601968F739927892B19F48EEF76
:104A70008093E80080911106909112060196909320
:104A800012068093110681E0089580E00895DF9278
:104A9000EF92FF920F931F93CF93DF93D82E8A014B
:104AA0007B01E40EF51EEB01CE15DF0571F0D7FE9C
:104AB00003C0FE01849101C088810E9419252196BE
:104AC0008111F2CF8FEF9FEF01C0C801DF91CF912D
:104AD0001F910F91FF90EF90DF900895615030F09B
:104AE0002091F100FC0120830196F8CF289884E6FC
:104AF000809381010895CF92DF92EF92FF920F93FE
:104B00001F93CF93DF936C017A018B01C0E0D0E05B
:104B1000CE15DF0589F0D8016D918D01D601ED919B
:104B2000FC910190F081E02DC6010995892B11F4CB
:104B30007E0102C02196ECCFC701DF91CF911F917A
:104B40000F91FF90EF90DF90CF9008950F931F93F8
:104B5000CF93DF931F92CDB7DEB782E0898342E423
:104B600050E069E37CE080E80E9447250E94CC2465
:104B7000DC0112960D911C9113970115110569F036
:104B8000D801ED91FC910280F381E02DBE016F5FB1
:104B90007F4FC801099597FF07C089810F90DF916A
:104BA000CF911F910F910895F80100851185E5CFF0
:104BB0001F920F920FB60F9211248F939F938091A3
:104BC000E1009091E100937F9093E10083FF0FC09B
:104BD0001092E90091E09093EB001092EC0092E3C8
:104BE0009093ED001092820198E09093F00082FF84
:104BF00020C093E09093E9009091F200992319F07E
:104C00009AE39093E80090917F01992339F0909175
:104C10007F01915090937F01992389F190918101B7
:104C2000992339F0909181019150909381019923BA
:104C300041F184FF10C08091E2008E7E81608093FC
:104C4000E2008091E1008F7E8093E10080918001FD
:104C50008E7E806111C080FF16C08091E2008E7E42
:104C600080618093E2008091E1008E7E8093E1007C
:104C7000809180018E7E81608093800104C05D9A66
:104C8000CDCF289AD6CF9F918F910F900FBE0F90C6
:104C90001F9018951F920F920FB60F921124CF926A
:104CA000DF92EF92FF920F931F932F933F934F93B7
:104CB0005F936F937F938F939F93AF93BF93EF9384
:104CC000FF93CF93DF93CDB7DEB76C97DEBFCDBF39
:104CD0001092E9008091E80083FFEDC168E0CE0109
:104CE00045960E946E2582EF8093E8008D8987FFAC
:104CF00005C09091E80090FFFCCF03C09EEF909319
:104D0000E800982F907609F0C6C09E892F89188DEB
:104D100091110CC0803829F480910E068093F10027
:104D200002C01092F1001092F10048C1422F50E0F1
:104D3000512B913051F4811141C14130510509F09D
:104D40003DC180910E068D7F0BC0933061F48111BF
:104D500035C14130510509F031C180910E068260A4
:104D600080930E062BC1953041F48091E80080FFBE
:104D7000FCCF20682093E30021C1963009F05FC08A
:104D8000EB8CFC8C1092E900109212061092110626
:104D9000123091F51092100610920F060E94A6256F
:104DA00099E0BE016F5F7F4FDB01E92F1D92EA950D
:104DB000E9F799831A8391E09E8390EA98879AEFA6
:104DC00099872091110630911206275F3F4F3C834F
:104DD0002B838D831092E900109212061092110617
:104DE000F0921006E0920F0649E050E080E00E9449
:104DF00047250E94A625E2C0F0921006E0920F0619
:104E00000E94CC24DC011296ED90FC901397E114E3
:104E1000F10409F4C0C0D701ED91FC910480F58143
:104E2000E02DBE016B5E7F4FC7010995009719F019
:104E30000CF0C4C0C7C0F701E084F184E8CF97301C
:104E400009F4C0C0983021F481E08093F100B6C02D
:104E5000993009F0B3C0837009F0B4C0E9E4F1E01F
:104E600081E021E036E39081992361F08093E900AD
:104E70002093EB0091919093EC003093ED008F5FC5
:104E8000873089F78EE78093EA001092EA008F89D5
:104E90008093820193C08B8D9C8D1092E9001092BB
:104EA0001206109211069093100680930F06898DBA
:104EB000811156C08E899D89913A59F4813209F049
:104EC00081C047E050E060E071E080E00E9447254B
:104ED00075C0913209F076C0833289F4888D90E0F4
:104EE000982F88272F89822BA0E0B0E080930801BB
:104EF00090930901A0930A01B0930B015FC0803227
:104F000069F48091E80082FFFCCF67E080E091E0E7
:104F10000E946E258BEF8093E80006C0823209F074
:104F20004DC08F898093070180910D06882319F069
:104F3000EEEFFAE002C0E0E0F8E08091000190912D
:104F40000101A0910201B0910301803B9440A105B1
:104F5000B10509F07BC08091070180FF93C076C046
:104F60000E94CC24DC0112960D911C91139701151F
:104F7000110541F1D801ED91FC910190F081E02DF6
:104F8000BE016B5E7F4FC8010995811117C0F80102
:104F900000851185ECCF113009F44EC0133091F427
:104FA0008F89882309F445C0823081F440E860E1AC
:104FB0008DE99CE00E94A431882321F08EEF80933C
:104FC000E80079C081E28093EB0075C0813029F45C
:104FD00040E86BE081E99CE0EDCF833099F70E94D7
:104FE000CC24DC011296ED90FC9013978E010F5F9C
:104FF0001F4F6801E114F10479F0D701ED91FC91A4
:105000000680F781E02DB801C7010995080F111D31
:10501000F701E084F184EECFD8011C92F6010190F3
:105020000020E9F73197BF016C197D0940E0C60106
:10503000C1CF6BE77CE002C06FE77CE061157105D2
:1050400009F2FB01449150E080E840CF0FB6F8949C
:10505000A895809160008861809360001092600044
:105060000FBEA895EE3F2AE0F20739F08091FE0AC4
:105070009091FF0A91838083A1CF1092FF0A109232
:10508000FE0A9CCFEE3F8AE0F80731F080819181E3
:105090009093FF0A8093FE0A87E797E791838083C6
:1050A0009BE088E10FB6F894A895809360000FBE4E
:1050B0009093600083CF6C960FB6F894DEBF0FBE5E
:1050C000CDBFDF91CF91FF91EF91BF91AF919F91B4
:1050D0008F917F916F915F914F913F912F911F9190
:1050E0000F91FF90EF90DF90CF900F900FBE0F9039
:1050F0001F9018954F925F926F927F92EF92FF925E
:105100000F931F93CF93DF93CDB7DEB7A1970FB661
:10511000F894DEBF0FBECDBF7C01FA01CB0119A20E
:10512000223008F42AE08E010F5D1F4F422E512CD1
:10513000612C712CBF01A30192010E94A833F901D7
:10514000CA01015011096A3014F4605D01C0695C44
:10515000D8016C93232B242B252B61F70115110506
:1051600091F0F80101900020E9F73197AF01401B61
:10517000510BD701ED91FC910280F381E02DB80134
:10518000C701099502C080E090E0A1960FB6F8949F
:10519000DEBF0FBECDBFDF91CF911F910F91FF906A
:1051A000EF907F906F905F904F900895CF92DF9235
:1051B000EF92FF920F931F93CF93DF937C01E62F23
:1051C0008A01DA018D919C91CAE0D0E0BE010E9473
:1051D0000E359B01D7011F968D919C915097BE0172
:1051E0000E940E35C901861B970B97FD0F9624E090
:1051F000959587952A95E1F7C82F803214F0C0EC79
:1052000003C0813E14F4C0E4C80F6E2F70E080E04C
:1052100090E00E9479326B017C01F80182819381D8
:105220006AE070E00E940E35CB018096BC01990FB8
:10523000880B990B0E9479322DEC3CEC4CEC50E43D
:105240000E9446349B01AC01C701B6010E94DA33CB
:105250000E94B8342C2FCC0F330B41E0C901805C85
:105260009F4FDF91CF911F910F91FF90EF90DF90B3
:10527000CF900C94C41AFC01E959FE4F40E050E075
:10528000208120FD0BC066E0649F9001659F300D7A
:1052900011242D593E4F820F931F08954F5F5F4F8A
:1052A00036964430510561F780E090E00895CF9341
:1052B000DF93CDB7DEB7E1970FB6F894DEBF0FBE30
:1052C000CDBF789484B5826084BD84B5816084BD8F
:1052D00085B5826085BD85B5816085BD80916E0094
:1052E000816080936E0010928100809181008260C5
:1052F0008093810080918100816080938100809102
:105300008000816080938000809191008260809312
:105310009100809191008160809391008091900034
:105320008160809390008091C10084608093C1006F
:105330008091C10082608093C1008091C100816032
:105340008093C1008091C30081608093C3008091ED
:10535000C00082608093C0008091C2008160809311
:10536000C20080917A00846080937A0080917A00F4
:10537000826080937A0080917A00816080937A00C5
:1053800080917A00806880937A0010928201109256
:105390000E06109280018091D70081608093D70023
:1053A00080EA8093D80089B5806189BD89B5826023
:1053B00089BD09B400FEFDCF61E070E080E090E0BF
:1053C0000E9462198091D8008F7C80618093D80000
:1053D0008091E000807F8093E0008091E1008E7EEC
:1053E0008093E1008DE08093E200559A209AEEEFE1
:1053F000FFE7859194918B3F9C4D19F481E0809358
:105400000D0681EC80937C0085B1806F85B984B1F5
:10541000877E84B984B1876E84B95E9A5F988AB1B9
:10542000806D8AB9769A6E9881B3806F81BB8998B6
:1054300080B38D7080BB80E58CBD81E08DBD85E043
:1054400090E00E945B1A5F9A85E090E00E945B1AF0
:105450005E985C98EEE3F2E08DE08E0F94919EBD35
:1054600000000DB407FEFDCF31968E13F7CF5C9A86
:1054700081E880936400809165008160809365007D
:1054800080E00E94BD240E94601A87FF10C085EA58
:105490000E94681A2E982F982D988091640080623F
:1054A0008093640081E083BF889513BEFCCF02E047
:1054B00010E00E94601A82FF42C02D980E94601A7C
:1054C00084788438C9F00E94601A8471843191F51F
:1054D0000E94591A88EC90E00E945B1A2E981A8359
:1054E000098360E0CE0101960E944C2184EF91E097
:1054F0000E945B1A2E9A19C00E94591A88EC90E0FB
:105500000E945B1A2F981A8309836FEFCE010196D0
:105510000E944C2184EF91E00E945B1A2F9A0E9416
:10552000601A84788438D9F3CECF0E94601A8471CF
:105530008431D9F388EC90E00E945B1ABACF0E94C4
:10554000591A82E090E00E942933882319F00E94C2
:10555000751A02C00E94701A81E090E00E942933FF
:1055600082FB112710F981E090E00E94293381FF2E
:1055700044C011112E9870EFE72EFF24FA940E9478
:10558000601A86FF04C02E9A2F9A2D9A36C01123D6
:1055900031F084E0E816F10411F42E9A2F9881E09E
:1055A0000E94BD2400E128E54EE851E0B70184E106
:1055B00090E00E94BE2380E00E94BD248FE090E036
:1055C0000E945B1A9FEFE91AF90AA9E1EA16F104B1
:1055D000B1F6112311F02F9A2D9880E991E00E94E5
:1055E0005B1A0E94591AE0919005F0919105019083
:1055F000F081E02D80E995E0099582E390E00E943A
:105600005B1A0E94601A8111F8CF80E190E00E943D
:105610002933843691F481E190E00E942933863663
:1056200061F482E190E00E9429338E3631F483E107
:1056300090E00E942933843649F184E090E00E9492
:105640002835FC0184E6808396E691839EE692836A
:1056500083838F01E12CF12CF80161918F01C70147
:1056600040969A838983CE0101960E944C21FFEFD8
:10567000EF1AFF0A24E0E216F10471F719821A8288
:105680001B821C82CE0101960E94AF22CE010196A0
:105690001C016AE0462E512C8FB7F89440916001AE
:1056A0005091610160916201709163018FBF80919F
:1056B0009805942F981B892F10919905112329F093
:1056C00090939A051092990580C590919705891736
:1056D00048F48F5F891708F078C581E083BF88950B
:1056E00013BE73C581E0809399054093980580911E
:1056F000930590919405019690939405809393055A
:1057000080919505809396050E94601A8093950577
:10571000812FE3E8F1E081118FEF002481938193E1
:10572000819381930394D1F710929E0510929D0569
:1057300010929C0510929B0580916701813031F099
:1057400008F418C4823009F4C0C43CC580916501D6
:1057500090916601892B09F02EC180916A01909188
:105760006B010E94BD3510926B0110926A018AEDA7
:1057700092E00E9428358C0159E0F52EDC01EF2DD6
:105780001D92EA95E9F70E94A61DD80119961C9270
:10579000199713961C921E92129711961C921E92A4
:1057A00014968C911497846014968C93F801128649
:1057B0001386148615868AE08687C8010F96DC0159
:1057C0001D92FA94E9F70E94A61D6801B8E1CB0E7C
:1057D000D11C7801E0E4EE0EF11CC6010E94A61D6A
:1057E000FAE0CF0ED11CCE14DF04B9F7780128EF10
:1057F000E21A2EEFF20AC6010E94A61D8AE0C80E28
:10580000D11CCE14DF04B9F7680197EFC91A9EEFD7
:10581000D90A7801ADE9EA1AAEEFFA0A49E0B42EE6
:10582000F6012B2D11922A95E9F7C6010E94A61DBB
:1058300089E0C80ED11CCE14DF0491F7F601C8012F
:1058400085589E4F118210821382128214823696DE
:10585000E817F907B9F76F01780199E5E91A9EEFA2
:10586000F90A39E0B32ED601EB2D1D92EA95E9F73E
:10587000C6010E94A61DFBE0CF0ED11CCE14DF0492
:1058800091F778012CE2E21A2EEFF20AC6010E948B
:10589000A61D89E0C80ED11CCE14DF04B9F7F601AD
:1058A000C8018E509E4F1182108213821282148280
:1058B0003596E817F907B9F76F0178019AEEE91AFA
:1058C0009DEFF90AC6010E94A61DA9E0CA0ED11CCF
:1058D000CE14DF04B9F77801BAE5EB1ABDEFFB0A85
:1058E000C6010E94A61DE9E0CE0ED11CCE14DF0435
:1058F000B9F77801F3E3EF1AFDEFFF0AC6010E9442
:10590000A61DD6011A961C921E9219971C961C92DF
:105910001E921B97BDE0CB0ED11CCE14DF0471F795
:1059200080E197E2A0E0B0E0F60180839183A2835A
:10593000B383F801EF52FD4F10823196108283E05D
:105940003196808331968083319610823196108211
:1059500031961182108232961082809164008E7F7F
:105960008093640080917A00806480937A008091B3
:105970007A0086FDFCCFE0907800F09079000E94DC
:105980003D19209164002160209364006701E12C9F
:10599000F12C7601DD24CC24DC01CB018C0D9D1D86
:1059A000AE1DBF1D0E943232C8010E94FA1610932C
:1059B0006601009365010091650110916601C801BF
:1059C0008F529D4F9CA38BA3DC018C9182FF9AC0C8
:1059D000E9E1F0E0F0939C05E0939B0584E190E021
:1059E00090939E0580939D058EE592E00E94E322B0
:1059F00078019BE2E91A9DEFF90AD7014C9150E03A
:105A000060E070E02AE08CE895E00E947A28E5E208
:105A1000F0E0F0939C05E0939B0580E290E090938A
:105A20009E0580939D0584E592E00E94E3228FE12C
:105A300090E090939C0580939B0582E390E0909387
:105A40009E0580939D05D701EC90B4E6EB9E700116
:105A50001124E5EFEE16E1E0FE0624F094EFE92EC6
:105A6000FF24F3948BE492E00E94E322A70160E01C
:105A700070E02AE08CE895E00E947A28D8011E9612
:105A80008C91BAE08B9FC00111246801E9E2CE1A23
:105A9000EDEFDE0AD6012D913C91821B930BB201F2
:105AA0000E94FA34B62E8FE1982EA12CAB1468F424
:105AB000892D90E02DE330E0AC016BE370E00E94B3
:105AC0000423A394B6E09B0EF1CFF601808191816F
:105AD000009769F0019791838083B2010E94FA34A4
