:100000000C9470030C9498030C9498030C9498032C
:100010000C9498030C9498030C9498030C949803F4
:100020000C9498030C9498030C9489070C94FB0788
:100030000C9498030C9498030C9498030C949803D4
:100040000C9498030C9498030C9498030C949803C4
:100050000C9498030C9498030C9498030C948005CA
:100060000C9498030C9498030C9498030C949803A4
:100070000C9498030C9498030C9498030C94980394
:100080000C9498030C9498030C9498030C94980384
:100090000C9498030C9498030C9498030C94980374
:1000A0000C9498030C9498030C949803000000009F
:1000B000003E5B4F5B3E3E6B4F6B3E1C3E7C3E1CEE
:1000C000183C7E3C181C577D571C1C5E7F5E1C0034
:1000D000183C1800FFE7C3E7FF0018241800FFE7EB
:1000E000DBE7FF30483A060E2629792926407F05AE
:1000F0000507407F05253F5A3CE73C5A7F3E1C1CC4
:1001000008081C1C3E7F14227F22145F5F005F5F83
:1001100006097F017F006689956A6060606060946F
:10012000A2FFA29408047E040810207E2010080874
:100130002A1C08081C2A08081E101010100C1E0C7F
:100140001E0C30383E3830060E3E0E060000000011
:100150000000005F00000007000700147F147F14F8
:10016000242A7F2A1223130864623649562050003D
:1001700008070300001C2241000041221C002A1C29
:100180007F1C2A08083E0808008070300008080814
:100190000808000060600020100804023E51494534
:1001A0003E00427F400072494949462141494D3352
:1001B0001814127F1027454545393C4A49493141B9
:1001C000211109073649494936464949291E000087
:1001D00014000000403400000008142241141414DC
:1001E0001414004122140802015909063E415D59C8
:1001F0004E7C1211127C7F494949363E41414122D1
:100200007F4141413E7F494949417F090909013EFA
:10021000414151737F0808087F00417F4100204021
:10022000413F017F081422417F404040407F021C33
:10023000027F7F0408107F3E4141413E7F0909094A
:10024000063E4151215E7F09192946264949493216
:1002500003017F01033F4040403F1F2040201F3FDC
:100260004038403F63140814630304780403615961
:10027000494D43007F4141410204081020004141A3
:10028000417F04020102044040404040000307084F
:100290000020545478407F2844443838444444284B
:1002A000384444287F385454541800087E090218F2
:1002B000A4A49C787F0804047800447D400020407A
:1002C000403D007F1028440000417F40007C0478BE
:1002D00004787C080404783844444438FC18242406
:1002E0001818242418FC7C08040408485454542486
:1002F00004043F44243C4040207C1C2040201C3C03
:100300004030403C44281028444C9090907C4464F9
:10031000544C44000836410000007700000041368C
:10032000080002010204023C2623263C1EA1A16112
:10033000123A4040207A3854545559215555794144
:100340002154547841215554784020545579400C1B
:100350001E527212395555555939545454593955FC
:100360005454580000457C410002457D420001453F
:100370007C40F0292429F0F0282528F07C545545AC
:10038000002054547C547C0A097F4932494949323F
:100390003248484832324A4848303A4141217A3A54
:1003A00042402078009DA0A07D39444444393D401E
:1003B00040403D3C24FF2424487E4943662B2FFCCB
:1003C0002F2BFF0929F620C0887E09032054547979
:1003D000410000447D413048484A32384040227A4A
:1003E000007A0A0A727D0D19317D2629292F2826C7
:1003F0002929292630484D402038080808080808CF
:100400000808382F10C8ACBA2F102834FA00007B27
:10041000000008142A142222142A1408950022002D
:1004200095AA005500AAAA55AA55AA000000FF00E7
:10043000101010FF00141414FF001010FF00FF1024
:1004400010F010F0141414FC001414F700FF000056
:10045000FF00FF1414F404FC141417101F10101FD5
:10046000101F1414141F00101010F0000000001FC3
:10047000101010101F10101010F010000000FF10CE
:100480001010101010101010FF10000000FF1400CA
:1004900000FF00FF00001F10170000FC04F41414FC
:1004A0001710171414F404F40000FF00F7141414C8
:1004B00014141414F700F7141414171410101F1048
:1004C0001F141414F4141010F010F000001F101F6B
:1004D0000000001F14000000FC140000F010F010D9
:1004E00010FF10FF141414FF141010101F00000050
:1004F00000F010FFFFFFFFFFF0F0F0F0F0FFFFFF54
:100500000000000000FFFF0F0F0F0F0F38444438AA
:10051000447C2A2A3E147E02020606027E027E02E5
:1005200063554941633844443C04407E201E200604
:10053000027E020299A5E7A5991C2A492A1C4C7241
:1005400001724C304A4D4D303048784830BC625AC8
:10055000463D3E494949007E0101017E2A2A2A2A58
:100560002A44445F444440514A444040444A514034
:100570000000FF0103E080FF000008086B6B0836F5
:1005800012362436060F090F060000181800000066
:100590001010003040FF0101001F01011E00191D55
:1005A0001712003C3C3C3C0000000000F0F89C8E20
:1005B0008783878E9CF8F00000FEFF03030303038C
:1005C000070EFCF80000FEFF0303030303070EFC05
:1005D000F80000FFFF00000000000000FFFF000027
:1005E000FEFF8383838383C7EE7C380000F8FC0E14
:1005F00007030303070EFCF800003F7FE0C0808084
:10060000C0E07F3FFFFF01010101010101FFFF0089
:1006100000FFFF0C0C0C0C1C3E77E3C100007FFFB9
:10062000C0C0C0C0C0E0703F1F00001F3F70E0C0EE
:10063000C0C0E0703F1F00007FFFC1C1C1C1C1E366
:10064000773E1C00001F3F70E0C0C0C0E0703F1F3D
:10065000000000000001FFFF01000000D5F08D1434
:10066000A1C881CFD9F1AF2000080B00020202011E
:100670000009040000010202000005240010010529
:100680002401010104240206052406000107058156
:100690000310004009040100020A000000070502DF
:1006A0000240000007058302400000040309041211
:1006B000010002EF020140412336800001010203E4
:1006C0000141726475696E6F204C4C430041726445
:1006D00075696E6F204C656F6E6172646F00420DBC
:1006E00011241FBECFEFDAE0DEBFCDBF11E0A0E0E6
:1006F000B1E0E6E8FDE102C005900D92A034B1073B
:10070000D9F725E0A0E4B1E001C01D92A93DB207F0
:10071000E1F713E0C0E7D3E004C02197FE010E9497
:10072000890DCF36D107C9F70E942B0A0C94C10E50
:100730000C940000CF92DF92EF92FF920F931F93E1
:10074000CF93DF936C017A018B01C0E0D0E0CE152E
:10075000DF0589F0D8016D918D01D601ED91FC91F5
:100760000190F081E02DC6010995892B11F47E01DD
:1007700002C02196ECCFC701DF91CF911F910F915D
:10078000FF90EF90DF90CF9008953FB7F89480915D
:10079000410190914201A0914301B091440126B5DD
:1007A000A89B05C02F3F19F00196A11DB11D3FBFA9
:1007B000BA2FA92F982F8827820F911DA11DB11D37
:1007C000BC01CD0142E0660F771F881F991F4A9533
:1007D000D1F708952D9A08958FB18095807F669BFB
:1007E00088601C9B846008952F923F924F925F9285
:1007F0006F927F928F929F92AF92BF92CF92DF9231
:10080000EF92FF920F931F93CF93DF93CDB7DEB795
:1008100028970FB6F894DEBF0FBECDBF98878F83A1
:100820006A30A1F4DC0155962C91559751968D9123
:100830009C915297B8E02B9F800D911D1124EF8160
:10084000F885928B818B108A1786BEC06D3009F4B3
:10085000BBC0AF81B8855596BC91BC83EF81F8854C
:1008600054884388E188F28887859089803891058B
:10087000C4F0AF81B88555962C915597422F50E022
:100880001F968D919C915097B6E02B9F800D911DE6
:100890001124EF81F885908B8787268921117FC0ED
:1008A00093C0F0E4EF16F10424F79C015C8145E06D
:1008B000549F200D311D112412161306D4F6C52E97
:1008C000D12C9701A8E05A9F200D311D112412163A
:1008D00013067CF655E0659FF00111249F01245515
:1008E0003F4F3E832D83912C30E1732EED81FE81AD
:1008F0008490F5E09F1201C0812C870128E0622ED0
:1009000080FC02C0552D01C0542D511109C0541056
:1009100007C086946A940C0D1D1D6110F1CF33C081
:100920009C0151705B83322E622F681B5C816517BE
:1009300080F7B801A62FA01B4C81A41708F520381A
:100940003105D8F460347105C0F4FB0141E0E1FDEC
:1009500044E0E0FD440FE2FD4295E87F7E9ED00139
:100960001124A30DBA83A983AF59BE4FBC90B42AFA
:100970005B81511101C0B426BC926F5F7F4FDACF0B
:100980002F5F3F4FD0CF93948C0D9D1DED81FE8145
:100990003196FE83ED83F6E09F12A8CF6ACF6AEF0F
:1009A00064039001659F300D112420583F4F281794
:1009B000390754F48F819885DC01ED91FC91019009
:1009C000F081E02D6AE0099581E090E028960FB66D
:1009D000F894DEBF0FBECDBFDF91CF911F910F9175
:1009E000FF90EF90DF90CF90BF90AF909F908F904F
:1009F0007F906F905F904F903F902F900895089553
:100A0000089580E090E008950C94730D40915A0190
:100A100050915B01209158013091590142175307C1
:100A2000B4F49091E8009570E1F39091E80092FDA4
:100A300019C08093F10080915A0190915B01019659
:100A40008F739927892B19F48EEF8093E80080919A
:100A50005A0190915B01019690935B0180935A013A
:100A600081E0089580E00895615030F02091F10018
:100A7000FC0120830196F8CF289884E680935F01DB
:100A800008958F929F92AF92BF92CF92DF92EF9292
:100A9000FF926B017C010E94C5034B015C01C114F4
:100AA000D104E104F104F1F00E94C503DC01CB01A3
:100AB00088199909AA09BB09883E9340A105B10587
:100AC00070F321E0C21AD108E108F10888EE880E1F
:100AD00083E0981EA11CB11CC114D104E104F104EF
:100AE00019F7DDCFFF90EF90DF90CF90BF90AF90E0
:100AF0009F908F900895BC0180E090E00C94410598
:100B00001F920F920FB60F9211242F933F938F9342
:100B10009F93AF93BF938091520190915301A09105
:100B20005401B09155013091400123E0230F2D373E
:100B300020F40196A11DB11D05C026E8230F0296E1
:100B4000A11DB11D20934001809352019093530148
:100B5000A0935401B09355018091410190914201BD
:100B6000A0914301B09144010196A11DB11D809354
:100B7000410190934201A0934301B0934401BF917E
:100B8000AF919F918F913F912F910F900FBE0F903A
:100B90001F901895FC0180916001811103C08FEFB7
:100BA0009FEF08959FB7F89482E08093E900209129
:100BB000F20030E01216130614F421E030E02115A3
:100BC000310559F0289884E680935F018091F10007
:100BD00080838091F200882319F09FBFC901089596
:100BE0008BE68093E800F9CF2FB7F89483E08093E9
:100BF000E9009091E800892F807295FF04C09091E0
:100C0000F20080E4891B2FBF089580917D0581113A
:100C10000DC082E08093790584E080937A0510927C
:100C20007C0510927B0581E080937D0589E795E046
:100C30000895CF93DF931F92CDB7DEB76983DC01B0
:100C4000ED91FC910280F381E02D41E050E0BE0186
:100C50006F5F7F4F09950F90DF91CF91089583E0EB
:100C60008093E9008091F200882319F08AE3809351
:100C7000E80008950E94F40590E00895CF93DF9373
:100C80001F92CDB7DEB7FC018485958597FD05C021
:100C90002FEF3FEF358724870BC0CE0101960E94CE
:100CA000CA05019719F4898190E002C08FEF9FEF88
:100CB0000F90DF91CF9108950F931F93CF93DF9300
:100CC0001F92CDB7DEB78C01FC018485958597FF17
:100CD0000EC0CE0101960E94CA05019719F4298120
:100CE00030E002C02FEF3FEFF80135872487F8018D
:100CF000848595850F90DF91CF911F910F91089575
:100D0000FC018485958597FD0BC09FB7F89482E020
:100D10008093E9008091F2009FBF90E001960895D2
:100D20009FB7F89482E08093E9008091F2009FBF22
:100D300090E008958F929F92AF92BF92CF92DF92F0
:100D4000EF92FF920F931F93CF93DF935C016B01A0
:100D50007A0180910B01882309F45BC080916001C6
:100D6000882309F456C080915E0180FF05C0809100
:100D7000E00082608093E000E70110E00AEF83E08A
:100D8000882E9AE3992E2097D9F10E94F4058111BB
:100D90000AC0015009F43DC061E070E080E090E0DD
:100DA0000E944105F0CF282F30E0C217D3070CF482
:100DB0008C2F4FB7F8948092E9009091E80095FF4E
:100DC0001DC0282F30E0C21BD30BF601982F915085
:100DD00020F081918093F100FACFC20ED31E11232F
:100DE00019F09092E80009C08091E80085FD06C0E6
:100DF0009092E80011E0209709F010E04FBFC3CFB8
:100E00001111C3CF5D9884E6809378051E141F04EA
:100E100044F081E090E0F5019383828380E090E0EC
:100E200001C0C701DF91CF911F910F91FF90EF900B
:100E3000DF90CF90BF90AF909F908F9008950E94C9
:100E4000BC0EDF92EF92FF920F931F93CF93DF932D
:100E5000D82E8A017B01E40EF51EEB01CE15DF05CD
:100E600071F0D7FE03C0FE01849101C088810E9409
:100E7000060521968111F2CF8FEF9FEF01C0C801C7
:100E8000DF91CF911F910F91FF90EF90DF90089528
:100E90000F931F93CF93DF931F92CDB7DEB782E0FE
:100EA000898342E450E069E676E080E80E94210709
:100EB0000E940506DC0112960D911C9113970115F5
:100EC000110569F0D801ED91FC910280F381E02DCC
:100ED000BE016F5F7F4FC801099597FF07C08981E9
:100EE0000F90DF91CF911F910F910895F801008528
:100EF0001185E5CFE1E6F1E0A0E0B8E000800EBCAE
:100F00008111012C1197A0FDFDCF0192B9F70DB40D
:100F100008951F920F920FB60F9211248F939F93F3
:100F20008091E1009091E100937F9093E10083FF35
:100F30000FC01092E90091E09093EB001092EC004A
:100F400092E39093ED001092600198E09093F0008E
:100F500082FF20C093E09093E9009091F2009923E2
:100F600019F09AE39093E80090917805992339F06D
:100F700090917805915090937805992389F19091FB
:100F80005F01992339F090915F01915090935F0137
:100F9000992341F184FF10C08091E2008E7E816030
:100FA0008093E2008091E1008F7E8093E100809148
:100FB0005E018E7E806111C080FF16C08091E200CC
:100FC0008E7E80618093E2008091E1008E7E80932E
:100FD000E10080915E018E7E816080935E0104C09D
:100FE0005D9ACDCF289AD6CF9F918F910F900FBE4B
:100FF0000F901F9018951F920F920FB60F92112409
:10100000CF92DF92EF92FF920F931F932F933F9314
:101010004F935F936F937F938F939F93AF93BF9300
:10102000EF93FF93CF93DF93CDB7DEB76C97DEBF1F
:10103000CDBF1092E9008091E80083FFEDC168E028
:10104000CE0145960E94340582EF8093E8008D8999
:1010500087FF05C09091E80090FFFCCF03C09EEF92
:101060009093E800982F907609F0C6C09E892F894A
:10107000188D91110CC0803829F480915D01809306
:10108000F10002C01092F1001092F10048C1422F0D
:1010900050E0512B913051F4811141C14130510543
:1010A00009F03DC180915D018D7F0BC0933061F4EB
:1010B000811135C14130510509F031C180915D0187
:1010C000826080935D012BC1953041F48091E800EE
:1010D00080FFFCCF20682093E30021C1963009F007
:1010E0005FC0EB8CFC8C1092E90010925B011092B7
:1010F0005A01123091F510925901109258010E9434
:10110000480799E0BE016F5F7F4FDB01E92F1D9219
:10111000EA95E9F799831A8391E09E8390EA98878C
:101120009AEF998720915A0130915B01275F3F4FD9
:101130003C832B838D831092E90010925B01109207
:101140005A01F0925901E092580149E050E080E0E4
:101150000E9421070E944807E2C0F0925901E092E4
:1011600058010E940506DC011296ED90FC90139741
:10117000E114F10409F4C0C0D701ED91FC910480A1
:10118000F581E02DBE016B5E7F4FC7010995009789
:1011900019F00CF0C4C0C7C0F701E084F184E8CFB7
:1011A000973009F4C0C0983021F481E08093F100B9
:1011B000B6C0993009F0B3C0837009F0B4C0E3E160
:1011C000F1E081E021E036E39081992361F08093A2
:1011D000E9002093EB0091919093EC003093ED00A7
:1011E0008F5F873089F78EE78093EA001092EA00DC
:1011F0008F898093600193C08B8D9C8D1092E90044
:1012000010925B0110925A019093590180935801FA
:10121000898D811156C08E899D89913A59F4813208
:1012200009F081C047E050E064E071E080E00E9496
:10123000210775C0913209F076C0833289F4888D18
:1012400090E0982F88272F89822BA0E0B0E0809330
:10125000000190930101A0930201B09303015FC0CC
:10126000803269F48091E80082FFFCCF67E084E07F
:1012700091E00E9434058BEF8093E80006C0823233
:1012800009F04DC08F8980930B0180915C01882308
:1012900019F0EEEFFAE002C0E0E0F8E0809104011E
:1012A00090910501A0910601B0910701803B944007
:1012B000A105B10509F07BC080910B0180FF93C0AF
:1012C00076C00E940506DC0112960D911C911397C1
:1012D0000115110541F1D801ED91FC910190F081CA
:1012E000E02DBE016B5E7F4FC8010995811117C0CB
:1012F000F80100851185ECCF113009F44EC0133090
:1013000091F48F89882309F445C0823081F440E844
:1013100060E18DEC96E00E94050D882321F08EEFB0
:101320008093E80079C081E28093EB0075C0813042
:1013300029F440E86BE081EC96E0EDCF833099F73B
:101340000E940506DC011296ED90FC9013978E0129
:101350000F5F1F4F6801E114F10479F0D701ED919F
:10136000FC910680F781E02DB801C7010995080FAF
:10137000111DF701E084F184EECFD8011C92F60133
:1013800001900020E9F73197BF016C197D0940E019
:10139000C601C1CF6BEA76E002C06FEA76E0611564
:1013A000710509F2FB01449150E080E840CF0FB68F
:1013B000F894A895809160008861809360001092F5
:1013C00060000FBEA895EE3F2AE0F20739F0809149
:1013D000FE0A9091FF0A91838083A1CF1092FF0AA9
:1013E0001092FE0A9CCFEE3F8AE0F80731F0808130
:1013F00091819093FF0A8093FE0A87E797E7918394
:1014000080839BE088E10FB6F894A89580936000F4
:101410000FBE9093600083CF6C960FB6F894DEBF3A
:101420000FBECDBFDF91CF91FF91EF91BF91AF91F3
:101430009F918F917F916F915F914F913F912F91EC
:101440001F910F91FF90EF90DF90CF900F900FBE04
:101450000F901F901895789484B5826084BD84B5F0
:10146000816084BD85B5826085BD85B5816085BD9F
:1014700080916E00816080936E0010928100809157
:1014800081008260809381008091810081608093DF
:101490008100809180008160809380008091910024
:1014A000826080939100809191008160809391008F
:1014B000809190008160809390008091C100846051
:1014C0008093C1008091C10082608093C1008091AF
:1014D000C10081608093C1008091C30081608093CE
:1014E000C3008091C00082608093C0008091C200E0
:1014F00081608093C20080917A00846080937A003A
:1015000080917A00826080937A0080917A00816075
:1015100080937A0080917A00806880937A0010929C
:10152000600110925D0110925E018091D700816090
:101530008093D70080EA8093D80089B5806189BD07
:1015400089B5826089BD09B400FEFDCF61E070E01D
:1015500080E090E00E9441058091D8008F7C8061FE
:101560008093D8008091E000807F8093E00080919C
:10157000E1008E7E8093E1008DE08093E200559A39
:10158000209AEEEFFFE7859194918B3F9C4D19F4E3
:1015900081E080935C0181EC80937C0085B1806F59
:1015A00085B984B1877E84B984B1876E84B95E9A27
:1015B0005F988AB1806D8AB9769A6E9881B3806F90
:1015C00081BB899880B38D7080BB80E58CBD81E044
:1015D0008DBD85E090E00E947B055F9A85E090E0FC
:1015E0000E947B055E985C98ECE5F6E08DE08E0F3E
:1015F00094919EBD00000DB407FEFDCF31968E1371
:10160000F7CF5C9A81E880936400809165008160E7
:101610008093650080E00E947A070E94EC0387FFB8
:1016200024C05C9885EA8EBD00000DB407FEFDCF96
:101630005C9A2E982F982D988091640080628093F8
:10164000640081E083BF889513BEFCCF2D980E9473
:10165000EC038478843871F00E94EC038471843147
:1016600031F188EC90E00E947B050E94EC0382FD42
:10167000EDCF3AC00E94EA0388EC90E00E947B051F
:101680002F9882E090E00E94730D8F3F29F06FEF5A
:1016900082E090E00E947B0D84EF91E00E947B0548
:1016A0002F9A0E94EC0384788438D9F3D5CF0E9416
:1016B000EA0388EC90E00E947B052E9882E090E09F
:1016C0000E94730D882329F060E082E090E00E9480
:1016D0007B0D84EF91E00E947B052E9A0E94EC0323
:1016E00084718431D9F3BDCF0E94EA0382E090E097
:1016F0000E94730D882331F03E9A3F9A81E08093D7
:10170000450104C0109245013E983F9881E090E069
:101710000E94040582FB992490F881FF8CC09110EF
:101720002E98C0EFDFEF08E010E00E94EC0386FF88
:1017300004C02E9A2F9A2D9A7EC0992029F0C43089
:10174000D10511F42E9A2F9881E00E947A079E010C
:10175000D7FF04C0222733272C1B3D0B27703327CC
:10176000CE01D7FD079653E0959587955A95E1F7F9
:10177000D7FF05C00197A801421B530B9A017C01BA
:10178000F694FE2CEE24F794E79460E070E03801C4
:10179000621A730AD701A058BF4F5D018F3FBFEF98
:1017A0009B0744F40196685A7F4F7501603B7105B1
:1017B00089F721C0D701AB50BE4F40E050E08F3FCA
:1017C000EFEF9E0709F4C1C0FA01E60FF71FE455D9
:1017D000FA4FE4916D01CA18DB08CE0CDF1CF0E073
:1017E0002F01022E01C0440C0A94EAF7F601808012
:1017F00048284082AAC080E00E947A078FE090E0EB
:101800000E947B052196C931D10509F08ECF992020
:1018100011F02F9A2D9880E991E00E947B050E949B
:10182000EA03E0916505F09166050190F081E02DF5
:1018300085E695E0099582E390E00E947B050E9491
:10184000EC038111F8CF80914A01811103C081E03E
:1018500080934A0186E491E090935701809356016A
:10186000DD24D39481E6E82E81E0F82E00E010E03C
:10187000CC24C3948FB7F8944091520150915301F6
:1018800060915401709155018FBF80916D05942F27
:10189000981B80916E05882329F090936F05109214
:1018A0006E054CC020916C05921740F49F5F921713
:1018B00008F044C0D3BE889513BE40C0C0926E05E8
:1018C00040936D0520916805309169052F5F3F4F6A
:1018D0003093690520936805F70181118FEF00248B
:1018E00081938193819381930394D1F7109273052F
:1018F000109272051092710510927005C0915601F8
:10190000D091570188819981DC01ED91FC91019082
:10191000F081E02D09958A819B81892B61F0888176
:101920009981009711F00E94240E8A819B819983EE
:1019300088831B821A8280E00E947A0701151105B4
:1019400009F498CF0E94000095CF2115310581F050
:10195000FA01E60FF71FE455FA4FE491F0E0062C88
:1019600002C0F595E7950A94E2F7DC90ED29EC9337
:101970004F5F5F4F11964835510509F020CF12CFC8
:101980000F931F93CF93DF938C0181E090E00E942F
:10199000040580FF32C08AE090E00E9404059FEFBA
:1019A000980F9E3F50F522E330E0D80150963C93CB
:1019B0002E931F9728E330E052963C932E93519735
:1019C000CBE0D0E0D801ED91FC910190F081E02DC9
:1019D000682FC8010995CE010E9404052196C131E6
:1019E000D10581F780E00E947A0788EE93E0DF91CD
:1019F000CF911F910F910C947B05DF91CF911F9197
:101A00000F91089504970C94C00CCF92DF92EF923F
:101A1000FF920F931F93CF93DF931F92CDB7DEB743
:101A2000182F062FE42E862F880F8E5F99830E9431
:101A3000060583E00E940605F12EC12E9981D92E5C
:101A40008C2D8F19801798F4F601E7FE02C084915F
:101A500001C080810E940605182F80E00E940605C3
:101A60008123FFEFCF1ADF0A8111EACF01C081E0A5
:101A70000F90DF91CF911F910F91FF90EF90DF902A
:101A8000CF900895E5E8F5E01382128288EE93E0A6
:101A9000A0E0B0E084839583A683B7838DE191E0D5
:101AA000918380838FEF9FEF95878487E1E6F5E050
:101AB000138212821186128680E183871086178234
:101AC00015868FE291E0918380838DE391E0958389
:101AD0008483108A1786128A118A81E0838B148A84
:101AE000858B168A0895F999FECF92BD81BDF89A2B
:101AF000992780B50895262FF999FECF1FBA92BD78
:101B000081BD20BD0FB6F894FA9AF99A0FBE0196DE
:101B10000895EE0FFF1F0590F491E02D0994CF93E7
:101B2000DF938230910510F482E090E0E091D705D8
:101B3000F091D80520E030E0C0E0D0E0309711F11E
:101B40004081518148175907C0F04817590761F47F
:101B500082819381209719F09B838A832BC0909375
:101B6000D8058093D70526C02115310519F04217F5
:101B7000530718F49A01BE01DF01EF010280F381DF
:101B8000E02DDCCF2115310509F1281B390B24305C
:101B9000310590F412968D919C9113976115710502
:101BA00021F0FB019383828304C09093D805809336
:101BB000D705FD01329644C0FD01E20FF31F81936A
:101BC0009193225031092D933C933AC02091D50531
:101BD0003091D605232B41F420910E0130910F0155
:101BE0003093D6052093D50520910C0130910D013D
:101BF0002115310541F42DB73EB7409110015091A8
:101C00001101241B350BE091D505F091D605E217A3
:101C1000F307A0F42E1B3F0B2817390778F0AC010F
:101C20004E5F5F4F2417350748F04E0F5F1F5093EC
:101C3000D6054093D5058193919302C0E0E0F0E092
:101C4000CF01DF91CF9108950F931F93CF93DF932F
:101C5000009709F48CC0FC01329713821282009124
:101C6000D7051091D8050115110581F42081318126
:101C7000820F931F2091D5053091D605281739077B
:101C800079F5F093D605E093D50571C0D80140E011
:101C900050E0AE17BF0750F412962D913C91139768
:101CA000AD012115310509F1D901F3CF9D01DA010B
:101CB0003383228360817181860F971F8217930778
:101CC00069F4EC0128813981260F371F2E5F3F4FC1
:101CD000318320838A819B8193838283452B29F4DE
:101CE000F093D805E093D70542C01396FC93EE938A
:101CF0001297ED01499159919E01240F351FE2176A
:101D0000F30771F480819181840F951F02961196DB
:101D10009C938E938281938113969C938E931297BA
:101D2000E0E0F0E0D80112968D919C911397009716
:101D300019F0F8018C01F6CF8D919C9198012E5FDE
:101D40003F4F820F931F2091D5053091D60528175C
:101D5000390769F4309729F41092D8051092D70505
:101D600002C0138212821093D6050093D505DF912D
:101D7000CF911F910F91089581E090E0F8940C9419
:061D8000C10EF894FFCF34
:101D8600FFFFFFFF00E10000000000000000D90592
:101D9600800000C180810000000000000019069A42
:101DA600063A062F0680063E065C0600000000F492
:101DB600039A0301050005C00CFCFF0000020D009C
:00000001FF
